{
  "_format": "hh-sol-artifact-1",
  "contractName": "RecipeBook",
  "sourceName": "contracts/RecipeBook.sol",
  "abi": [
    {
      "inputs": [
        {
          "internalType": "address",
          "name": "_feeRecipient",
          "type": "address"
        },
        {
          "internalType": "uint256",
          "name": "_initialPlatformFeeBps",
          "type": "uint256"
        }
      ],
      "stateMutability": "nonpayable",
      "type": "constructor"
    },
    {
      "inputs": [
        {
          "internalType": "address",
          "name": "sender",
          "type": "address"
        },
        {
          "internalType": "uint256",
          "name": "tokenId",
          "type": "uint256"
        },
        {
          "internalType": "address",
          "name": "owner",
          "type": "address"
        }
      ],
      "name": "ERC721IncorrectOwner",
      "type": "error"
    },
    {
      "inputs": [
        {
          "internalType": "address",
          "name": "operator",
          "type": "address"
        },
        {
          "internalType": "uint256",
          "name": "tokenId",
          "type": "uint256"
        }
      ],
      "name": "ERC721InsufficientApproval",
      "type": "error"
    },
    {
      "inputs": [
        {
          "internalType": "address",
          "name": "approver",
          "type": "address"
        }
      ],
      "name": "ERC721InvalidApprover",
      "type": "error"
    },
    {
      "inputs": [
        {
          "internalType": "address",
          "name": "operator",
          "type": "address"
        }
      ],
      "name": "ERC721InvalidOperator",
      "type": "error"
    },
    {
      "inputs": [
        {
          "internalType": "address",
          "name": "owner",
          "type": "address"
        }
      ],
      "name": "ERC721InvalidOwner",
      "type": "error"
    },
    {
      "inputs": [
        {
          "internalType": "address",
          "name": "receiver",
          "type": "address"
        }
      ],
      "name": "ERC721InvalidReceiver",
      "type": "error"
    },
    {
      "inputs": [
        {
          "internalType": "address",
          "name": "sender",
          "type": "address"
        }
      ],
      "name": "ERC721InvalidSender",
      "type": "error"
    },
    {
      "inputs": [
        {
          "internalType": "uint256",
          "name": "tokenId",
          "type": "uint256"
        }
      ],
      "name": "ERC721NonexistentToken",
      "type": "error"
    },
    {
      "inputs": [
        {
          "internalType": "address",
          "name": "owner",
          "type": "address"
        }
      ],
      "name": "OwnableInvalidOwner",
      "type": "error"
    },
    {
      "inputs": [
        {
          "internalType": "address",
          "name": "account",
          "type": "address"
        }
      ],
      "name": "OwnableUnauthorizedAccount",
      "type": "error"
    },
    {
      "inputs": [],
      "name": "ReentrancyGuardReentrantCall",
      "type": "error"
    },
    {
      "anonymous": false,
      "inputs": [
        {
          "indexed": true,
          "internalType": "address",
          "name": "owner",
          "type": "address"
        },
        {
          "indexed": true,
          "internalType": "address",
          "name": "approved",
          "type": "address"
        },
        {
          "indexed": true,
          "internalType": "uint256",
          "name": "tokenId",
          "type": "uint256"
        }
      ],
      "name": "Approval",
      "type": "event"
    },
    {
      "anonymous": false,
      "inputs": [
        {
          "indexed": true,
          "internalType": "address",
          "name": "owner",
          "type": "address"
        },
        {
          "indexed": true,
          "internalType": "address",
          "name": "operator",
          "type": "address"
        },
        {
          "indexed": false,
          "internalType": "bool",
          "name": "approved",
          "type": "bool"
        }
      ],
      "name": "ApprovalForAll",
      "type": "event"
    },
    {
      "anonymous": false,
      "inputs": [
        {
          "indexed": false,
          "internalType": "uint256",
          "name": "_fromTokenId",
          "type": "uint256"
        },
        {
          "indexed": false,
          "internalType": "uint256",
          "name": "_toTokenId",
          "type": "uint256"
        }
      ],
      "name": "BatchMetadataUpdate",
      "type": "event"
    },
    {
      "anonymous": false,
      "inputs": [
        {
          "indexed": false,
          "internalType": "uint256",
          "name": "_tokenId",
          "type": "uint256"
        }
      ],
      "name": "MetadataUpdate",
      "type": "event"
    },
    {
      "anonymous": false,
      "inputs": [
        {
          "indexed": true,
          "internalType": "address",
          "name": "owner",
          "type": "address"
        },
        {
          "indexed": true,
          "internalType": "uint256",
          "name": "tokenId",
          "type": "uint256"
        },
        {
          "indexed": false,
          "internalType": "uint256",
          "name": "price",
          "type": "uint256"
        }
      ],
      "name": "NFTListedForSale",
      "type": "event"
    },
    {
      "anonymous": false,
      "inputs": [
        {
          "indexed": true,
          "internalType": "address",
          "name": "creator",
          "type": "address"
        },
        {
          "indexed": true,
          "internalType": "uint256",
          "name": "tokenId",
          "type": "uint256"
        },
        {
          "indexed": true,
          "internalType": "uint256",
          "name": "recipeId",
          "type": "uint256"
        },
        {
          "indexed": false,
          "internalType": "uint256",
          "name": "mintPrice",
          "type": "uint256"
        }
      ],
      "name": "NFTMinted",
      "type": "event"
    },
    {
      "anonymous": false,
      "inputs": [
        {
          "indexed": true,
          "internalType": "address",
          "name": "owner",
          "type": "address"
        },
        {
          "indexed": true,
          "internalType": "uint256",
          "name": "tokenId",
          "type": "uint256"
        }
      ],
      "name": "NFTRemovedFromSale",
      "type": "event"
    },
    {
      "anonymous": false,
      "inputs": [
        {
          "indexed": true,
          "internalType": "address",
          "name": "seller",
          "type": "address"
        },
        {
          "indexed": true,
          "internalType": "address",
          "name": "buyer",
          "type": "address"
        },
        {
          "indexed": true,
          "internalType": "uint256",
          "name": "tokenId",
          "type": "uint256"
        },
        {
          "indexed": false,
          "internalType": "uint256",
          "name": "price",
          "type": "uint256"
        }
      ],
      "name": "NFTSold",
      "type": "event"
    },
    {
      "anonymous": false,
      "inputs": [
        {
          "indexed": true,
          "internalType": "address",
          "name": "previousOwner",
          "type": "address"
        },
        {
          "indexed": true,
          "internalType": "address",
          "name": "newOwner",
          "type": "address"
        }
      ],
      "name": "OwnershipTransferred",
      "type": "event"
    },
    {
      "anonymous": false,
      "inputs": [
        {
          "indexed": true,
          "internalType": "address",
          "name": "creator",
          "type": "address"
        },
        {
          "indexed": false,
          "internalType": "uint256",
          "name": "recipeId",
          "type": "uint256"
        },
        {
          "indexed": false,
          "internalType": "string",
          "name": "title",
          "type": "string"
        }
      ],
      "name": "RecipeSubmitted",
      "type": "event"
    },
    {
      "anonymous": false,
      "inputs": [
        {
          "indexed": true,
          "internalType": "address",
          "name": "voter",
          "type": "address"
        },
        {
          "indexed": false,
          "internalType": "uint256",
          "name": "recipeId",
          "type": "uint256"
        }
      ],
      "name": "RecipeVoted",
      "type": "event"
    },
    {
      "anonymous": false,
      "inputs": [
        {
          "indexed": true,
          "internalType": "address",
          "name": "recipient",
          "type": "address"
        },
        {
          "indexed": false,
          "internalType": "uint256",
          "name": "amount",
          "type": "uint256"
        },
        {
          "indexed": true,
          "internalType": "uint256",
          "name": "tokenId",
          "type": "uint256"
        }
      ],
      "name": "RoyaltyPaid",
      "type": "event"
    },
    {
      "anonymous": false,
      "inputs": [
        {
          "indexed": true,
          "internalType": "address",
          "name": "from",
          "type": "address"
        },
        {
          "indexed": true,
          "internalType": "address",
          "name": "to",
          "type": "address"
        },
        {
          "indexed": true,
          "internalType": "uint256",
          "name": "tokenId",
          "type": "uint256"
        }
      ],
      "name": "Transfer",
      "type": "event"
    },
    {
      "anonymous": false,
      "inputs": [
        {
          "indexed": true,
          "internalType": "address",
          "name": "user",
          "type": "address"
        },
        {
          "indexed": false,
          "internalType": "uint256",
          "name": "timestamp",
          "type": "uint256"
        }
      ],
      "name": "UserProfileCreated",
      "type": "event"
    },
    {
      "anonymous": false,
      "inputs": [
        {
          "indexed": true,
          "internalType": "address",
          "name": "user",
          "type": "address"
        },
        {
          "indexed": false,
          "internalType": "uint256",
          "name": "timestamp",
          "type": "uint256"
        }
      ],
      "name": "UserProfileUpdated",
      "type": "event"
    },
    {
      "inputs": [],
      "name": "BPS_DIVISOR",
      "outputs": [
        {
          "internalType": "uint256",
          "name": "",
          "type": "uint256"
        }
      ],
      "stateMutability": "view",
      "type": "function"
    },
    {
      "inputs": [],
      "name": "MAX_PLATFORM_FEE_BPS",
      "outputs": [
        {
          "internalType": "uint256",
          "name": "",
          "type": "uint256"
        }
      ],
      "stateMutability": "view",
      "type": "function"
    },
    {
      "inputs": [],
      "name": "MAX_ROYALTY_PERCENT",
      "outputs": [
        {
          "internalType": "uint256",
          "name": "",
          "type": "uint256"
        }
      ],
      "stateMutability": "view",
      "type": "function"
    },
    {
      "inputs": [
        {
          "internalType": "address",
          "name": "to",
          "type": "address"
        },
        {
          "internalType": "uint256",
          "name": "tokenId",
          "type": "uint256"
        }
      ],
      "name": "approve",
      "outputs": [],
      "stateMutability": "nonpayable",
      "type": "function"
    },
    {
      "inputs": [
        {
          "internalType": "address",
          "name": "owner",
          "type": "address"
        }
      ],
      "name": "balanceOf",
      "outputs": [
        {
          "internalType": "uint256",
          "name": "",
          "type": "uint256"
        }
      ],
      "stateMutability": "view",
      "type": "function"
    },
    {
      "inputs": [
        {
          "internalType": "uint256",
          "name": "tokenId",
          "type": "uint256"
        }
      ],
      "name": "burn",
      "outputs": [],
      "stateMutability": "nonpayable",
      "type": "function"
    },
    {
      "inputs": [
        {
          "internalType": "uint256",
          "name": "_tokenId",
          "type": "uint256"
        }
      ],
      "name": "buyNFT",
      "outputs": [],
      "stateMutability": "payable",
      "type": "function"
    },
    {
      "inputs": [],
      "name": "completeOnboarding",
      "outputs": [],
      "stateMutability": "nonpayable",
      "type": "function"
    },
    {
      "inputs": [],
      "name": "createUserProfile",
      "outputs": [
        {
          "internalType": "bool",
          "name": "",
          "type": "bool"
        }
      ],
      "stateMutability": "nonpayable",
      "type": "function"
    },
    {
      "inputs": [
        {
          "internalType": "address",
          "name": "_user",
          "type": "address"
        }
      ],
      "name": "doesUserExist",
      "outputs": [
        {
          "internalType": "bool",
          "name": "",
          "type": "bool"
        }
      ],
      "stateMutability": "view",
      "type": "function"
    },
    {
      "inputs": [],
      "name": "feeRecipient",
      "outputs": [
        {
          "internalType": "address",
          "name": "",
          "type": "address"
        }
      ],
      "stateMutability": "view",
      "type": "function"
    },
    {
      "inputs": [],
      "name": "getAllRecipes",
      "outputs": [
        {
          "components": [
            {
              "internalType": "uint256",
              "name": "id",
              "type": "uint256"
            },
            {
              "internalType": "address",
              "name": "creator",
              "type": "address"
            },
            {
              "internalType": "string",
              "name": "title",
              "type": "string"
            },
            {
              "internalType": "string",
              "name": "ingredients",
              "type": "string"
            },
            {
              "internalType": "string",
              "name": "instructions",
              "type": "string"
            },
            {
              "internalType": "string",
              "name": "imageURL",
              "type": "string"
            },
            {
              "internalType": "uint256",
              "name": "votes",
              "type": "uint256"
            },
            {
              "internalType": "uint256",
              "name": "timestamp",
              "type": "uint256"
            },
            {
              "internalType": "bool",
              "name": "isNFT",
              "type": "bool"
            },
            {
              "internalType": "uint256",
              "name": "nftTokenId",
              "type": "uint256"
            }
          ],
          "internalType": "struct RecipeBook.RecipeData[]",
          "name": "",
          "type": "tuple[]"
        }
      ],
      "stateMutability": "view",
      "type": "function"
    },
    {
      "inputs": [
        {
          "internalType": "uint256",
          "name": "tokenId",
          "type": "uint256"
        }
      ],
      "name": "getApproved",
      "outputs": [
        {
          "internalType": "address",
          "name": "",
          "type": "address"
        }
      ],
      "stateMutability": "view",
      "type": "function"
    },
    {
      "inputs": [],
      "name": "getNFTsForSale",
      "outputs": [
        {
          "internalType": "uint256[]",
          "name": "",
          "type": "uint256[]"
        }
      ],
      "stateMutability": "view",
      "type": "function"
    },
    {
      "inputs": [],
      "name": "getTotalNFTs",
      "outputs": [
        {
          "internalType": "uint256",
          "name": "",
          "type": "uint256"
        }
      ],
      "stateMutability": "view",
      "type": "function"
    },
    {
      "inputs": [],
      "name": "getTotalRecipes",
      "outputs": [
        {
          "internalType": "uint256",
          "name": "",
          "type": "uint256"
        }
      ],
      "stateMutability": "view",
      "type": "function"
    },
    {
      "inputs": [
        {
          "internalType": "address",
          "name": "user",
          "type": "address"
        }
      ],
      "name": "getUserNFTs",
      "outputs": [
        {
          "internalType": "uint256[]",
          "name": "",
          "type": "uint256[]"
        }
      ],
      "stateMutability": "view",
      "type": "function"
    },
    {
      "inputs": [
        {
          "internalType": "address",
          "name": "_user",
          "type": "address"
        }
      ],
      "name": "getUserProfile",
      "outputs": [
        {
          "components": [
            {
              "internalType": "address",
              "name": "userAddress",
              "type": "address"
            },
            {
              "internalType": "uint256",
              "name": "reputation",
              "type": "uint256"
            },
            {
              "internalType": "uint256",
              "name": "recipesCreated",
              "type": "uint256"
            },
            {
              "internalType": "uint256",
              "name": "votesReceived",
              "type": "uint256"
            },
            {
              "internalType": "bool",
              "name": "isOnboarded",
              "type": "bool"
            },
            {
              "internalType": "bool",
              "name": "agentEnabled",
              "type": "bool"
            },
            {
              "internalType": "bool",
              "name": "notifications",
              "type": "bool"
            },
            {
              "internalType": "uint8",
              "name": "theme",
              "type": "uint8"
            },
            {
              "internalType": "uint256",
              "name": "createdAt",
              "type": "uint256"
            },
            {
              "internalType": "uint256",
              "name": "updatedAt",
              "type": "uint256"
            }
          ],
          "internalType": "struct RecipeBook.UserProfile",
          "name": "",
          "type": "tuple"
        }
      ],
      "stateMutability": "view",
      "type": "function"
    },
    {
      "inputs": [
        {
          "internalType": "uint256",
          "name": "",
          "type": "uint256"
        },
        {
          "internalType": "address",
          "name": "",
          "type": "address"
        }
      ],
      "name": "hasVoted",
      "outputs": [
        {
          "internalType": "bool",
          "name": "",
          "type": "bool"
        }
      ],
      "stateMutability": "view",
      "type": "function"
    },
    {
      "inputs": [
        {
          "internalType": "address",
          "name": "owner",
          "type": "address"
        },
        {
          "internalType": "address",
          "name": "operator",
          "type": "address"
        }
      ],
      "name": "isApprovedForAll",
      "outputs": [
        {
          "internalType": "bool",
          "name": "",
          "type": "bool"
        }
      ],
      "stateMutability": "view",
      "type": "function"
    },
    {
      "inputs": [
        {
          "internalType": "uint256",
          "name": "_tokenId",
          "type": "uint256"
        },
        {
          "internalType": "uint256",
          "name": "_price",
          "type": "uint256"
        }
      ],
      "name": "listNFTForSale",
      "outputs": [],
      "stateMutability": "nonpayable",
      "type": "function"
    },
    {
      "inputs": [
        {
          "internalType": "uint256",
          "name": "_recipeId",
          "type": "uint256"
        },
        {
          "internalType": "uint256",
          "name": "_mintPrice",
          "type": "uint256"
        },
        {
          "internalType": "uint256",
          "name": "_royaltyPercent",
          "type": "uint256"
        },
        {
          "internalType": "string",
          "name": "_description",
          "type": "string"
        },
        {
          "internalType": "string",
          "name": "_tokenURI",
          "type": "string"
        }
      ],
      "name": "mintRecipeNFT",
      "outputs": [
        {
          "internalType": "uint256",
          "name": "",
          "type": "uint256"
        }
      ],
      "stateMutability": "payable",
      "type": "function"
    },
    {
      "inputs": [],
      "name": "name",
      "outputs": [
        {
          "internalType": "string",
          "name": "",
          "type": "string"
        }
      ],
      "stateMutability": "view",
      "type": "function"
    },
    {
      "inputs": [
        {
          "internalType": "uint256",
          "name": "",
          "type": "uint256"
        }
      ],
      "name": "nftMetadata",
      "outputs": [
        {
          "internalType": "uint256",
          "name": "recipeId",
          "type": "uint256"
        },
        {
          "internalType": "address",
          "name": "creator",
          "type": "address"
        },
        {
          "internalType": "uint256",
          "name": "mintPrice",
          "type": "uint256"
        },
        {
          "internalType": "uint256",
          "name": "royaltyPercent",
          "type": "uint256"
        },
        {
          "internalType": "string",
          "name": "description",
          "type": "string"
        },
        {
          "internalType": "uint256",
          "name": "mintedAt",
          "type": "uint256"
        },
        {
          "internalType": "bool",
          "name": "isForSale",
          "type": "bool"
        },
        {
          "internalType": "uint256",
          "name": "salePrice",
          "type": "uint256"
        }
      ],
      "stateMutability": "view",
      "type": "function"
    },
    {
      "inputs": [],
      "name": "owner",
      "outputs": [
        {
          "internalType": "address",
          "name": "",
          "type": "address"
        }
      ],
      "stateMutability": "view",
      "type": "function"
    },
    {
      "inputs": [
        {
          "internalType": "uint256",
          "name": "tokenId",
          "type": "uint256"
        }
      ],
      "name": "ownerOf",
      "outputs": [
        {
          "internalType": "address",
          "name": "",
          "type": "address"
        }
      ],
      "stateMutability": "view",
      "type": "function"
    },
    {
      "inputs": [],
      "name": "platformFeeBps",
      "outputs": [
        {
          "internalType": "uint256",
          "name": "",
          "type": "uint256"
        }
      ],
      "stateMutability": "view",
      "type": "function"
    },
    {
      "inputs": [
        {
          "internalType": "uint256",
          "name": "",
          "type": "uint256"
        }
      ],
      "name": "recipeToNFT",
      "outputs": [
        {
          "internalType": "uint256",
          "name": "",
          "type": "uint256"
        }
      ],
      "stateMutability": "view",
      "type": "function"
    },
    {
      "inputs": [
        {
          "internalType": "uint256",
          "name": "",
          "type": "uint256"
        }
      ],
      "name": "recipes",
      "outputs": [
        {
          "internalType": "uint256",
          "name": "id",
          "type": "uint256"
        },
        {
          "internalType": "address",
          "name": "creator",
          "type": "address"
        },
        {
          "internalType": "string",
          "name": "title",
          "type": "string"
        },
        {
          "internalType": "string",
          "name": "ingredients",
          "type": "string"
        },
        {
          "internalType": "string",
          "name": "instructions",
          "type": "string"
        },
        {
          "internalType": "string",
          "name": "imageURL",
          "type": "string"
        },
        {
          "internalType": "uint256",
          "name": "votes",
          "type": "uint256"
        },
        {
          "internalType": "uint256",
          "name": "timestamp",
          "type": "uint256"
        },
        {
          "internalType": "bool",
          "name": "isNFT",
          "type": "bool"
        },
        {
          "internalType": "uint256",
          "name": "nftTokenId",
          "type": "uint256"
        }
      ],
      "stateMutability": "view",
      "type": "function"
    },
    {
      "inputs": [
        {
          "internalType": "uint256",
          "name": "_tokenId",
          "type": "uint256"
        }
      ],
      "name": "removeNFTFromSale",
      "outputs": [],
      "stateMutability": "nonpayable",
      "type": "function"
    },
    {
      "inputs": [],
      "name": "renounceOwnership",
      "outputs": [],
      "stateMutability": "nonpayable",
      "type": "function"
    },
    {
      "inputs": [
        {
          "internalType": "address",
          "name": "from",
          "type": "address"
        },
        {
          "internalType": "address",
          "name": "to",
          "type": "address"
        },
        {
          "internalType": "uint256",
          "name": "tokenId",
          "type": "uint256"
        }
      ],
      "name": "safeTransferFrom",
      "outputs": [],
      "stateMutability": "nonpayable",
      "type": "function"
    },
    {
      "inputs": [
        {
          "internalType": "address",
          "name": "from",
          "type": "address"
        },
        {
          "internalType": "address",
          "name": "to",
          "type": "address"
        },
        {
          "internalType": "uint256",
          "name": "tokenId",
          "type": "uint256"
        },
        {
          "internalType": "bytes",
          "name": "data",
          "type": "bytes"
        }
      ],
      "name": "safeTransferFrom",
      "outputs": [],
      "stateMutability": "nonpayable",
      "type": "function"
    },
    {
      "inputs": [
        {
          "internalType": "address",
          "name": "operator",
          "type": "address"
        },
        {
          "internalType": "bool",
          "name": "approved",
          "type": "bool"
        }
      ],
      "name": "setApprovalForAll",
      "outputs": [],
      "stateMutability": "nonpayable",
      "type": "function"
    },
    {
      "inputs": [
        {
          "internalType": "address",
          "name": "_recipient",
          "type": "address"
        }
      ],
      "name": "setFeeRecipient",
      "outputs": [],
      "stateMutability": "nonpayable",
      "type": "function"
    },
    {
      "inputs": [
        {
          "internalType": "uint256",
          "name": "_feeBps",
          "type": "uint256"
        }
      ],
      "name": "setPlatformFee",
      "outputs": [],
      "stateMutability": "nonpayable",
      "type": "function"
    },
    {
      "inputs": [
        {
          "internalType": "string",
          "name": "_title",
          "type": "string"
        },
        {
          "internalType": "string",
          "name": "_ingredients",
          "type": "string"
        },
        {
          "internalType": "string",
          "name": "_instructions",
          "type": "string"
        },
        {
          "internalType": "string",
          "name": "_imageURL",
          "type": "string"
        }
      ],
      "name": "submitRecipe",
      "outputs": [
        {
          "internalType": "uint256",
          "name": "",
          "type": "uint256"
        }
      ],
      "stateMutability": "nonpayable",
      "type": "function"
    },
    {
      "inputs": [
        {
          "internalType": "bytes4",
          "name": "interfaceId",
          "type": "bytes4"
        }
      ],
      "name": "supportsInterface",
      "outputs": [
        {
          "internalType": "bool",
          "name": "",
          "type": "bool"
        }
      ],
      "stateMutability": "view",
      "type": "function"
    },
    {
      "inputs": [],
      "name": "symbol",
      "outputs": [
        {
          "internalType": "string",
          "name": "",
          "type": "string"
        }
      ],
      "stateMutability": "view",
      "type": "function"
    },
    {
      "inputs": [
        {
          "internalType": "uint256",
          "name": "tokenId",
          "type": "uint256"
        }
      ],
      "name": "tokenURI",
      "outputs": [
        {
          "internalType": "string",
          "name": "",
          "type": "string"
        }
      ],
      "stateMutability": "view",
      "type": "function"
    },
    {
      "inputs": [
        {
          "internalType": "address",
          "name": "from",
          "type": "address"
        },
        {
          "internalType": "address",
          "name": "to",
          "type": "address"
        },
        {
          "internalType": "uint256",
          "name": "tokenId",
          "type": "uint256"
        }
      ],
      "name": "transferFrom",
      "outputs": [],
      "stateMutability": "nonpayable",
      "type": "function"
    },
    {
      "inputs": [
        {
          "internalType": "address",
          "name": "newOwner",
          "type": "address"
        }
      ],
      "name": "transferOwnership",
      "outputs": [],
      "stateMutability": "nonpayable",
      "type": "function"
    },
    {
      "inputs": [
        {
          "internalType": "bool",
          "name": "_agentEnabled",
          "type": "bool"
        },
        {
          "internalType": "bool",
          "name": "_notifications",
          "type": "bool"
        },
        {
          "internalType": "uint8",
          "name": "_theme",
          "type": "uint8"
        }
      ],
      "name": "updateUserPreferences",
      "outputs": [],
      "stateMutability": "nonpayable",
      "type": "function"
    },
    {
      "inputs": [
        {
          "internalType": "address",
          "name": "",
          "type": "address"
        }
      ],
      "name": "userExists",
      "outputs": [
        {
          "internalType": "bool",
          "name": "",
          "type": "bool"
        }
      ],
      "stateMutability": "view",
      "type": "function"
    },
    {
      "inputs": [
        {
          "internalType": "address",
          "name": "",
          "type": "address"
        }
      ],
      "name": "userProfiles",
      "outputs": [
        {
          "internalType": "address",
          "name": "userAddress",
          "type": "address"
        },
        {
          "internalType": "uint256",
          "name": "reputation",
          "type": "uint256"
        },
        {
          "internalType": "uint256",
          "name": "recipesCreated",
          "type": "uint256"
        },
        {
          "internalType": "uint256",
          "name": "votesReceived",
          "type": "uint256"
        },
        {
          "internalType": "bool",
          "name": "isOnboarded",
          "type": "bool"
        },
        {
          "internalType": "bool",
          "name": "agentEnabled",
          "type": "bool"
        },
        {
          "internalType": "bool",
          "name": "notifications",
          "type": "bool"
        },
        {
          "internalType": "uint8",
          "name": "theme",
          "type": "uint8"
        },
        {
          "internalType": "uint256",
          "name": "createdAt",
          "type": "uint256"
        },
        {
          "internalType": "uint256",
          "name": "updatedAt",
          "type": "uint256"
        }
      ],
      "stateMutability": "view",
      "type": "function"
    },
    {
      "inputs": [
        {
          "internalType": "address",
          "name": "",
          "type": "address"
        }
      ],
      "name": "userReputation",
      "outputs": [
        {
          "internalType": "uint256",
          "name": "",
          "type": "uint256"
        }
      ],
      "stateMutability": "view",
      "type": "function"
    },
    {
      "inputs": [
        {
          "internalType": "uint256",
          "name": "_recipeId",
          "type": "uint256"
        }
      ],
      "name": "voteRecipe",
      "outputs": [],
      "stateMutability": "nonpayable",
      "type": "function"
    },
    {
      "inputs": [],
      "name": "withdrawEmergency",
      "outputs": [],
      "stateMutability": "nonpayable",
      "type": "function"
    }
  ],
  "bytecode": "0x60806040523480156200001157600080fd5b506040516200460c3803806200460c833981016040819052620000349162000200565b336040518060400160405280600f81526020016e149958da5c1948109bdbdac8139195608a1b8152506040518060400160405280600681526020016552454349504560d01b81525081600090816200008d9190620002e3565b5060016200009c8282620002e3565b5050506001600160a01b038116620000cf57604051631e4fbdf760e01b8152600060048201526024015b60405180910390fd5b620000da816200012b565b5060016008556001600160a01b038216620000f65733620000f8565b815b600c80546001600160a01b0319166001600160a01b039290921691909117905562000123816200017d565b5050620003af565b600780546001600160a01b038381166001600160a01b0319831681179093556040519116919082907f8be0079c531659141344cd1fd0a4f28419497f9722a3daafe3b4186f6b6457e090600090a35050565b62000187620001cf565b6103e8811115620001ca5760405162461bcd60e51b815260206004820152600c60248201526b08ccaca40e8dede40d0d2ced60a31b6044820152606401620000c6565b600b55565b6007546001600160a01b03163314620001fe5760405163118cdaa760e01b8152336004820152602401620000c6565b565b600080604083850312156200021457600080fd5b82516001600160a01b03811681146200022c57600080fd5b6020939093015192949293505050565b634e487b7160e01b600052604160045260246000fd5b600181811c908216806200026757607f821691505b6020821081036200028857634e487b7160e01b600052602260045260246000fd5b50919050565b601f821115620002de576000816000526020600020601f850160051c81016020861015620002b95750805b601f850160051c820191505b81811015620002da57828155600101620002c5565b5050505b505050565b81516001600160401b03811115620002ff57620002ff6200023c565b620003178162000310845462000252565b846200028e565b602080601f8311600181146200034f5760008415620003365750858301515b600019600386901b1c1916600185901b178555620002da565b600085815260208120601f198616915b8281101562000380578886015182559484019460019091019084016200035f565b50858210156200039f5787850151600019600388901b60f8161c191681555b5050505050600190811b01905550565b61424d80620003bf6000396000f3fe6080604052600436106102935760003560e01c8063699543451161015a578063b88d4fde116100c1578063e503bb051161007a578063e503bb05146108a4578063e74b981b146108d1578063e985e9c5146108f1578063ecb4105414610911578063f2fde38b1461094a578063f8fdcc211461096a57600080fd5b8063b88d4fde14610805578063c01f0b8e14610825578063c765da8414610838578063c87b56dd1461084d578063d075f9211461086d578063de58af971461088f57600080fd5b806395d89b411161011357806395d89b411461074e578063987ee15614610763578063a02e510714610790578063a22cb465146107b0578063b1888649146107d0578063b2733b39146107e557600080fd5b806369954345146106a557806370a08231146106c5578063715018a6146106e5578063815d8f94146106fa5780638d01513c1461071a5780638da5cb5b1461073057600080fd5b806330bdb351116101fe578063443c227c116101b7578063443c227c146105bb57806346904840146105f1578063495410151461061157806351ed82881461064557806352de4ee5146106585780636352211e1461068557600080fd5b806330bdb35114610439578063332d56d71461044e5780634146a0731461052b57806342842e0e1461054057806342966c6814610560578063438596321461058057600080fd5b806312e8e2c31161025057806312e8e2c3146103995780631650ac6d146103b9578063191fe1ed146103d857806321c0be52146103ee57806322dcd13e1461040357806323b872dd1461041957600080fd5b8063013e97bf1461029857806301ffc9a7146102ba57806306fdde03146102ef578063081812fc14610311578063095ea7b3146103495780630e666e4914610369575b600080fd5b3480156102a457600080fd5b506102b86102b33660046137b8565b610997565b005b3480156102c657600080fd5b506102da6102d536600461381b565b610aa3565b60405190151581526020015b60405180910390f35b3480156102fb57600080fd5b50610304610ab4565b6040516102e69190613888565b34801561031d57600080fd5b5061033161032c36600461389b565b610b46565b6040516001600160a01b0390911681526020016102e6565b34801561035557600080fd5b506102b86103643660046138c9565b610b6f565b34801561037557600080fd5b506102da6103843660046138f5565b60116020526000908152604090205460ff1681565b3480156103a557600080fd5b506102b86103b436600461389b565b610b7e565b3480156103c557600080fd5b506009545b6040519081526020016102e6565b3480156103e457600080fd5b506103ca61271081565b3480156103fa57600080fd5b506102b8610bcc565b34801561040f57600080fd5b506103ca600b5481565b34801561042557600080fd5b506102b8610434366004613912565b610c61565b34801561044557600080fd5b50600a546103ca565b34801561045a57600080fd5b506104d06104693660046138f5565b60106020526000908152604090208054600182015460028301546003840154600485015460058601546006909601546001600160a01b039095169593949293919260ff8083169361010084048216936201000081048316936301000000909104909216918a565b604080516001600160a01b03909b168b5260208b01999099529789019690965260608801949094529115156080870152151560a0860152151560c085015260ff1660e0840152610100830152610120820152610140016102e6565b34801561053757600080fd5b506102b8610cec565b34801561054c57600080fd5b506102b861055b366004613912565b610dab565b34801561056c57600080fd5b506102b861057b36600461389b565b610dcb565b34801561058c57600080fd5b506102da61059b366004613953565b601460209081526000928352604080842090915290825290205460ff1681565b3480156105c757600080fd5b506105db6105d636600461389b565b610f13565b6040516102e69a99989796959493929190613983565b3480156105fd57600080fd5b50600c54610331906001600160a01b031681565b34801561061d57600080fd5b5061063161062c36600461389b565b611191565b6040516102e6989796959493929190613a16565b6102b861065336600461389b565b61126c565b34801561066457600080fd5b506106786106733660046138f5565b61172d565b6040516102e69190613a6b565b34801561069157600080fd5b506103316106a036600461389b565b611872565b3480156106b157600080fd5b506102b86106c036600461389b565b61187d565b3480156106d157600080fd5b506103ca6106e03660046138f5565b611a74565b3480156106f157600080fd5b506102b8611abc565b34801561070657600080fd5b506103ca610715366004613b5b565b611ad0565b34801561072657600080fd5b506103ca6103e881565b34801561073c57600080fd5b506007546001600160a01b0316610331565b34801561075a57600080fd5b50610304611c96565b34801561076f57600080fd5b5061078361077e3660046138f5565b611ca5565b6040516102e69190613c08565b34801561079c57600080fd5b506102b86107ab36600461389b565b611dcd565b3480156107bc57600080fd5b506102b86107cb366004613ca6565b611ec1565b3480156107dc57600080fd5b50610678611ecc565b3480156107f157600080fd5b506102b8610800366004613cdb565b611f23565b34801561081157600080fd5b506102b8610820366004613cfd565b61206d565b6103ca610833366004613d71565b612085565b34801561084457600080fd5b506102da6124f1565b34801561085957600080fd5b5061030461086836600461389b565b6126ff565b34801561087957600080fd5b50610882612714565b6040516102e69190613df2565b34801561089b57600080fd5b506103ca601481565b3480156108b057600080fd5b506103ca6108bf3660046138f5565b60156020526000908152604090205481565b3480156108dd57600080fd5b506102b86108ec3660046138f5565b612ac6565b3480156108fd57600080fd5b506102da61090c366004613f0a565b612b38565b34801561091d57600080fd5b506102da61092c3660046138f5565b6001600160a01b031660009081526011602052604090205460ff1690565b34801561095657600080fd5b506102b86109653660046138f5565b612b66565b34801561097657600080fd5b506103ca61098536600461389b565b600f6020526000908152604090205481565b3360009081526011602052604090205460ff166109cf5760405162461bcd60e51b81526004016109c690613f38565b60405180910390fd5b60018160ff161115610a195760405162461bcd60e51b8152602060048201526013602482015272496e76616c6964207468656d652076616c756560681b60448201526064016109c6565b3360008181526010602090815260409182902060048101805462ffff0019166101008915150262ff000019161762010000881515021763ff0000001916630100000060ff8816021790554260068201819055925192835292917f41ee65669409a0ac67e14c58fee5601cb71a227e78b60a97032cb150a8b6f4e5910160405180910390a250505050565b6000610aae82612ba1565b92915050565b606060008054610ac390613f6f565b80601f0160208091040260200160405190810160405280929190818152602001828054610aef90613f6f565b8015610b3c5780601f10610b1157610100808354040283529160200191610b3c565b820191906000526020600020905b815481529060010190602001808311610b1f57829003601f168201915b5050505050905090565b6000610b5182612bc6565b506000828152600460205260409020546001600160a01b0316610aae565b610b7a828233612bff565b5050565b610b86612c0c565b6103e8811115610bc75760405162461bcd60e51b815260206004820152600c60248201526b08ccaca40e8dede40d0d2ced60a31b60448201526064016109c6565b600b55565b3360009081526011602052604090205460ff16610bfb5760405162461bcd60e51b81526004016109c690613f38565b336000818152601060205260409081902060048101805460ff19166001179055426006820181905591519092917f41ee65669409a0ac67e14c58fee5601cb71a227e78b60a97032cb150a8b6f4e591610c5691815260200190565b60405180910390a250565b6001600160a01b038216610c8b57604051633250574960e11b8152600060048201526024016109c6565b6000610c98838333612c39565b9050836001600160a01b0316816001600160a01b031614610ce6576040516364283d7b60e01b81526001600160a01b03808616600483015260248201849052821660448201526064016109c6565b50505050565b610cf4612c0c565b6000610d086007546001600160a01b031690565b6001600160a01b03164760405160006040518083038185875af1925050503d8060008114610d52576040519150601f19603f3d011682016040523d82523d6000602084013e610d57565b606091505b5050905080610da85760405162461bcd60e51b815260206004820152601b60248201527f456d657267656e6379207769746864726177616c206661696c6564000000000060448201526064016109c6565b50565b610dc68383836040518060200160405280600081525061206d565b505050565b33610dd582611872565b6001600160a01b03161480610dfa575033610def82610b46565b6001600160a01b0316145b80610e125750610e12610e0c82611872565b33612b38565b610e575760405162461bcd60e51b81526020600482015260166024820152752737ba1030baba3437b934bd32b2103a3790313ab93760511b60448201526064016109c6565b6000818152600e60205260409020600681015460ff1615610e7b57610e7b82612d32565b80548015610eaf576000818152600d6020908152604080832060088101805460ff19169055600901839055600f9091528120555b6000838152600e602052604081208181556001810180546001600160a01b0319169055600281018290556003810182905590610eee6004830182613755565b5060006005820181905560068201805460ff19169055600790910155610dc683612de2565b600d6020526000908152604090208054600182015460028301805492936001600160a01b0390921692610f4590613f6f565b80601f0160208091040260200160405190810160405280929190818152602001828054610f7190613f6f565b8015610fbe5780601f10610f9357610100808354040283529160200191610fbe565b820191906000526020600020905b815481529060010190602001808311610fa157829003601f168201915b505050505090806003018054610fd390613f6f565b80601f0160208091040260200160405190810160405280929190818152602001828054610fff90613f6f565b801561104c5780601f106110215761010080835404028352916020019161104c565b820191906000526020600020905b81548152906001019060200180831161102f57829003601f168201915b50505050509080600401805461106190613f6f565b80601f016020809104026020016040519081016040528092919081815260200182805461108d90613f6f565b80156110da5780601f106110af576101008083540402835291602001916110da565b820191906000526020600020905b8154815290600101906020018083116110bd57829003601f168201915b5050505050908060050180546110ef90613f6f565b80601f016020809104026020016040519081016040528092919081815260200182805461111b90613f6f565b80156111685780601f1061113d57610100808354040283529160200191611168565b820191906000526020600020905b81548152906001019060200180831161114b57829003601f168201915b5050506006840154600785015460088601546009909601549495919490935060ff90911691508a565b600e602052600090815260409020805460018201546002830154600384015460048501805494956001600160a01b0390941694929391926111d190613f6f565b80601f01602080910402602001604051908101604052809291908181526020018280546111fd90613f6f565b801561124a5780601f1061121f5761010080835404028352916020019161124a565b820191906000526020600020905b81548152906001019060200180831161122d57829003601f168201915b50505050600583015460068401546007909401549293909260ff909116915088565b611274612e1d565b6000818152600e60205260409020600681015460ff166112c95760405162461bcd60e51b815260206004820152601060248201526f4e4654206e6f7420666f722073616c6560801b60448201526064016109c6565b80600701543410156113145760405162461bcd60e51b8152602060048201526014602482015273125b9cdd59999a58da595b9d081c185e5b595b9d60621b60448201526064016109c6565b600061131f83611872565b9050336001600160a01b038216036113795760405162461bcd60e51b815260206004820152601760248201527f43616e6e6f742062757920796f7572206f776e204e465400000000000000000060448201526064016109c6565b600782015460038301546000906064906113939084613fbf565b61139d9190613fd6565b90506000612710600b54846113b29190613fbf565b6113bc9190613fd6565b90506000816113cb8486613ff8565b6113d59190613ff8565b60068701805460ff191690556000600788015590506113f387612d32565b6113fe853389612e47565b82156114ef5760018601546040516000916001600160a01b03169085908381818185875af1925050503d8060008114611453576040519150601f19603f3d011682016040523d82523d6000602084013e611458565b606091505b50509050806114a95760405162461bcd60e51b815260206004820152601760248201527f526f79616c7479207472616e73666572206661696c656400000000000000000060448201526064016109c6565b600187015460405185815289916001600160a01b0316907fd4aced6a2fedafdf0ace70b949ff0a9877b479c1cf14ab3d84768281f270c9c79060200160405180910390a3505b811561159a57600c546040516000916001600160a01b03169084908381818185875af1925050503d8060008114611542576040519150601f19603f3d011682016040523d82523d6000602084013e611547565b606091505b50509050806115985760405162461bcd60e51b815260206004820152601c60248201527f506c6174666f726d20666565207472616e73666572206661696c65640000000060448201526064016109c6565b505b6000856001600160a01b03168260405160006040518083038185875af1925050503d80600081146115e7576040519150601f19603f3d011682016040523d82523d6000602084013e6115ec565b606091505b50509050806116355760405162461bcd60e51b815260206004820152601560248201527414d95b1b195c881c185e5b595b9d0819985a5b1959605a1b60448201526064016109c6565b843411156116ce5760003361164a8734613ff8565b604051600081818185875af1925050503d8060008114611686576040519150601f19603f3d011682016040523d82523d6000602084013e61168b565b606091505b50509050806116cc5760405162461bcd60e51b815260206004820152600d60248201526c1499599d5b990819985a5b1959609a1b60448201526064016109c6565b505b87336001600160a01b0316876001600160a01b03167ff6ccc0cf89c21c54724ea6ef2ec01da8fe33a1cebe06607e160fd78483eba3028860405161171491815260200190565b60405180910390a450505050505050610da86001600855565b6060600061173a83611a74565b90508060000361175a575050604080516000815260208101909152919050565b60008167ffffffffffffffff81111561177557611775613aaf565b60405190808252806020026020018201604052801561179e578160200160208202803683370190505b50600a54909150600060015b828111611867576040516331a9108f60e11b8152600481018290523090636352211e90602401602060405180830381865afa925050508015611809575060408051601f3d908101601f191682019092526118069181019061400b565b60015b1561185557876001600160a01b0316816001600160a01b031603611853578185848151811061183a5761183a614028565b60209081029190910101528261184f8161403e565b9350505b505b8061185f8161403e565b9150506117aa565b509195945050505050565b6000610aae82612bc6565b6000818152600d602052604081205490036118ce5760405162461bcd60e51b8152602060048201526011602482015270125b9d985b1a59081c9958da5c19481a59607a1b60448201526064016109c6565b600081815260146020908152604080832033845290915290205460ff16156119285760405162461bcd60e51b815260206004820152600d60248201526c105b1c9958591e481d9bdd1959609a1b60448201526064016109c6565b6000818152600d602052604081206006018054916119458361403e565b909155505060008181526014602090815260408083203384528252808320805460ff19166001908117909155848452600d835281842001546001600160a01b0316808452601590925282208054919261199d8361403e565b90915550506001600160a01b03811660009081526011602052604090205460ff1615611a3b576001600160a01b03811660009081526010602052604081206001018054916119ea8361403e565b90915550506001600160a01b0381166000908152601060205260408120600301805491611a168361403e565b90915550506001600160a01b0381166000908152601060205260409020426006909101555b60405182815233907f397208ea016330bff612e9b427f767da913eef4af1825ef102ac6483393170ed9060200160405180910390a25050565b60006001600160a01b038216611aa0576040516322718ad960e21b8152600060048201526024016109c6565b506001600160a01b031660009081526003602052604090205490565b611ac4612c0c565b611ace6000612ef7565b565b3360009081526011602052604081205460ff16611af157611aef6124f1565b505b60098054906000611b018361403e565b909155505060095460408051610140810182528281523360208083019182528284018a8152606084018a90526080840189905260a08401889052600060c085018190524260e086015261010085018190526101208501819052868152600d9092529390208251815590516001820180546001600160a01b0319166001600160a01b0390921691909117905591519091906002820190611ba0908261409f565b5060608201516003820190611bb5908261409f565b5060808201516004820190611bca908261409f565b5060a08201516005820190611bdf908261409f565b5060c0820151600682015560e0820151600782015561010082015160088201805460ff191691151591909117905561012090910151600990910155336000908152601060205260408120600201805491611c388361403e565b9091555050336000818152601060205260409081902042600690910155517ffdfd35c55471f8948976c4fbb76396afeb2623d6cb2b22bf2d2b40f86f6b7fed90611c859084908a9061415f565b60405180910390a295945050505050565b606060018054610ac390613f6f565b604080516101408101825260008082526020808301829052828401829052606083018290526080830182905260a0830182905260c0830182905260e08301829052610100830182905261012083018290526001600160a01b038516825260119052919091205460ff16611d2a5760405162461bcd60e51b81526004016109c690613f38565b506001600160a01b039081166000908152601060209081526040918290208251610140810184528154909416845260018101549184019190915260028101549183019190915260038101546060830152600481015460ff808216151560808501526101008083048216151560a08601526201000083048216151560c086015263010000009092041660e08401526005820154908301526006015461012082015290565b33611dd782611872565b6001600160a01b031614611e1f5760405162461bcd60e51b815260206004820152600f60248201526e2737ba103a37b5b2b71037bbb732b960891b60448201526064016109c6565b6000818152600e60205260409020600681015460ff16611e745760405162461bcd60e51b815260206004820152601060248201526f4e4654206e6f7420666f722073616c6560801b60448201526064016109c6565b60068101805460ff1916905560006007820155611e9082612d32565b604051829033907fcf2fc731a404a47e73f7d69b159aa546a5518a6219a33780c682ebaa95666e4490600090a35050565b610b7a338383612f49565b60606012805480602002602001604051908101604052809291908181526020018280548015610b3c57602002820191906000526020600020905b815481526020019060010190808311611f06575050505050905090565b33611f2d83611872565b6001600160a01b031614611f755760405162461bcd60e51b815260206004820152600f60248201526e2737ba103a37b5b2b71037bbb732b960891b60448201526064016109c6565b60008111611fb95760405162461bcd60e51b815260206004820152601160248201527005072696365206d757374206265203e203607c1b60448201526064016109c6565b6000828152600e60205260409020600681015460ff16156120115760405162461bcd60e51b815260206004820152601260248201527113919508185b1c9958591e481b1a5cdd195960721b60448201526064016109c6565b60068101805460ff191660011790556007810182905561203083612fe0565b604051828152839033907fcc4e2c49e4691d84c728880220112cb4635c11200d1c91215e401744f6a597ee906020015b60405180910390a3505050565b612078848484610c61565b610ce63385858585613035565b600061208f612e1d565b6000868152600d6020526040812080549091036120e25760405162461bcd60e51b8152602060048201526011602482015270125b9d985b1a59081c9958da5c19481a59607a1b60448201526064016109c6565b60018101546001600160a01b031633146121335760405162461bcd60e51b81526020600482015260126024820152712737ba103932b1b4b8329031b932b0ba37b960711b60448201526064016109c6565b600881015460ff16156121885760405162461bcd60e51b815260206004820152601c60248201527f52656369706520616c7265616479206d696e746564206173204e46540000000060448201526064016109c6565b60148511156121cc5760405162461bcd60e51b815260206004820152601060248201526f0a4def2c2d8e8f240e8dede40d0d2ced60831b60448201526064016109c6565b853410156122135760405162461bcd60e51b8152602060048201526014602482015273125b9cdd59999a58da595b9d081c185e5b595b9d60621b60448201526064016109c6565b600a80549060006122238361403e565b9091555050600a546122353382613160565b61223f818561317a565b600882018054600160ff1990911681179091556009830182905560408051610100810182528a81523360208083019182528284018c8152606084018c8152608085018c81524260a0870152600060c0870181905260e08701819052898152600e9094529590922084518155925195830180546001600160a01b0319166001600160a01b03909716969096179095559351600282015592516003840155905190919060048201906122ef908261409f565b5060a0820151600582015560c082015160068201805460ff191691151591909117905560e0909101516007909101556000888152600f602052604090208190553415612496576000612710600b54896123489190613fbf565b6123529190613fd6565b905080156123f557600c546040516000916001600160a01b03169083908381818185875af1925050503d80600081146123a7576040519150601f19603f3d011682016040523d82523d6000602084013e6123ac565b606091505b50509050806123f35760405162461bcd60e51b8152602060048201526013602482015272119959481d1c985b9cd9995c8819985a5b1959606a1b60448201526064016109c6565b505b60006124018934613ff8565b9050801561249357604051600090339083908381818185875af1925050503d806000811461244b576040519150601f19603f3d011682016040523d82523d6000602084013e612450565b606091505b50509050806124915760405162461bcd60e51b815260206004820152600d60248201526c1499599d5b990819985a5b1959609a1b60448201526064016109c6565b505b50505b8781336001600160a01b03167f7bc3ddf0bf2ada973906c61001cd8f787646720bb7da90229e5bf81fa71bab6d8a6040516124d391815260200190565b60405180910390a49150506124e86001600855565b95945050505050565b3360009081526011602052604081205460ff161561250f5750600090565b604051806101400160405280336001600160a01b03168152602001600081526020016000815260200160008152602001600015158152602001600115158152602001600115158152602001600060ff1681526020014281526020014281525060106000336001600160a01b03166001600160a01b0316815260200190815260200160002060008201518160000160006101000a8154816001600160a01b0302191690836001600160a01b0316021790555060208201518160010155604082015181600201556060820151816003015560808201518160040160006101000a81548160ff02191690831515021790555060a08201518160040160016101000a81548160ff02191690831515021790555060c08201518160040160026101000a81548160ff02191690831515021790555060e08201518160040160036101000a81548160ff021916908360ff16021790555061010082015181600501556101208201518160060155905050600160116000336001600160a01b03166001600160a01b0316815260200190815260200160002060006101000a81548160ff021916908315150217905550336001600160a01b03167f558f6a4c7dd60a47054b0f83e1b809be6f15b9cfb9340787599e85f5e2752ef5426040516126f191815260200190565b60405180910390a250600190565b606061270a82612bc6565b50610aae826131ca565b60095460609060008167ffffffffffffffff81111561273557612735613aaf565b6040519080825280602002602001820160405280156127c757816020015b6127b46040518061014001604052806000815260200160006001600160a01b03168152602001606081526020016060815260200160608152602001606081526020016000815260200160008152602001600015158152602001600081525090565b8152602001906001900390816127535790505b50905060015b828111612abf576000818152600d60209081526040918290208251610140810184528154815260018201546001600160a01b031692810192909252600281018054929391929184019161281f90613f6f565b80601f016020809104026020016040519081016040528092919081815260200182805461284b90613f6f565b80156128985780601f1061286d57610100808354040283529160200191612898565b820191906000526020600020905b81548152906001019060200180831161287b57829003601f168201915b505050505081526020016003820180546128b190613f6f565b80601f01602080910402602001604051908101604052809291908181526020018280546128dd90613f6f565b801561292a5780601f106128ff5761010080835404028352916020019161292a565b820191906000526020600020905b81548152906001019060200180831161290d57829003601f168201915b5050505050815260200160048201805461294390613f6f565b80601f016020809104026020016040519081016040528092919081815260200182805461296f90613f6f565b80156129bc5780601f10612991576101008083540402835291602001916129bc565b820191906000526020600020905b81548152906001019060200180831161299f57829003601f168201915b505050505081526020016005820180546129d590613f6f565b80601f0160208091040260200160405190810160405280929190818152602001828054612a0190613f6f565b8015612a4e5780601f10612a2357610100808354040283529160200191612a4e565b820191906000526020600020905b815481529060010190602001808311612a3157829003601f168201915b50505091835250506006820154602082015260078201546040820152600882015460ff161515606082015260099091015460809091015282612a91600184613ff8565b81518110612aa157612aa1614028565b60200260200101819052508080612ab79061403e565b9150506127cd565b5092915050565b612ace612c0c565b6001600160a01b038116612b165760405162461bcd60e51b815260206004820152600f60248201526e496e76616c6964206164647265737360881b60448201526064016109c6565b600c80546001600160a01b0319166001600160a01b0392909216919091179055565b6001600160a01b03918216600090815260056020908152604080832093909416825291909152205460ff1690565b612b6e612c0c565b6001600160a01b038116612b9857604051631e4fbdf760e01b8152600060048201526024016109c6565b610da881612ef7565b60006001600160e01b03198216632483248360e11b1480610aae5750610aae826132db565b6000818152600260205260408120546001600160a01b031680610aae57604051637e27328960e01b8152600481018490526024016109c6565b610dc6838383600161332b565b6007546001600160a01b03163314611ace5760405163118cdaa760e01b81523360048201526024016109c6565b6000828152600260205260408120546001600160a01b0390811690831615612c6657612c66818486613431565b6001600160a01b03811615612ca457612c8360008560008061332b565b6001600160a01b038116600090815260036020526040902080546000190190555b6001600160a01b03851615612cd3576001600160a01b0385166000908152600360205260409020805460010190555b60008481526002602052604080822080546001600160a01b0319166001600160a01b0389811691821790925591518793918516917fddf252ad1be2c89b69c2b068fc378daa952ba7f163c4a11628f55a4df523b3ef91a4949350505050565b60008181526013602052604081205460128054919291612d5490600190613ff8565b81548110612d6457612d64614028565b906000526020600020015490508060128381548110612d8557612d85614028565b60009182526020808320909101929092558281526013909152604090208290556012805480612db657612db6614178565b600082815260208082208301600019908101839055909201909255938152601390935250506040812055565b6000612df16000836000612c39565b90506001600160a01b038116610b7a57604051637e27328960e01b8152600481018390526024016109c6565b600260085403612e4057604051633ee5aeb560e01b815260040160405180910390fd5b6002600855565b6001600160a01b038216612e7157604051633250574960e11b8152600060048201526024016109c6565b6000612e7f83836000612c39565b90506001600160a01b038116612eab57604051637e27328960e01b8152600481018390526024016109c6565b836001600160a01b0316816001600160a01b031614610ce6576040516364283d7b60e01b81526001600160a01b03808616600483015260248201849052821660448201526064016109c6565b600780546001600160a01b038381166001600160a01b0319831681179093556040519116919082907f8be0079c531659141344cd1fd0a4f28419497f9722a3daafe3b4186f6b6457e090600090a35050565b6001600160a01b038216612f7b57604051630b61174360e31b81526001600160a01b03831660048201526024016109c6565b6001600160a01b03838116600081815260056020908152604080832094871680845294825291829020805460ff191686151590811790915591519182527f17307eab39ab6107e8899845ad3d59bd9653f200f220920489ca2b5937696c319101612060565b601280546001818101835560008390527fbb8a6a4669ba250d26cd7a459eca9d215f8307e33aebe50379bc5a3617ec344490910183905590546130239190613ff8565b60009182526013602052604090912055565b6001600160a01b0383163b1561315957604051630a85bd0160e11b81526001600160a01b0384169063150b7a029061307790889088908790879060040161418e565b6020604051808303816000875af19250505080156130b2575060408051601f3d908101601f191682019092526130af918101906141cb565b60015b61311b573d8080156130e0576040519150601f19603f3d011682016040523d82523d6000602084013e6130e5565b606091505b50805160000361311357604051633250574960e11b81526001600160a01b03851660048201526024016109c6565b805160208201fd5b6001600160e01b03198116630a85bd0160e11b1461315757604051633250574960e11b81526001600160a01b03851660048201526024016109c6565b505b5050505050565b610b7a828260405180602001604052806000815250613495565b6000828152600660205260409020613192828261409f565b506040518281527ff8e1a15aba9398e019f0b49df1a4fde98ee17ae345cb5f6b5e2c27f5033e8ce79060200160405180910390a15050565b60606131d582612bc6565b50600082815260066020526040812080546131ef90613f6f565b80601f016020809104026020016040519081016040528092919081815260200182805461321b90613f6f565b80156132685780601f1061323d57610100808354040283529160200191613268565b820191906000526020600020905b81548152906001019060200180831161324b57829003601f168201915b50505050509050600061328660408051602081019091526000815290565b90508051600003613298575092915050565b8151156132ca5780826040516020016132b29291906141e8565b60405160208183030381529060405292505050919050565b6132d3846134ad565b949350505050565b60006001600160e01b031982166380ac58cd60e01b148061330c57506001600160e01b03198216635b5e139f60e01b145b80610aae57506301ffc9a760e01b6001600160e01b0319831614610aae565b808061333f57506001600160a01b03821615155b1561340157600061334f84612bc6565b90506001600160a01b0383161580159061337b5750826001600160a01b0316816001600160a01b031614155b801561338e575061338c8184612b38565b155b156133b75760405163a9fbf51f60e01b81526001600160a01b03841660048201526024016109c6565b81156133ff5783856001600160a01b0316826001600160a01b03167f8c5be1e5ebec7d5bd14f71427d1e84f3dd0314c0f7b2291e5b200ac8c7c3b92560405160405180910390a45b505b5050600090815260046020526040902080546001600160a01b0319166001600160a01b0392909216919091179055565b61343c838383613522565b610dc6576001600160a01b03831661346a57604051637e27328960e01b8152600481018290526024016109c6565b60405163177e802f60e01b81526001600160a01b0383166004820152602481018290526044016109c6565b61349f8383613585565b610dc6336000858585613035565b60606134b882612bc6565b5060006134d060408051602081019091526000815290565b905060008151116134f0576040518060200160405280600081525061351b565b806134fa846135ea565b60405160200161350b9291906141e8565b6040516020818303038152906040525b9392505050565b60006001600160a01b038316158015906132d35750826001600160a01b0316846001600160a01b0316148061355c575061355c8484612b38565b806132d35750506000908152600460205260409020546001600160a01b03908116911614919050565b6001600160a01b0382166135af57604051633250574960e11b8152600060048201526024016109c6565b60006135bd83836000612c39565b90506001600160a01b03811615610dc6576040516339e3563760e11b8152600060048201526024016109c6565b606060006135f78361367d565b600101905060008167ffffffffffffffff81111561361757613617613aaf565b6040519080825280601f01601f191660200182016040528015613641576020820181803683370190505b5090508181016020015b600019016f181899199a1a9b1b9c1cb0b131b232b360811b600a86061a8153600a850494508461364b57509392505050565b60008072184f03e93ff9f4daa797ed6e38ed64bf6a1f0160401b83106136bc5772184f03e93ff9f4daa797ed6e38ed64bf6a1f0160401b830492506040015b6d04ee2d6d415b85acef810000000083106136e8576d04ee2d6d415b85acef8100000000830492506020015b662386f26fc10000831061370657662386f26fc10000830492506010015b6305f5e100831061371e576305f5e100830492506008015b612710831061373257612710830492506004015b60648310613744576064830492506002015b600a8310610aae5760010192915050565b50805461376190613f6f565b6000825580601f10613771575050565b601f016020900490600052602060002090810190610da891905b8082111561379f576000815560010161378b565b5090565b803580151581146137b357600080fd5b919050565b6000806000606084860312156137cd57600080fd5b6137d6846137a3565b92506137e4602085016137a3565b9150604084013560ff811681146137fa57600080fd5b809150509250925092565b6001600160e01b031981168114610da857600080fd5b60006020828403121561382d57600080fd5b813561351b81613805565b60005b8381101561385357818101518382015260200161383b565b50506000910152565b60008151808452613874816020860160208601613838565b601f01601f19169290920160200192915050565b60208152600061351b602083018461385c565b6000602082840312156138ad57600080fd5b5035919050565b6001600160a01b0381168114610da857600080fd5b600080604083850312156138dc57600080fd5b82356138e7816138b4565b946020939093013593505050565b60006020828403121561390757600080fd5b813561351b816138b4565b60008060006060848603121561392757600080fd5b8335613932816138b4565b92506020840135613942816138b4565b929592945050506040919091013590565b6000806040838503121561396657600080fd5b823591506020830135613978816138b4565b809150509250929050565b8a81526001600160a01b038a166020820152610140604082018190526000906139ae8382018c61385c565b905082810360608401526139c2818b61385c565b905082810360808401526139d6818a61385c565b905082810360a08401526139ea818961385c565b60c0840197909752505060e0810193909352901515610100830152610120909101529695505050505050565b60006101008a835260018060a01b038a166020840152886040840152876060840152806080840152613a4a8184018861385c565b60a0840196909652505091151560c083015260e09091015295945050505050565b6020808252825182820181905260009190848201906040850190845b81811015613aa357835183529284019291840191600101613a87565b50909695505050505050565b634e487b7160e01b600052604160045260246000fd5b600067ffffffffffffffff80841115613ae057613ae0613aaf565b604051601f8501601f19908116603f01168101908282118183101715613b0857613b08613aaf565b81604052809350858152868686011115613b2157600080fd5b858560208301376000602087830101525050509392505050565b600082601f830112613b4c57600080fd5b61351b83833560208501613ac5565b60008060008060808587031215613b7157600080fd5b843567ffffffffffffffff80821115613b8957600080fd5b613b9588838901613b3b565b95506020870135915080821115613bab57600080fd5b613bb788838901613b3b565b94506040870135915080821115613bcd57600080fd5b613bd988838901613b3b565b93506060870135915080821115613bef57600080fd5b50613bfc87828801613b3b565b91505092959194509250565b81516001600160a01b0316815261014081016020830151602083015260408301516040830152606083015160608301526080830151613c4b608084018215159052565b5060a0830151613c5f60a084018215159052565b5060c0830151613c7360c084018215159052565b5060e0830151613c8860e084018260ff169052565b50610100838101519083015261012092830151929091019190915290565b60008060408385031215613cb957600080fd5b8235613cc4816138b4565b9150613cd2602084016137a3565b90509250929050565b60008060408385031215613cee57600080fd5b50508035926020909101359150565b60008060008060808587031215613d1357600080fd5b8435613d1e816138b4565b93506020850135613d2e816138b4565b925060408501359150606085013567ffffffffffffffff811115613d5157600080fd5b8501601f81018713613d6257600080fd5b613bfc87823560208401613ac5565b600080600080600060a08688031215613d8957600080fd5b853594506020860135935060408601359250606086013567ffffffffffffffff80821115613db657600080fd5b613dc289838a01613b3b565b93506080880135915080821115613dd857600080fd5b50613de588828901613b3b565b9150509295509295909350565b600060208083018184528085518083526040925060408601915060408160051b87010184880160005b83811015613efc57603f19898403018552815180518452878101516001600160a01b0316888501528681015161014088860181905290613e5d8287018261385c565b91505060608083015186830382880152613e77838261385c565b9250505060808083015186830382880152613e92838261385c565b9250505060a08083015186830382880152613ead838261385c565b9250505060c080830151818701525060e080830151818701525061010080830151613edb8288018215159052565b50506101209182015194909101939093529386019390860190600101613e1b565b509098975050505050505050565b60008060408385031215613f1d57600080fd5b8235613f28816138b4565b91506020830135613978816138b4565b6020808252601b908201527f557365722070726f66696c6520646f6573206e6f742065786973740000000000604082015260600190565b600181811c90821680613f8357607f821691505b602082108103613fa357634e487b7160e01b600052602260045260246000fd5b50919050565b634e487b7160e01b600052601160045260246000fd5b8082028115828204841417610aae57610aae613fa9565b600082613ff357634e487b7160e01b600052601260045260246000fd5b500490565b81810381811115610aae57610aae613fa9565b60006020828403121561401d57600080fd5b815161351b816138b4565b634e487b7160e01b600052603260045260246000fd5b60006001820161405057614050613fa9565b5060010190565b601f821115610dc6576000816000526020600020601f850160051c810160208610156140805750805b601f850160051c820191505b818110156131575782815560010161408c565b815167ffffffffffffffff8111156140b9576140b9613aaf565b6140cd816140c78454613f6f565b84614057565b602080601f83116001811461410257600084156140ea5750858301515b600019600386901b1c1916600185901b178555613157565b600085815260208120601f198616915b8281101561413157888601518255948401946001909101908401614112565b508582101561414f5787850151600019600388901b60f8161c191681555b5050505050600190811b01905550565b8281526040602082015260006132d3604083018461385c565b634e487b7160e01b600052603160045260246000fd5b6001600160a01b03858116825284166020820152604081018390526080606082018190526000906141c19083018461385c565b9695505050505050565b6000602082840312156141dd57600080fd5b815161351b81613805565b600083516141fa818460208801613838565b83519083019061420e818360208801613838565b0194935050505056fea2646970667358221220f4f664e3622cc6aae5d2a1bb6af24a47c779baa6d624d7185a011ae948ce32f764736f6c63430008170033",
  "linkReferences": {},
  "deployedLinkReferences": {}
}