{
  "_format": "hh-sol-artifact-1",
  "contractName": "RecipeBook",
  "sourceName": "contracts/RecipeBook.sol",
  "abi": [
    {
      "inputs": [],
      "stateMutability": "nonpayable",
      "type": "constructor"
    },
    {
      "anonymous": false,
      "inputs": [
        {
          "indexed": true,
          "internalType": "address",
          "name": "previousOwner",
          "type": "address"
        },
        {
          "indexed": true,
          "internalType": "address",
          "name": "newOwner",
          "type": "address"
        }
      ],
      "name": "OwnershipTransferred",
      "type": "event"
    },
    {
      "anonymous": false,
      "inputs": [
        {
          "indexed": false,
          "internalType": "uint256",
          "name": "id",
          "type": "uint256"
        },
        {
          "indexed": false,
          "internalType": "string",
          "name": "title",
          "type": "string"
        },
        {
          "indexed": false,
          "internalType": "address",
          "name": "creator",
          "type": "address"
        }
      ],
      "name": "RecipeAdded",
      "type": "event"
    },
    {
      "inputs": [
        {
          "internalType": "string",
          "name": "_title",
          "type": "string"
        },
        {
          "internalType": "string",
          "name": "_description",
          "type": "string"
        },
        {
          "internalType": "string",
          "name": "_imageUrl",
          "type": "string"
        }
      ],
      "name": "addRecipe",
      "outputs": [],
      "stateMutability": "nonpayable",
      "type": "function"
    },
    {
      "inputs": [],
      "name": "getAllRecipes",
      "outputs": [
        {
          "components": [
            {
              "internalType": "uint256",
              "name": "id",
              "type": "uint256"
            },
            {
              "internalType": "string",
              "name": "title",
              "type": "string"
            },
            {
              "internalType": "string",
              "name": "description",
              "type": "string"
            },
            {
              "internalType": "string",
              "name": "imageUrl",
              "type": "string"
            },
            {
              "internalType": "address",
              "name": "creator",
              "type": "address"
            }
          ],
          "internalType": "struct RecipeBook.Recipe[]",
          "name": "",
          "type": "tuple[]"
        }
      ],
      "stateMutability": "view",
      "type": "function"
    },
    {
      "inputs": [
        {
          "internalType": "uint256",
          "name": "_id",
          "type": "uint256"
        }
      ],
      "name": "getRecipe",
      "outputs": [
        {
          "components": [
            {
              "internalType": "uint256",
              "name": "id",
              "type": "uint256"
            },
            {
              "internalType": "string",
              "name": "title",
              "type": "string"
            },
            {
              "internalType": "string",
              "name": "description",
              "type": "string"
            },
            {
              "internalType": "string",
              "name": "imageUrl",
              "type": "string"
            },
            {
              "internalType": "address",
              "name": "creator",
              "type": "address"
            }
          ],
          "internalType": "struct RecipeBook.Recipe",
          "name": "",
          "type": "tuple"
        }
      ],
      "stateMutability": "view",
      "type": "function"
    },
    {
      "inputs": [],
      "name": "getTotalRecipes",
      "outputs": [
        {
          "internalType": "uint256",
          "name": "",
          "type": "uint256"
        }
      ],
      "stateMutability": "view",
      "type": "function"
    },
    {
      "inputs": [],
      "name": "owner",
      "outputs": [
        {
          "internalType": "address",
          "name": "",
          "type": "address"
        }
      ],
      "stateMutability": "view",
      "type": "function"
    },
    {
      "inputs": [
        {
          "internalType": "uint256",
          "name": "",
          "type": "uint256"
        }
      ],
      "name": "recipes",
      "outputs": [
        {
          "internalType": "uint256",
          "name": "id",
          "type": "uint256"
        },
        {
          "internalType": "string",
          "name": "title",
          "type": "string"
        },
        {
          "internalType": "string",
          "name": "description",
          "type": "string"
        },
        {
          "internalType": "string",
          "name": "imageUrl",
          "type": "string"
        },
        {
          "internalType": "address",
          "name": "creator",
          "type": "address"
        }
      ],
      "stateMutability": "view",
      "type": "function"
    },
    {
      "inputs": [],
      "name": "renounceOwnership",
      "outputs": [],
      "stateMutability": "nonpayable",
      "type": "function"
    },
    {
      "inputs": [
        {
          "internalType": "address",
          "name": "newOwner",
          "type": "address"
        }
      ],
      "name": "transferOwnership",
      "outputs": [],
      "stateMutability": "nonpayable",
      "type": "function"
    }
  ],
  "bytecode": "0x608060405234801561001057600080fd5b50600180546001600160a01b031916339081179091556040516000907f8be0079c531659141344cd1fd0a4f28419497f9722a3daafe3b4186f6b6457e0908290a3610fe7806100606000396000f3fe608060405234801561001057600080fd5b50600436106100885760003560e01c8063d075f9211161005b578063d075f921146100fc578063ed9d556f14610111578063f2fde38b14610124578063f8d12a411461013757600080fd5b80631650ac6d1461008d578063443c227c146100a3578063715018a6146100c75780638da5cb5b146100d1575b600080fd5b6000546040519081526020015b60405180910390f35b6100b66100b1366004610adb565b610157565b60405161009a959493929190610b3a565b6100cf61033a565b005b6001546100e4906001600160a01b031681565b6040516001600160a01b03909116815260200161009a565b6101046103d3565b60405161009a9190610c05565b6100cf61011f366004610d0c565b610608565b6100cf610132366004610d94565b61074b565b61014a610145366004610adb565b61083d565b60405161009a9190610dc4565b6002818154811061016757600080fd5b6000918252602090912060059091020180546001820180549193509061018c90610dd7565b80601f01602080910402602001604051908101604052809291908181526020018280546101b890610dd7565b80156102055780601f106101da57610100808354040283529160200191610205565b820191906000526020600020905b8154815290600101906020018083116101e857829003601f168201915b50505050509080600201805461021a90610dd7565b80601f016020809104026020016040519081016040528092919081815260200182805461024690610dd7565b80156102935780601f1061026857610100808354040283529160200191610293565b820191906000526020600020905b81548152906001019060200180831161027657829003601f168201915b5050505050908060030180546102a890610dd7565b80601f01602080910402602001604051908101604052809291908181526020018280546102d490610dd7565b80156103215780601f106102f657610100808354040283529160200191610321565b820191906000526020600020905b81548152906001019060200180831161030457829003601f168201915b505050600490930154919250506001600160a01b031685565b6001546001600160a01b031633146103895760405162461bcd60e51b815260206004820152600d60248201526c2737ba103a34329037bbb732b960991b60448201526064015b60405180910390fd5b6001546040516000916001600160a01b0316907f8be0079c531659141344cd1fd0a4f28419497f9722a3daafe3b4186f6b6457e0908390a3600180546001600160a01b0319169055565b60606002805480602002602001604051908101604052809291908181526020016000905b828210156105ff57838290600052602060002090600502016040518060a00160405290816000820154815260200160018201805461043490610dd7565b80601f016020809104026020016040519081016040528092919081815260200182805461046090610dd7565b80156104ad5780601f10610482576101008083540402835291602001916104ad565b820191906000526020600020905b81548152906001019060200180831161049057829003601f168201915b505050505081526020016002820180546104c690610dd7565b80601f01602080910402602001604051908101604052809291908181526020018280546104f290610dd7565b801561053f5780601f106105145761010080835404028352916020019161053f565b820191906000526020600020905b81548152906001019060200180831161052257829003601f168201915b5050505050815260200160038201805461055890610dd7565b80601f016020809104026020016040519081016040528092919081815260200182805461058490610dd7565b80156105d15780601f106105a6576101008083540402835291602001916105d1565b820191906000526020600020905b8154815290600101906020018083116105b457829003601f168201915b5050509183525050600491909101546001600160a01b031660209182015290825260019290920191016103f7565b50505050905090565b60008054908061061783610e27565b9091555050600080546040805160a0810182528281526020810187815291810186905260608101859052336080820152600280546001810182559452805160059094027f405787fa12a823e0f2b7631cc41b3ba8828b3321ca811111fa75cd3aa3bb5ace810194855591519293909290917f405787fa12a823e0f2b7631cc41b3ba8828b3321ca811111fa75cd3aa3bb5acf01906106b59082610e91565b50604082015160028201906106ca9082610e91565b50606082015160038201906106df9082610e91565b5060809190910151600490910180546001600160a01b0319166001600160a01b039092169190911790556040517f01f2766ae0ef9b641fbb79c7b52d90feacb45ec27a5b13fb1e7ee0813ed98b3b9061073d90839087903390610f51565b60405180910390a150505050565b6001546001600160a01b031633146107955760405162461bcd60e51b815260206004820152600d60248201526c2737ba103a34329037bbb732b960991b6044820152606401610380565b6001600160a01b0381166107eb5760405162461bcd60e51b815260206004820152601d60248201527f4e6577206f776e657220697320746865207a65726f20616464726573730000006044820152606401610380565b600180546001600160a01b038381166001600160a01b0319831681179093556040519116919082907f8be0079c531659141344cd1fd0a4f28419497f9722a3daafe3b4186f6b6457e090600090a35050565b6108786040518060a001604052806000815260200160608152602001606081526020016060815260200160006001600160a01b031681525090565b60008211801561088a57506000548211155b6108ca5760405162461bcd60e51b8152602060048201526011602482015270125b9d985b1a59081c9958da5c19481a59607a1b6044820152606401610380565b60026108d7600184610f82565b815481106108e7576108e7610f9b565b90600052602060002090600502016040518060a00160405290816000820154815260200160018201805461091a90610dd7565b80601f016020809104026020016040519081016040528092919081815260200182805461094690610dd7565b80156109935780601f1061096857610100808354040283529160200191610993565b820191906000526020600020905b81548152906001019060200180831161097657829003601f168201915b505050505081526020016002820180546109ac90610dd7565b80601f01602080910402602001604051908101604052809291908181526020018280546109d890610dd7565b8015610a255780601f106109fa57610100808354040283529160200191610a25565b820191906000526020600020905b815481529060010190602001808311610a0857829003601f168201915b50505050508152602001600382018054610a3e90610dd7565b80601f0160208091040260200160405190810160405280929190818152602001828054610a6a90610dd7565b8015610ab75780601f10610a8c57610100808354040283529160200191610ab7565b820191906000526020600020905b815481529060010190602001808311610a9a57829003601f168201915b5050509183525050600491909101546001600160a01b031660209091015292915050565b600060208284031215610aed57600080fd5b5035919050565b6000815180845260005b81811015610b1a57602081850181015186830182015201610afe565b506000602082860101526020601f19601f83011685010191505092915050565b85815260a060208201526000610b5360a0830187610af4565b8281036040840152610b658187610af4565b90508281036060840152610b798186610af4565b91505060018060a01b03831660808301529695505050505050565b805182526000602082015160a06020850152610bb360a0850182610af4565b905060408301518482036040860152610bcc8282610af4565b91505060608301518482036060860152610be68282610af4565b6080948501516001600160a01b03169590940194909452509092915050565b600060208083016020845280855180835260408601915060408160051b87010192506020870160005b82811015610c5c57603f19888603018452610c4a858351610b94565b94509285019290850190600101610c2e565b5092979650505050505050565b634e487b7160e01b600052604160045260246000fd5b600082601f830112610c9057600080fd5b813567ffffffffffffffff80821115610cab57610cab610c69565b604051601f8301601f19908116603f01168101908282118183101715610cd357610cd3610c69565b81604052838152866020858801011115610cec57600080fd5b836020870160208301376000602085830101528094505050505092915050565b600080600060608486031215610d2157600080fd5b833567ffffffffffffffff80821115610d3957600080fd5b610d4587838801610c7f565b94506020860135915080821115610d5b57600080fd5b610d6787838801610c7f565b93506040860135915080821115610d7d57600080fd5b50610d8a86828701610c7f565b9150509250925092565b600060208284031215610da657600080fd5b81356001600160a01b0381168114610dbd57600080fd5b9392505050565b602081526000610dbd6020830184610b94565b600181811c90821680610deb57607f821691505b602082108103610e0b57634e487b7160e01b600052602260045260246000fd5b50919050565b634e487b7160e01b600052601160045260246000fd5b600060018201610e3957610e39610e11565b5060010190565b601f821115610e8c576000816000526020600020601f850160051c81016020861015610e695750805b601f850160051c820191505b81811015610e8857828155600101610e75565b5050505b505050565b815167ffffffffffffffff811115610eab57610eab610c69565b610ebf81610eb98454610dd7565b84610e40565b602080601f831160018114610ef45760008415610edc5750858301515b600019600386901b1c1916600185901b178555610e88565b600085815260208120601f198616915b82811015610f2357888601518255948401946001909101908401610f04565b5085821015610f415787850151600019600388901b60f8161c191681555b5050505050600190811b01905550565b838152606060208201526000610f6a6060830185610af4565b905060018060a01b0383166040830152949350505050565b81810381811115610f9557610f95610e11565b92915050565b634e487b7160e01b600052603260045260246000fdfea264697066735822122091d9969ad012d4d731e6bca90371b893cb6e1b9d38563989792a77d65223062f64736f6c63430008170033",
  "linkReferences": {},
  "deployedLinkReferences": {}
}