{
  "_format": "hh-sol-artifact-1",
  "contractName": "RecipeBook",
  "sourceName": "contracts/RecipeBook.sol",
  "abi": [
    {
      "inputs": [
        {
          "internalType": "address",
          "name": "_feeRecipient",
          "type": "address"
        },
        {
          "internalType": "uint256",
          "name": "_initialPlatformFeeBps",
          "type": "uint256"
        }
      ],
      "stateMutability": "nonpayable",
      "type": "constructor"
    },
    {
      "inputs": [
        {
          "internalType": "address",
          "name": "sender",
          "type": "address"
        },
        {
          "internalType": "uint256",
          "name": "tokenId",
          "type": "uint256"
        },
        {
          "internalType": "address",
          "name": "owner",
          "type": "address"
        }
      ],
      "name": "ERC721IncorrectOwner",
      "type": "error"
    },
    {
      "inputs": [
        {
          "internalType": "address",
          "name": "operator",
          "type": "address"
        },
        {
          "internalType": "uint256",
          "name": "tokenId",
          "type": "uint256"
        }
      ],
      "name": "ERC721InsufficientApproval",
      "type": "error"
    },
    {
      "inputs": [
        {
          "internalType": "address",
          "name": "approver",
          "type": "address"
        }
      ],
      "name": "ERC721InvalidApprover",
      "type": "error"
    },
    {
      "inputs": [
        {
          "internalType": "address",
          "name": "operator",
          "type": "address"
        }
      ],
      "name": "ERC721InvalidOperator",
      "type": "error"
    },
    {
      "inputs": [
        {
          "internalType": "address",
          "name": "owner",
          "type": "address"
        }
      ],
      "name": "ERC721InvalidOwner",
      "type": "error"
    },
    {
      "inputs": [
        {
          "internalType": "address",
          "name": "receiver",
          "type": "address"
        }
      ],
      "name": "ERC721InvalidReceiver",
      "type": "error"
    },
    {
      "inputs": [
        {
          "internalType": "address",
          "name": "sender",
          "type": "address"
        }
      ],
      "name": "ERC721InvalidSender",
      "type": "error"
    },
    {
      "inputs": [
        {
          "internalType": "uint256",
          "name": "tokenId",
          "type": "uint256"
        }
      ],
      "name": "ERC721NonexistentToken",
      "type": "error"
    },
    {
      "inputs": [
        {
          "internalType": "address",
          "name": "owner",
          "type": "address"
        }
      ],
      "name": "OwnableInvalidOwner",
      "type": "error"
    },
    {
      "inputs": [
        {
          "internalType": "address",
          "name": "account",
          "type": "address"
        }
      ],
      "name": "OwnableUnauthorizedAccount",
      "type": "error"
    },
    {
      "inputs": [],
      "name": "ReentrancyGuardReentrantCall",
      "type": "error"
    },
    {
      "anonymous": false,
      "inputs": [
        {
          "indexed": true,
          "internalType": "address",
          "name": "owner",
          "type": "address"
        },
        {
          "indexed": true,
          "internalType": "address",
          "name": "approved",
          "type": "address"
        },
        {
          "indexed": true,
          "internalType": "uint256",
          "name": "tokenId",
          "type": "uint256"
        }
      ],
      "name": "Approval",
      "type": "event"
    },
    {
      "anonymous": false,
      "inputs": [
        {
          "indexed": true,
          "internalType": "address",
          "name": "owner",
          "type": "address"
        },
        {
          "indexed": true,
          "internalType": "address",
          "name": "operator",
          "type": "address"
        },
        {
          "indexed": false,
          "internalType": "bool",
          "name": "approved",
          "type": "bool"
        }
      ],
      "name": "ApprovalForAll",
      "type": "event"
    },
    {
      "anonymous": false,
      "inputs": [
        {
          "indexed": false,
          "internalType": "uint256",
          "name": "_fromTokenId",
          "type": "uint256"
        },
        {
          "indexed": false,
          "internalType": "uint256",
          "name": "_toTokenId",
          "type": "uint256"
        }
      ],
      "name": "BatchMetadataUpdate",
      "type": "event"
    },
    {
      "anonymous": false,
      "inputs": [
        {
          "indexed": true,
          "internalType": "address",
          "name": "chef",
          "type": "address"
        },
        {
          "indexed": false,
          "internalType": "string",
          "name": "name",
          "type": "string"
        },
        {
          "indexed": false,
          "internalType": "uint256",
          "name": "timestamp",
          "type": "uint256"
        }
      ],
      "name": "ChefProfileCreated",
      "type": "event"
    },
    {
      "anonymous": false,
      "inputs": [
        {
          "indexed": true,
          "internalType": "address",
          "name": "chef",
          "type": "address"
        },
        {
          "indexed": false,
          "internalType": "uint256",
          "name": "timestamp",
          "type": "uint256"
        }
      ],
      "name": "ChefProfileUpdated",
      "type": "event"
    },
    {
      "anonymous": false,
      "inputs": [
        {
          "indexed": false,
          "internalType": "uint256",
          "name": "_tokenId",
          "type": "uint256"
        }
      ],
      "name": "MetadataUpdate",
      "type": "event"
    },
    {
      "anonymous": false,
      "inputs": [
        {
          "indexed": true,
          "internalType": "address",
          "name": "owner",
          "type": "address"
        },
        {
          "indexed": true,
          "internalType": "uint256",
          "name": "tokenId",
          "type": "uint256"
        },
        {
          "indexed": false,
          "internalType": "uint256",
          "name": "price",
          "type": "uint256"
        }
      ],
      "name": "NFTListedForSale",
      "type": "event"
    },
    {
      "anonymous": false,
      "inputs": [
        {
          "indexed": true,
          "internalType": "address",
          "name": "owner",
          "type": "address"
        },
        {
          "indexed": true,
          "internalType": "uint256",
          "name": "tokenId",
          "type": "uint256"
        }
      ],
      "name": "NFTRemovedFromSale",
      "type": "event"
    },
    {
      "anonymous": false,
      "inputs": [
        {
          "indexed": true,
          "internalType": "address",
          "name": "seller",
          "type": "address"
        },
        {
          "indexed": true,
          "internalType": "address",
          "name": "buyer",
          "type": "address"
        },
        {
          "indexed": true,
          "internalType": "uint256",
          "name": "tokenId",
          "type": "uint256"
        },
        {
          "indexed": false,
          "internalType": "uint256",
          "name": "price",
          "type": "uint256"
        }
      ],
      "name": "NFTSold",
      "type": "event"
    },
    {
      "anonymous": false,
      "inputs": [
        {
          "indexed": true,
          "internalType": "address",
          "name": "previousOwner",
          "type": "address"
        },
        {
          "indexed": true,
          "internalType": "address",
          "name": "newOwner",
          "type": "address"
        }
      ],
      "name": "OwnershipTransferred",
      "type": "event"
    },
    {
      "anonymous": false,
      "inputs": [
        {
          "indexed": true,
          "internalType": "address",
          "name": "creator",
          "type": "address"
        },
        {
          "indexed": true,
          "internalType": "uint256",
          "name": "tokenId",
          "type": "uint256"
        },
        {
          "indexed": false,
          "internalType": "string",
          "name": "title",
          "type": "string"
        }
      ],
      "name": "RecipeNFTMinted",
      "type": "event"
    },
    {
      "anonymous": false,
      "inputs": [
        {
          "indexed": true,
          "internalType": "address",
          "name": "voter",
          "type": "address"
        },
        {
          "indexed": true,
          "internalType": "uint256",
          "name": "tokenId",
          "type": "uint256"
        }
      ],
      "name": "RecipeVoted",
      "type": "event"
    },
    {
      "anonymous": false,
      "inputs": [
        {
          "indexed": true,
          "internalType": "address",
          "name": "recipient",
          "type": "address"
        },
        {
          "indexed": false,
          "internalType": "uint256",
          "name": "amount",
          "type": "uint256"
        },
        {
          "indexed": true,
          "internalType": "uint256",
          "name": "tokenId",
          "type": "uint256"
        }
      ],
      "name": "RoyaltyPaid",
      "type": "event"
    },
    {
      "anonymous": false,
      "inputs": [
        {
          "indexed": true,
          "internalType": "address",
          "name": "from",
          "type": "address"
        },
        {
          "indexed": true,
          "internalType": "address",
          "name": "to",
          "type": "address"
        },
        {
          "indexed": true,
          "internalType": "uint256",
          "name": "tokenId",
          "type": "uint256"
        }
      ],
      "name": "Transfer",
      "type": "event"
    },
    {
      "inputs": [],
      "name": "BPS_DIVISOR",
      "outputs": [
        {
          "internalType": "uint256",
          "name": "",
          "type": "uint256"
        }
      ],
      "stateMutability": "view",
      "type": "function"
    },
    {
      "inputs": [],
      "name": "MAX_PLATFORM_FEE_BPS",
      "outputs": [
        {
          "internalType": "uint256",
          "name": "",
          "type": "uint256"
        }
      ],
      "stateMutability": "view",
      "type": "function"
    },
    {
      "inputs": [],
      "name": "MAX_ROYALTY_PERCENT",
      "outputs": [
        {
          "internalType": "uint256",
          "name": "",
          "type": "uint256"
        }
      ],
      "stateMutability": "view",
      "type": "function"
    },
    {
      "inputs": [
        {
          "internalType": "address",
          "name": "to",
          "type": "address"
        },
        {
          "internalType": "uint256",
          "name": "tokenId",
          "type": "uint256"
        }
      ],
      "name": "approve",
      "outputs": [],
      "stateMutability": "nonpayable",
      "type": "function"
    },
    {
      "inputs": [
        {
          "internalType": "address",
          "name": "owner",
          "type": "address"
        }
      ],
      "name": "balanceOf",
      "outputs": [
        {
          "internalType": "uint256",
          "name": "",
          "type": "uint256"
        }
      ],
      "stateMutability": "view",
      "type": "function"
    },
    {
      "inputs": [
        {
          "internalType": "uint256",
          "name": "tokenId",
          "type": "uint256"
        }
      ],
      "name": "burn",
      "outputs": [],
      "stateMutability": "nonpayable",
      "type": "function"
    },
    {
      "inputs": [
        {
          "internalType": "uint256",
          "name": "_tokenId",
          "type": "uint256"
        }
      ],
      "name": "buyNFT",
      "outputs": [],
      "stateMutability": "payable",
      "type": "function"
    },
    {
      "inputs": [
        {
          "internalType": "address",
          "name": "",
          "type": "address"
        }
      ],
      "name": "chefExists",
      "outputs": [
        {
          "internalType": "bool",
          "name": "",
          "type": "bool"
        }
      ],
      "stateMutability": "view",
      "type": "function"
    },
    {
      "inputs": [
        {
          "internalType": "address",
          "name": "",
          "type": "address"
        }
      ],
      "name": "chefProfiles",
      "outputs": [
        {
          "internalType": "address",
          "name": "chefAddress",
          "type": "address"
        },
        {
          "internalType": "string",
          "name": "name",
          "type": "string"
        },
        {
          "internalType": "string",
          "name": "bio",
          "type": "string"
        },
        {
          "internalType": "string",
          "name": "profileImageURL",
          "type": "string"
        },
        {
          "internalType": "uint256",
          "name": "reputation",
          "type": "uint256"
        },
        {
          "internalType": "uint256",
          "name": "nftsCreated",
          "type": "uint256"
        },
        {
          "internalType": "uint256",
          "name": "votesReceived",
          "type": "uint256"
        },
        {
          "internalType": "bool",
          "name": "isOnboarded",
          "type": "bool"
        },
        {
          "internalType": "bool",
          "name": "agentEnabled",
          "type": "bool"
        },
        {
          "internalType": "bool",
          "name": "notifications",
          "type": "bool"
        },
        {
          "internalType": "uint8",
          "name": "theme",
          "type": "uint8"
        },
        {
          "internalType": "uint256",
          "name": "createdAt",
          "type": "uint256"
        },
        {
          "internalType": "uint256",
          "name": "updatedAt",
          "type": "uint256"
        }
      ],
      "stateMutability": "view",
      "type": "function"
    },
    {
      "inputs": [
        {
          "internalType": "address",
          "name": "",
          "type": "address"
        }
      ],
      "name": "chefReputation",
      "outputs": [
        {
          "internalType": "uint256",
          "name": "",
          "type": "uint256"
        }
      ],
      "stateMutability": "view",
      "type": "function"
    },
    {
      "inputs": [],
      "name": "completeOnboarding",
      "outputs": [],
      "stateMutability": "nonpayable",
      "type": "function"
    },
    {
      "inputs": [
        {
          "internalType": "string",
          "name": "_name",
          "type": "string"
        },
        {
          "internalType": "string",
          "name": "_bio",
          "type": "string"
        },
        {
          "internalType": "string",
          "name": "_profileImageURL",
          "type": "string"
        }
      ],
      "name": "createChefProfile",
      "outputs": [
        {
          "internalType": "bool",
          "name": "",
          "type": "bool"
        }
      ],
      "stateMutability": "nonpayable",
      "type": "function"
    },
    {
      "inputs": [
        {
          "internalType": "address",
          "name": "_chef",
          "type": "address"
        }
      ],
      "name": "doesChefExist",
      "outputs": [
        {
          "internalType": "bool",
          "name": "",
          "type": "bool"
        }
      ],
      "stateMutability": "view",
      "type": "function"
    },
    {
      "inputs": [],
      "name": "feeRecipient",
      "outputs": [
        {
          "internalType": "address",
          "name": "",
          "type": "address"
        }
      ],
      "stateMutability": "view",
      "type": "function"
    },
    {
      "inputs": [],
      "name": "getAllNFTs",
      "outputs": [
        {
          "internalType": "uint256[]",
          "name": "tokenIds",
          "type": "uint256[]"
        },
        {
          "components": [
            {
              "internalType": "address",
              "name": "creator",
              "type": "address"
            },
            {
              "internalType": "string",
              "name": "title",
              "type": "string"
            },
            {
              "internalType": "string",
              "name": "ingredients",
              "type": "string"
            },
            {
              "internalType": "string",
              "name": "instructions",
              "type": "string"
            },
            {
              "internalType": "string",
              "name": "imageURL",
              "type": "string"
            },
            {
              "internalType": "string",
              "name": "description",
              "type": "string"
            },
            {
              "internalType": "uint256",
              "name": "votes",
              "type": "uint256"
            },
            {
              "internalType": "uint256",
              "name": "royaltyPercent",
              "type": "uint256"
            },
            {
              "internalType": "uint256",
              "name": "mintedAt",
              "type": "uint256"
            },
            {
              "internalType": "bool",
              "name": "isForSale",
              "type": "bool"
            },
            {
              "internalType": "uint256",
              "name": "salePrice",
              "type": "uint256"
            }
          ],
          "internalType": "struct RecipeBook.RecipeNFTMetadata[]",
          "name": "metadata",
          "type": "tuple[]"
        }
      ],
      "stateMutability": "view",
      "type": "function"
    },
    {
      "inputs": [
        {
          "internalType": "uint256",
          "name": "tokenId",
          "type": "uint256"
        }
      ],
      "name": "getApproved",
      "outputs": [
        {
          "internalType": "address",
          "name": "",
          "type": "address"
        }
      ],
      "stateMutability": "view",
      "type": "function"
    },
    {
      "inputs": [
        {
          "internalType": "address",
          "name": "_chef",
          "type": "address"
        }
      ],
      "name": "getChefProfile",
      "outputs": [
        {
          "components": [
            {
              "internalType": "address",
              "name": "chefAddress",
              "type": "address"
            },
            {
              "internalType": "string",
              "name": "name",
              "type": "string"
            },
            {
              "internalType": "string",
              "name": "bio",
              "type": "string"
            },
            {
              "internalType": "string",
              "name": "profileImageURL",
              "type": "string"
            },
            {
              "internalType": "uint256",
              "name": "reputation",
              "type": "uint256"
            },
            {
              "internalType": "uint256",
              "name": "nftsCreated",
              "type": "uint256"
            },
            {
              "internalType": "uint256",
              "name": "votesReceived",
              "type": "uint256"
            },
            {
              "internalType": "bool",
              "name": "isOnboarded",
              "type": "bool"
            },
            {
              "internalType": "bool",
              "name": "agentEnabled",
              "type": "bool"
            },
            {
              "internalType": "bool",
              "name": "notifications",
              "type": "bool"
            },
            {
              "internalType": "uint8",
              "name": "theme",
              "type": "uint8"
            },
            {
              "internalType": "uint256",
              "name": "createdAt",
              "type": "uint256"
            },
            {
              "internalType": "uint256",
              "name": "updatedAt",
              "type": "uint256"
            }
          ],
          "internalType": "struct RecipeBook.ChefProfile",
          "name": "",
          "type": "tuple"
        }
      ],
      "stateMutability": "view",
      "type": "function"
    },
    {
      "inputs": [],
      "name": "getNFTsForSale",
      "outputs": [
        {
          "internalType": "uint256[]",
          "name": "",
          "type": "uint256[]"
        }
      ],
      "stateMutability": "view",
      "type": "function"
    },
    {
      "inputs": [],
      "name": "getTotalNFTs",
      "outputs": [
        {
          "internalType": "uint256",
          "name": "",
          "type": "uint256"
        }
      ],
      "stateMutability": "view",
      "type": "function"
    },
    {
      "inputs": [
        {
          "internalType": "address",
          "name": "user",
          "type": "address"
        }
      ],
      "name": "getUserNFTs",
      "outputs": [
        {
          "internalType": "uint256[]",
          "name": "",
          "type": "uint256[]"
        }
      ],
      "stateMutability": "view",
      "type": "function"
    },
    {
      "inputs": [
        {
          "internalType": "uint256",
          "name": "",
          "type": "uint256"
        },
        {
          "internalType": "address",
          "name": "",
          "type": "address"
        }
      ],
      "name": "hasVoted",
      "outputs": [
        {
          "internalType": "bool",
          "name": "",
          "type": "bool"
        }
      ],
      "stateMutability": "view",
      "type": "function"
    },
    {
      "inputs": [
        {
          "internalType": "address",
          "name": "owner",
          "type": "address"
        },
        {
          "internalType": "address",
          "name": "operator",
          "type": "address"
        }
      ],
      "name": "isApprovedForAll",
      "outputs": [
        {
          "internalType": "bool",
          "name": "",
          "type": "bool"
        }
      ],
      "stateMutability": "view",
      "type": "function"
    },
    {
      "inputs": [
        {
          "internalType": "uint256",
          "name": "_tokenId",
          "type": "uint256"
        },
        {
          "internalType": "uint256",
          "name": "_price",
          "type": "uint256"
        }
      ],
      "name": "listNFTForSale",
      "outputs": [],
      "stateMutability": "nonpayable",
      "type": "function"
    },
    {
      "inputs": [
        {
          "internalType": "string",
          "name": "_title",
          "type": "string"
        },
        {
          "internalType": "string",
          "name": "_ingredients",
          "type": "string"
        },
        {
          "internalType": "string",
          "name": "_instructions",
          "type": "string"
        },
        {
          "internalType": "string",
          "name": "_imageURL",
          "type": "string"
        },
        {
          "internalType": "string",
          "name": "_description",
          "type": "string"
        },
        {
          "internalType": "string",
          "name": "_tokenURI",
          "type": "string"
        },
        {
          "internalType": "uint256",
          "name": "_royaltyPercent",
          "type": "uint256"
        }
      ],
      "name": "mintRecipeNFT",
      "outputs": [
        {
          "internalType": "uint256",
          "name": "",
          "type": "uint256"
        }
      ],
      "stateMutability": "nonpayable",
      "type": "function"
    },
    {
      "inputs": [],
      "name": "name",
      "outputs": [
        {
          "internalType": "string",
          "name": "",
          "type": "string"
        }
      ],
      "stateMutability": "view",
      "type": "function"
    },
    {
      "inputs": [
        {
          "internalType": "uint256",
          "name": "",
          "type": "uint256"
        }
      ],
      "name": "nftMetadata",
      "outputs": [
        {
          "internalType": "address",
          "name": "creator",
          "type": "address"
        },
        {
          "internalType": "string",
          "name": "title",
          "type": "string"
        },
        {
          "internalType": "string",
          "name": "ingredients",
          "type": "string"
        },
        {
          "internalType": "string",
          "name": "instructions",
          "type": "string"
        },
        {
          "internalType": "string",
          "name": "imageURL",
          "type": "string"
        },
        {
          "internalType": "string",
          "name": "description",
          "type": "string"
        },
        {
          "internalType": "uint256",
          "name": "votes",
          "type": "uint256"
        },
        {
          "internalType": "uint256",
          "name": "royaltyPercent",
          "type": "uint256"
        },
        {
          "internalType": "uint256",
          "name": "mintedAt",
          "type": "uint256"
        },
        {
          "internalType": "bool",
          "name": "isForSale",
          "type": "bool"
        },
        {
          "internalType": "uint256",
          "name": "salePrice",
          "type": "uint256"
        }
      ],
      "stateMutability": "view",
      "type": "function"
    },
    {
      "inputs": [],
      "name": "owner",
      "outputs": [
        {
          "internalType": "address",
          "name": "",
          "type": "address"
        }
      ],
      "stateMutability": "view",
      "type": "function"
    },
    {
      "inputs": [
        {
          "internalType": "uint256",
          "name": "tokenId",
          "type": "uint256"
        }
      ],
      "name": "ownerOf",
      "outputs": [
        {
          "internalType": "address",
          "name": "",
          "type": "address"
        }
      ],
      "stateMutability": "view",
      "type": "function"
    },
    {
      "inputs": [],
      "name": "platformFeeBps",
      "outputs": [
        {
          "internalType": "uint256",
          "name": "",
          "type": "uint256"
        }
      ],
      "stateMutability": "view",
      "type": "function"
    },
    {
      "inputs": [
        {
          "internalType": "uint256",
          "name": "_tokenId",
          "type": "uint256"
        }
      ],
      "name": "removeNFTFromSale",
      "outputs": [],
      "stateMutability": "nonpayable",
      "type": "function"
    },
    {
      "inputs": [],
      "name": "renounceOwnership",
      "outputs": [],
      "stateMutability": "nonpayable",
      "type": "function"
    },
    {
      "inputs": [
        {
          "internalType": "address",
          "name": "from",
          "type": "address"
        },
        {
          "internalType": "address",
          "name": "to",
          "type": "address"
        },
        {
          "internalType": "uint256",
          "name": "tokenId",
          "type": "uint256"
        }
      ],
      "name": "safeTransferFrom",
      "outputs": [],
      "stateMutability": "nonpayable",
      "type": "function"
    },
    {
      "inputs": [
        {
          "internalType": "address",
          "name": "from",
          "type": "address"
        },
        {
          "internalType": "address",
          "name": "to",
          "type": "address"
        },
        {
          "internalType": "uint256",
          "name": "tokenId",
          "type": "uint256"
        },
        {
          "internalType": "bytes",
          "name": "data",
          "type": "bytes"
        }
      ],
      "name": "safeTransferFrom",
      "outputs": [],
      "stateMutability": "nonpayable",
      "type": "function"
    },
    {
      "inputs": [
        {
          "internalType": "address",
          "name": "operator",
          "type": "address"
        },
        {
          "internalType": "bool",
          "name": "approved",
          "type": "bool"
        }
      ],
      "name": "setApprovalForAll",
      "outputs": [],
      "stateMutability": "nonpayable",
      "type": "function"
    },
    {
      "inputs": [
        {
          "internalType": "address",
          "name": "_recipient",
          "type": "address"
        }
      ],
      "name": "setFeeRecipient",
      "outputs": [],
      "stateMutability": "nonpayable",
      "type": "function"
    },
    {
      "inputs": [
        {
          "internalType": "uint256",
          "name": "_feeBps",
          "type": "uint256"
        }
      ],
      "name": "setPlatformFee",
      "outputs": [],
      "stateMutability": "nonpayable",
      "type": "function"
    },
    {
      "inputs": [
        {
          "internalType": "bytes4",
          "name": "interfaceId",
          "type": "bytes4"
        }
      ],
      "name": "supportsInterface",
      "outputs": [
        {
          "internalType": "bool",
          "name": "",
          "type": "bool"
        }
      ],
      "stateMutability": "view",
      "type": "function"
    },
    {
      "inputs": [],
      "name": "symbol",
      "outputs": [
        {
          "internalType": "string",
          "name": "",
          "type": "string"
        }
      ],
      "stateMutability": "view",
      "type": "function"
    },
    {
      "inputs": [
        {
          "internalType": "uint256",
          "name": "tokenId",
          "type": "uint256"
        }
      ],
      "name": "tokenURI",
      "outputs": [
        {
          "internalType": "string",
          "name": "",
          "type": "string"
        }
      ],
      "stateMutability": "view",
      "type": "function"
    },
    {
      "inputs": [
        {
          "internalType": "address",
          "name": "from",
          "type": "address"
        },
        {
          "internalType": "address",
          "name": "to",
          "type": "address"
        },
        {
          "internalType": "uint256",
          "name": "tokenId",
          "type": "uint256"
        }
      ],
      "name": "transferFrom",
      "outputs": [],
      "stateMutability": "nonpayable",
      "type": "function"
    },
    {
      "inputs": [
        {
          "internalType": "address",
          "name": "newOwner",
          "type": "address"
        }
      ],
      "name": "transferOwnership",
      "outputs": [],
      "stateMutability": "nonpayable",
      "type": "function"
    },
    {
      "inputs": [
        {
          "internalType": "bool",
          "name": "_agentEnabled",
          "type": "bool"
        },
        {
          "internalType": "bool",
          "name": "_notifications",
          "type": "bool"
        },
        {
          "internalType": "uint8",
          "name": "_theme",
          "type": "uint8"
        }
      ],
      "name": "updateChefPreferences",
      "outputs": [],
      "stateMutability": "nonpayable",
      "type": "function"
    },
    {
      "inputs": [
        {
          "internalType": "string",
          "name": "_name",
          "type": "string"
        },
        {
          "internalType": "string",
          "name": "_bio",
          "type": "string"
        },
        {
          "internalType": "string",
          "name": "_profileImageURL",
          "type": "string"
        }
      ],
      "name": "updateChefProfile",
      "outputs": [],
      "stateMutability": "nonpayable",
      "type": "function"
    },
    {
      "inputs": [
        {
          "internalType": "uint256",
          "name": "_tokenId",
          "type": "uint256"
        }
      ],
      "name": "voteRecipeNFT",
      "outputs": [],
      "stateMutability": "nonpayable",
      "type": "function"
    },
    {
      "inputs": [],
      "name": "withdrawEmergency",
      "outputs": [],
      "stateMutability": "nonpayable",
      "type": "function"
    }
  ],
  "bytecode": "0x60806040523480156200001157600080fd5b50604051620047e3380380620047e3833981016040819052620000349162000200565b336040518060400160405280600f81526020016e149958da5c1948109bdbdac8139195608a1b8152506040518060400160405280600681526020016552454349504560d01b81525081600090816200008d9190620002e3565b5060016200009c8282620002e3565b5050506001600160a01b038116620000cf57604051631e4fbdf760e01b8152600060048201526024015b60405180910390fd5b620000da816200012b565b5060016008556001600160a01b038216620000f65733620000f8565b815b600b80546001600160a01b0319166001600160a01b039290921691909117905562000123816200017d565b5050620003af565b600780546001600160a01b038381166001600160a01b0319831681179093556040519116919082907f8be0079c531659141344cd1fd0a4f28419497f9722a3daafe3b4186f6b6457e090600090a35050565b62000187620001cf565b6103e8811115620001ca5760405162461bcd60e51b815260206004820152600c60248201526b08ccaca40e8dede40d0d2ced60a31b6044820152606401620000c6565b600a55565b6007546001600160a01b03163314620001fe5760405163118cdaa760e01b8152336004820152602401620000c6565b565b600080604083850312156200021457600080fd5b82516001600160a01b03811681146200022c57600080fd5b6020939093015192949293505050565b634e487b7160e01b600052604160045260246000fd5b600181811c908216806200026757607f821691505b6020821081036200028857634e487b7160e01b600052602260045260246000fd5b50919050565b601f821115620002de576000816000526020600020601f850160051c81016020861015620002b95750805b601f850160051c820191505b81811015620002da57828155600101620002c5565b5050505b505050565b81516001600160401b03811115620002ff57620002ff6200023c565b620003178162000310845462000252565b846200028e565b602080601f8311600181146200034f5760008415620003365750858301515b600019600386901b1c1916600185901b178555620002da565b600085815260208120601f198616915b8281101562000380578886015182559484019460019091019084016200035f565b50858210156200039f5787850151600019600388901b60f8161c191681555b5050505050600190811b01905550565b61442480620003bf6000396000f3fe6080604052600436106102725760003560e01c80635f3089581161014f578063b1888649116100c1578063de58af971161007a578063de58af97146107a9578063e0391b09146107be578063e74b981b146107e1578063e985e9c514610801578063f2fde38b14610821578063febdcfe51461084157600080fd5b8063b1888649146106f4578063b2733b3914610709578063b504871214610729578063b88d4fde14610749578063c87b56dd14610769578063d1bebff61461078957600080fd5b80638d01513c116101135780638d01513c1461063e5780638da5cb5b1461065457806395d89b4114610672578063a02e510714610687578063a22cb465146106a7578063afb70df8146106c757600080fd5b80635f3089581461058c5780636352211e146105b957806370a08231146105d9578063715018a6146105f95780638c308b7f1461060e57600080fd5b80633102f7f5116101e857806343859632116101ac578063438596321461048157806346904840146104bc57806349541015146104dc5780634b068d301461051357806351ed82881461054c57806352de4ee51461055f57600080fd5b80633102f7f5146103ec57806337ecacd81461040c5780634146a0731461042c57806342842e0e1461044157806342966c681461046157600080fd5b806312e8e2c31161023a57806312e8e2c314610348578063191fe1ed1461036857806321c0be521461038c57806322dcd13e146103a157806323b872dd146103b757806330bdb351146103d757600080fd5b806301ffc9a71461027757806306fdde03146102ac578063073f589c146102ce578063081812fc146102ee578063095ea7b314610326575b600080fd5b34801561028357600080fd5b5061029761029236600461382b565b61087a565b60405190151581526020015b60405180910390f35b3480156102b857600080fd5b506102c161088b565b6040516102a39190613898565b3480156102da57600080fd5b506102976102e9366004613957565b61091d565b3480156102fa57600080fd5b5061030e6103093660046139df565b610b0b565b6040516001600160a01b0390911681526020016102a3565b34801561033257600080fd5b50610346610341366004613a0d565b610b34565b005b34801561035457600080fd5b506103466103633660046139df565b610b43565b34801561037457600080fd5b5061037e61271081565b6040519081526020016102a3565b34801561039857600080fd5b50610346610b96565b3480156103ad57600080fd5b5061037e600a5481565b3480156103c357600080fd5b506103466103d2366004613a39565b610c2b565b3480156103e357600080fd5b5060095461037e565b3480156103f857600080fd5b5061037e610407366004613a7a565b610cb6565b34801561041857600080fd5b50610346610427366004613957565b610f50565b34801561043857600080fd5b50610346610fff565b34801561044d57600080fd5b5061034661045c366004613a39565b6110be565b34801561046d57600080fd5b5061034661047c3660046139df565b6110de565b34801561048d57600080fd5b5061029761049c366004613b7a565b601160209081526000928352604080842090915290825290205460ff1681565b3480156104c857600080fd5b50600b5461030e906001600160a01b031681565b3480156104e857600080fd5b506104fc6104f73660046139df565b611223565b6040516102a39b9a99989796959493929190613baa565b34801561051f57600080fd5b5061029761052e366004613c53565b6001600160a01b03166000908152600e602052604090205460ff1690565b61034661055a3660046139df565b61152d565b34801561056b57600080fd5b5061057f61057a366004613c53565b6119e8565b6040516102a39190613cac565b34801561059857600080fd5b5061037e6105a7366004613c53565b60126020526000908152604090205481565b3480156105c557600080fd5b5061030e6105d43660046139df565b611b2d565b3480156105e557600080fd5b5061037e6105f4366004613c53565b611b38565b34801561060557600080fd5b50610346611b80565b34801561061a57600080fd5b50610297610629366004613c53565b600e6020526000908152604090205460ff1681565b34801561064a57600080fd5b5061037e6103e881565b34801561066057600080fd5b506007546001600160a01b031661030e565b34801561067e57600080fd5b506102c1611b94565b34801561069357600080fd5b506103466106a23660046139df565b611ba3565b3480156106b357600080fd5b506103466106c2366004613cd4565b611c97565b3480156106d357600080fd5b506106e76106e2366004613c53565b611ca2565b6040516102a39190613d09565b34801561070057600080fd5b5061057f611fb7565b34801561071557600080fd5b50610346610724366004613e10565b61200e565b34801561073557600080fd5b506103466107443660046139df565b612158565b34801561075557600080fd5b50610346610764366004613e32565b612349565b34801561077557600080fd5b506102c16107843660046139df565b612361565b34801561079557600080fd5b506103466107a4366004613eb2565b612376565b3480156107b557600080fd5b5061037e601481565b3480156107ca57600080fd5b506107d3612470565b6040516102a3929190613eff565b3480156107ed57600080fd5b506103466107fc366004613c53565b612927565b34801561080d57600080fd5b5061029761081c366004614033565b612999565b34801561082d57600080fd5b5061034661083c366004613c53565b6129c7565b34801561084d57600080fd5b5061086161085c366004613c53565b612a02565b6040516102a39d9c9b9a99989796959493929190614061565b600061088582612c14565b92915050565b60606000805461089a90614106565b80601f01602080910402602001604051908101604052809291908181526020018280546108c690614106565b80156109135780601f106108e857610100808354040283529160200191610913565b820191906000526020600020905b8154815290600101906020018083116108f657829003601f168201915b5050505050905090565b336000908152600e602052604081205460ff161561093d57506000610b04565b604080516101a0810182523380825260208083018881528385018890526060840187905260006080850181905260a0850181905260c0850181905260e085018190526001610100860181905261012086018190526101408601829052426101608701819052610180870152938152600d909252939020825181546001600160a01b0319166001600160a01b039091161781559251919291908201906109e29082614188565b50604082015160028201906109f79082614188565b5060608201516003820190610a0c9082614188565b506080820151600482015560a0820151600582015560c0820151600682015560e08201516007820180546101008086015161012087015161014088015161ffff1990941695151561ff001916959095179015159091021763ffff00001916620100009315159390930263ff000000191692909217630100000060ff90931692909202919091179055610160820151600882015561018090910151600990910155336000818152600e602052604090819020805460ff19166001179055517f19b3b1663feeb4f0803db57273db6e140c955aa463583f93cb72d6bae58c549c90610af89087904290614248565b60405180910390a25060015b9392505050565b6000610b1682612c39565b506000828152600460205260409020546001600160a01b0316610885565b610b3f828233612c72565b5050565b610b4b612c7f565b6103e8811115610b915760405162461bcd60e51b815260206004820152600c60248201526b08ccaca40e8dede40d0d2ced60a31b60448201526064015b60405180910390fd5b600a55565b336000908152600e602052604090205460ff16610bc55760405162461bcd60e51b8152600401610b889061426a565b336000818152600d60205260409081902060078101805460ff19166001179055426009820181905591519092917f97050beccc6f829779a2f732aa0e8c731951e423298e8f1f253ac0afa8294a2a91610c2091815260200190565b60405180910390a250565b6001600160a01b038216610c5557604051633250574960e11b815260006004820152602401610b88565b6000610c62838333612cac565b9050836001600160a01b0316816001600160a01b031614610cb0576040516364283d7b60e01b81526001600160a01b0380861660048301526024820184905282166044820152606401610b88565b50505050565b6000610cc0612da5565b336000908152600e602052604090205460ff16610d2857610d266040518060400160405280600e81526020016d20b737b73cb6b7bab99021b432b360911b815250604051806020016040528060008152506040518060200160405280600081525061091d565b505b6014821115610d6c5760405162461bcd60e51b815260206004820152601060248201526f0a4def2c2d8e8f240e8dede40d0d2ced60831b6044820152606401610b88565b60098054906000610d7c836142b7565b9091555050600954610d8e3382612dcf565b610d988185612de9565b604080516101608101825233815260208082018c81528284018c9052606083018b9052608083018a905260a08301899052600060c0840181905260e084018890524261010085015261012084018190526101408401819052858152600c909252929020815181546001600160a01b0319166001600160a01b0390911617815591519091906001820190610e2b9082614188565b5060408201516002820190610e409082614188565b5060608201516003820190610e559082614188565b5060808201516004820190610e6a9082614188565b5060a08201516005820190610e7f9082614188565b5060c0820151600682015560e08201516007820155610100820151600882015561012082015160098201805460ff191691151591909117905561014090910151600a90910155336000908152600d60205260408120600501805491610ee3836142b7565b9091555050336000818152600d60205260409081902042600990910155518291907fed2135a67d054e50956708189d463369432b02751bf4318781d61dce3567f02b90610f31908d90613898565b60405180910390a39050610f456001600855565b979650505050505050565b336000908152600e602052604090205460ff16610f7f5760405162461bcd60e51b8152600401610b889061426a565b336000908152600d6020526040902060018101610f9c8582614188565b5060028101610fab8482614188565b5060038101610fba8382614188565b50426009820181905560405190815233907f97050beccc6f829779a2f732aa0e8c731951e423298e8f1f253ac0afa8294a2a906020015b60405180910390a250505050565b611007612c7f565b600061101b6007546001600160a01b031690565b6001600160a01b03164760405160006040518083038185875af1925050503d8060008114611065576040519150601f19603f3d011682016040523d82523d6000602084013e61106a565b606091505b50509050806110bb5760405162461bcd60e51b815260206004820152601b60248201527f456d657267656e6379207769746864726177616c206661696c656400000000006044820152606401610b88565b50565b6110d983838360405180602001604052806000815250612349565b505050565b336110e882611b2d565b6001600160a01b0316148061110d57503361110282610b0b565b6001600160a01b0316145b80611125575061112561111f82611b2d565b33612999565b61116a5760405162461bcd60e51b81526020600482015260166024820152752737ba1030baba3437b934bd32b2103a3790313ab93760511b6044820152606401610b88565b6000818152600c60205260409020600981015460ff161561118e5761118e82612e39565b6000828152600c6020526040812080546001600160a01b0319168155906111b860018301826137c7565b6111c66002830160006137c7565b6111d46003830160006137c7565b6111e26004830160006137c7565b6111f06005830160006137c7565b50600060068201819055600782018190556008820181905560098201805460ff19169055600a90910155610b3f82612ee9565b600c60205260009081526040902080546001820180546001600160a01b03909216929161124f90614106565b80601f016020809104026020016040519081016040528092919081815260200182805461127b90614106565b80156112c85780601f1061129d576101008083540402835291602001916112c8565b820191906000526020600020905b8154815290600101906020018083116112ab57829003601f168201915b5050505050908060020180546112dd90614106565b80601f016020809104026020016040519081016040528092919081815260200182805461130990614106565b80156113565780601f1061132b57610100808354040283529160200191611356565b820191906000526020600020905b81548152906001019060200180831161133957829003601f168201915b50505050509080600301805461136b90614106565b80601f016020809104026020016040519081016040528092919081815260200182805461139790614106565b80156113e45780601f106113b9576101008083540402835291602001916113e4565b820191906000526020600020905b8154815290600101906020018083116113c757829003601f168201915b5050505050908060040180546113f990614106565b80601f016020809104026020016040519081016040528092919081815260200182805461142590614106565b80156114725780601f1061144757610100808354040283529160200191611472565b820191906000526020600020905b81548152906001019060200180831161145557829003601f168201915b50505050509080600501805461148790614106565b80601f01602080910402602001604051908101604052809291908181526020018280546114b390614106565b80156115005780601f106114d557610100808354040283529160200191611500565b820191906000526020600020905b8154815290600101906020018083116114e357829003601f168201915b505050506006830154600784015460088501546009860154600a90960154949592949193509160ff16908b565b611535612da5565b6000818152600c60205260409020600981015460ff1661158a5760405162461bcd60e51b815260206004820152601060248201526f4e4654206e6f7420666f722073616c6560801b6044820152606401610b88565b80600a01543410156115d55760405162461bcd60e51b8152602060048201526014602482015273125b9cdd59999a58da595b9d081c185e5b595b9d60621b6044820152606401610b88565b60006115e083611b2d565b9050336001600160a01b0382160361163a5760405162461bcd60e51b815260206004820152601760248201527f43616e6e6f742062757920796f7572206f776e204e46540000000000000000006044820152606401610b88565b600a820154600783015460009060649061165490846142d0565b61165e91906142e7565b90506000612710600a548461167391906142d0565b61167d91906142e7565b905060008161168c8486614309565b6116969190614309565b60098701805460ff191690556000600a88015590506116b487612e39565b6116bf853389612f24565b82156117aa5785546040516000916001600160a01b03169085908381818185875af1925050503d8060008114611711576040519150601f19603f3d011682016040523d82523d6000602084013e611716565b606091505b50509050806117675760405162461bcd60e51b815260206004820152601760248201527f526f79616c7479207472616e73666572206661696c65640000000000000000006044820152606401610b88565b865460405185815289916001600160a01b0316907fd4aced6a2fedafdf0ace70b949ff0a9877b479c1cf14ab3d84768281f270c9c79060200160405180910390a3505b811561185557600b546040516000916001600160a01b03169084908381818185875af1925050503d80600081146117fd576040519150601f19603f3d011682016040523d82523d6000602084013e611802565b606091505b50509050806118535760405162461bcd60e51b815260206004820152601c60248201527f506c6174666f726d20666565207472616e73666572206661696c6564000000006044820152606401610b88565b505b6000856001600160a01b03168260405160006040518083038185875af1925050503d80600081146118a2576040519150601f19603f3d011682016040523d82523d6000602084013e6118a7565b606091505b50509050806118f05760405162461bcd60e51b815260206004820152601560248201527414d95b1b195c881c185e5b595b9d0819985a5b1959605a1b6044820152606401610b88565b84341115611989576000336119058734614309565b604051600081818185875af1925050503d8060008114611941576040519150601f19603f3d011682016040523d82523d6000602084013e611946565b606091505b50509050806119875760405162461bcd60e51b815260206004820152600d60248201526c1499599d5b990819985a5b1959609a1b6044820152606401610b88565b505b87336001600160a01b0316876001600160a01b03167ff6ccc0cf89c21c54724ea6ef2ec01da8fe33a1cebe06607e160fd78483eba302886040516119cf91815260200190565b60405180910390a4505050505050506110bb6001600855565b606060006119f583611b38565b905080600003611a15575050604080516000815260208101909152919050565b60008167ffffffffffffffff811115611a3057611a306138ab565b604051908082528060200260200182016040528015611a59578160200160208202803683370190505b50600954909150600060015b828111611b22576040516331a9108f60e11b8152600481018290523090636352211e90602401602060405180830381865afa925050508015611ac4575060408051601f3d908101601f19168201909252611ac19181019061431c565b60015b15611b1057876001600160a01b0316816001600160a01b031603611b0e5781858481518110611af557611af5614339565b602090810291909101015282611b0a816142b7565b9350505b505b80611b1a816142b7565b915050611a65565b509195945050505050565b600061088582612c39565b60006001600160a01b038216611b64576040516322718ad960e21b815260006004820152602401610b88565b506001600160a01b031660009081526003602052604090205490565b611b88612c7f565b611b926000612fd4565b565b60606001805461089a90614106565b33611bad82611b2d565b6001600160a01b031614611bf55760405162461bcd60e51b815260206004820152600f60248201526e2737ba103a37b5b2b71037bbb732b960891b6044820152606401610b88565b6000818152600c60205260409020600981015460ff16611c4a5760405162461bcd60e51b815260206004820152601060248201526f4e4654206e6f7420666f722073616c6560801b6044820152606401610b88565b60098101805460ff191690556000600a820155611c6682612e39565b604051829033907fcf2fc731a404a47e73f7d69b159aa546a5518a6219a33780c682ebaa95666e4490600090a35050565b610b3f338383613026565b611d1f604051806101a0016040528060006001600160a01b03168152602001606081526020016060815260200160608152602001600081526020016000815260200160008152602001600015158152602001600015158152602001600015158152602001600060ff16815260200160008152602001600081525090565b6001600160a01b0382166000908152600e602052604090205460ff16611d575760405162461bcd60e51b8152600401610b889061426a565b6001600160a01b038083166000908152600d602090815260409182902082516101a081019093528054909316825260018301805492939291840191611d9b90614106565b80601f0160208091040260200160405190810160405280929190818152602001828054611dc790614106565b8015611e145780601f10611de957610100808354040283529160200191611e14565b820191906000526020600020905b815481529060010190602001808311611df757829003601f168201915b50505050508152602001600282018054611e2d90614106565b80601f0160208091040260200160405190810160405280929190818152602001828054611e5990614106565b8015611ea65780601f10611e7b57610100808354040283529160200191611ea6565b820191906000526020600020905b815481529060010190602001808311611e8957829003601f168201915b50505050508152602001600382018054611ebf90614106565b80601f0160208091040260200160405190810160405280929190818152602001828054611eeb90614106565b8015611f385780601f10611f0d57610100808354040283529160200191611f38565b820191906000526020600020905b815481529060010190602001808311611f1b57829003601f168201915b5050509183525050600482015460208201526005820154604082015260068201546060820152600782015460ff808216151560808401526101008083048216151560a08501526201000083048216151560c085015263010000009092041660e08301526008830154908201526009909101546101209091015292915050565b6060600f80548060200260200160405190810160405280929190818152602001828054801561091357602002820191906000526020600020905b815481526020019060010190808311611ff1575050505050905090565b3361201883611b2d565b6001600160a01b0316146120605760405162461bcd60e51b815260206004820152600f60248201526e2737ba103a37b5b2b71037bbb732b960891b6044820152606401610b88565b600081116120a45760405162461bcd60e51b815260206004820152601160248201527005072696365206d757374206265203e203607c1b6044820152606401610b88565b6000828152600c60205260409020600981015460ff16156120fc5760405162461bcd60e51b815260206004820152601260248201527113919508185b1c9958591e481b1a5cdd195960721b6044820152606401610b88565b60098101805460ff19166001179055600a810182905561211b836130bd565b604051828152839033907fcc4e2c49e4691d84c728880220112cb4635c11200d1c91215e401744f6a597ee906020015b60405180910390a3505050565b6000818152600260205260409020546001600160a01b03166121af5760405162461bcd60e51b815260206004820152601060248201526f125b9d985b1a59081d1bdad95b881a5960821b6044820152606401610b88565b600081815260116020908152604080832033845290915290205460ff16156122095760405162461bcd60e51b815260206004820152600d60248201526c105b1c9958591e481d9bdd1959609a1b6044820152606401610b88565b6000818152600c60205260408120600601805491612226836142b7565b909155505060008181526011602090815260408083203384528252808320805460ff19166001179055838352600c8252808320546001600160a01b0316808452601290925282208054919261227a836142b7565b90915550506001600160a01b0381166000908152600e602052604090205460ff1615612318576001600160a01b0381166000908152600d602052604081206004018054916122c7836142b7565b90915550506001600160a01b0381166000908152600d602052604081206006018054916122f3836142b7565b90915550506001600160a01b0381166000908152600d60205260409020426009909101555b604051829033907f397208ea016330bff612e9b427f767da913eef4af1825ef102ac6483393170ed90600090a35050565b612354848484610c2b565b610cb03385858585613112565b606061236c82612c39565b506108858261323d565b336000908152600e602052604090205460ff166123a55760405162461bcd60e51b8152600401610b889061426a565b60018160ff1611156123ef5760405162461bcd60e51b8152602060048201526013602482015272496e76616c6964207468656d652076616c756560681b6044820152606401610b88565b336000818152600d602090815260409182902060078101805462ffff0019166101008915150262ff000019161762010000881515021763ff0000001916630100000060ff8816021790554260098201819055925192835292917f97050beccc6f829779a2f732aa0e8c731951e423298e8f1f253ac0afa8294a2a9101610ff1565b60095460609081908067ffffffffffffffff811115612491576124916138ab565b6040519080825280602002602001820160405280156124ba578160200160208202803683370190505b5092508067ffffffffffffffff8111156124d6576124d66138ab565b60405190808252806020026020018201604052801561256f57816020015b61255c60405180610160016040528060006001600160a01b031681526020016060815260200160608152602001606081526020016060815260200160608152602001600081526020016000815260200160008152602001600015158152602001600081525090565b8152602001906001900390816124f45790505b50915060015b818111612921578084612589600183614309565b8151811061259957612599614339565b6020908102919091018101919091526000828152600c82526040908190208151610160810190925280546001600160a01b0316825260018101805492939192918401916125e590614106565b80601f016020809104026020016040519081016040528092919081815260200182805461261190614106565b801561265e5780601f106126335761010080835404028352916020019161265e565b820191906000526020600020905b81548152906001019060200180831161264157829003601f168201915b5050505050815260200160028201805461267790614106565b80601f01602080910402602001604051908101604052809291908181526020018280546126a390614106565b80156126f05780601f106126c5576101008083540402835291602001916126f0565b820191906000526020600020905b8154815290600101906020018083116126d357829003601f168201915b5050505050815260200160038201805461270990614106565b80601f016020809104026020016040519081016040528092919081815260200182805461273590614106565b80156127825780601f1061275757610100808354040283529160200191612782565b820191906000526020600020905b81548152906001019060200180831161276557829003601f168201915b5050505050815260200160048201805461279b90614106565b80601f01602080910402602001604051908101604052809291908181526020018280546127c790614106565b80156128145780601f106127e957610100808354040283529160200191612814565b820191906000526020600020905b8154815290600101906020018083116127f757829003601f168201915b5050505050815260200160058201805461282d90614106565b80601f016020809104026020016040519081016040528092919081815260200182805461285990614106565b80156128a65780601f1061287b576101008083540402835291602001916128a6565b820191906000526020600020905b81548152906001019060200180831161288957829003601f168201915b5050509183525050600682015460208201526007820154604082015260088201546060820152600982015460ff1615156080820152600a9091015460a090910152836128f3600184614309565b8151811061290357612903614339565b60200260200101819052508080612919906142b7565b915050612575565b50509091565b61292f612c7f565b6001600160a01b0381166129775760405162461bcd60e51b815260206004820152600f60248201526e496e76616c6964206164647265737360881b6044820152606401610b88565b600b80546001600160a01b0319166001600160a01b0392909216919091179055565b6001600160a01b03918216600090815260056020908152604080832093909416825291909152205460ff1690565b6129cf612c7f565b6001600160a01b0381166129f957604051631e4fbdf760e01b815260006004820152602401610b88565b6110bb81612fd4565b600d60205260009081526040902080546001820180546001600160a01b039092169291612a2e90614106565b80601f0160208091040260200160405190810160405280929190818152602001828054612a5a90614106565b8015612aa75780601f10612a7c57610100808354040283529160200191612aa7565b820191906000526020600020905b815481529060010190602001808311612a8a57829003601f168201915b505050505090806002018054612abc90614106565b80601f0160208091040260200160405190810160405280929190818152602001828054612ae890614106565b8015612b355780601f10612b0a57610100808354040283529160200191612b35565b820191906000526020600020905b815481529060010190602001808311612b1857829003601f168201915b505050505090806003018054612b4a90614106565b80601f0160208091040260200160405190810160405280929190818152602001828054612b7690614106565b8015612bc35780601f10612b9857610100808354040283529160200191612bc3565b820191906000526020600020905b815481529060010190602001808311612ba657829003601f168201915b505050600484015460058501546006860154600787015460088801546009909801549697939692955090935060ff80821693610100830482169362010000840483169363010000009004909216918d565b60006001600160e01b03198216632483248360e11b148061088557506108858261334e565b6000818152600260205260408120546001600160a01b03168061088557604051637e27328960e01b815260048101849052602401610b88565b6110d9838383600161339e565b6007546001600160a01b03163314611b925760405163118cdaa760e01b8152336004820152602401610b88565b6000828152600260205260408120546001600160a01b0390811690831615612cd957612cd98184866134a4565b6001600160a01b03811615612d1757612cf660008560008061339e565b6001600160a01b038116600090815260036020526040902080546000190190555b6001600160a01b03851615612d46576001600160a01b0385166000908152600360205260409020805460010190555b60008481526002602052604080822080546001600160a01b0319166001600160a01b0389811691821790925591518793918516917fddf252ad1be2c89b69c2b068fc378daa952ba7f163c4a11628f55a4df523b3ef91a4949350505050565b600260085403612dc857604051633ee5aeb560e01b815260040160405180910390fd5b6002600855565b610b3f828260405180602001604052806000815250613508565b6000828152600660205260409020612e018282614188565b506040518281527ff8e1a15aba9398e019f0b49df1a4fde98ee17ae345cb5f6b5e2c27f5033e8ce79060200160405180910390a15050565b600081815260106020526040812054600f8054919291612e5b90600190614309565b81548110612e6b57612e6b614339565b9060005260206000200154905080600f8381548110612e8c57612e8c614339565b6000918252602080832090910192909255828152601090915260409020829055600f805480612ebd57612ebd61434f565b600082815260208082208301600019908101839055909201909255938152601090935250506040812055565b6000612ef86000836000612cac565b90506001600160a01b038116610b3f57604051637e27328960e01b815260048101839052602401610b88565b6001600160a01b038216612f4e57604051633250574960e11b815260006004820152602401610b88565b6000612f5c83836000612cac565b90506001600160a01b038116612f8857604051637e27328960e01b815260048101839052602401610b88565b836001600160a01b0316816001600160a01b031614610cb0576040516364283d7b60e01b81526001600160a01b0380861660048301526024820184905282166044820152606401610b88565b600780546001600160a01b038381166001600160a01b0319831681179093556040519116919082907f8be0079c531659141344cd1fd0a4f28419497f9722a3daafe3b4186f6b6457e090600090a35050565b6001600160a01b03821661305857604051630b61174360e31b81526001600160a01b0383166004820152602401610b88565b6001600160a01b03838116600081815260056020908152604080832094871680845294825291829020805460ff191686151590811790915591519182527f17307eab39ab6107e8899845ad3d59bd9653f200f220920489ca2b5937696c31910161214b565b600f80546001818101835560008390527f8d1108e10bcb7c27dddfc02ed9d693a074039d026cf4ea4240b40f7d581ac80290910183905590546131009190614309565b60009182526010602052604090912055565b6001600160a01b0383163b1561323657604051630a85bd0160e11b81526001600160a01b0384169063150b7a0290613154908890889087908790600401614365565b6020604051808303816000875af192505050801561318f575060408051601f3d908101601f1916820190925261318c918101906143a2565b60015b6131f8573d8080156131bd576040519150601f19603f3d011682016040523d82523d6000602084013e6131c2565b606091505b5080516000036131f057604051633250574960e11b81526001600160a01b0385166004820152602401610b88565b805160208201fd5b6001600160e01b03198116630a85bd0160e11b1461323457604051633250574960e11b81526001600160a01b0385166004820152602401610b88565b505b5050505050565b606061324882612c39565b506000828152600660205260408120805461326290614106565b80601f016020809104026020016040519081016040528092919081815260200182805461328e90614106565b80156132db5780601f106132b0576101008083540402835291602001916132db565b820191906000526020600020905b8154815290600101906020018083116132be57829003601f168201915b5050505050905060006132f960408051602081019091526000815290565b9050805160000361330b575092915050565b81511561333d5780826040516020016133259291906143bf565b60405160208183030381529060405292505050919050565b61334684613520565b949350505050565b60006001600160e01b031982166380ac58cd60e01b148061337f57506001600160e01b03198216635b5e139f60e01b145b8061088557506301ffc9a760e01b6001600160e01b0319831614610885565b80806133b257506001600160a01b03821615155b156134745760006133c284612c39565b90506001600160a01b038316158015906133ee5750826001600160a01b0316816001600160a01b031614155b801561340157506133ff8184612999565b155b1561342a5760405163a9fbf51f60e01b81526001600160a01b0384166004820152602401610b88565b81156134725783856001600160a01b0316826001600160a01b03167f8c5be1e5ebec7d5bd14f71427d1e84f3dd0314c0f7b2291e5b200ac8c7c3b92560405160405180910390a45b505b5050600090815260046020526040902080546001600160a01b0319166001600160a01b0392909216919091179055565b6134af838383613594565b6110d9576001600160a01b0383166134dd57604051637e27328960e01b815260048101829052602401610b88565b60405163177e802f60e01b81526001600160a01b038316600482015260248101829052604401610b88565b61351283836135f7565b6110d9336000858585613112565b606061352b82612c39565b50600061354360408051602081019091526000815290565b905060008151116135635760405180602001604052806000815250610b04565b8061356d8461365c565b60405160200161357e9291906143bf565b6040516020818303038152906040529392505050565b60006001600160a01b038316158015906133465750826001600160a01b0316846001600160a01b031614806135ce57506135ce8484612999565b806133465750506000908152600460205260409020546001600160a01b03908116911614919050565b6001600160a01b03821661362157604051633250574960e11b815260006004820152602401610b88565b600061362f83836000612cac565b90506001600160a01b038116156110d9576040516339e3563760e11b815260006004820152602401610b88565b60606000613669836136ef565b600101905060008167ffffffffffffffff811115613689576136896138ab565b6040519080825280601f01601f1916602001820160405280156136b3576020820181803683370190505b5090508181016020015b600019016f181899199a1a9b1b9c1cb0b131b232b360811b600a86061a8153600a85049450846136bd57509392505050565b60008072184f03e93ff9f4daa797ed6e38ed64bf6a1f0160401b831061372e5772184f03e93ff9f4daa797ed6e38ed64bf6a1f0160401b830492506040015b6d04ee2d6d415b85acef8100000000831061375a576d04ee2d6d415b85acef8100000000830492506020015b662386f26fc10000831061377857662386f26fc10000830492506010015b6305f5e1008310613790576305f5e100830492506008015b61271083106137a457612710830492506004015b606483106137b6576064830492506002015b600a83106108855760010192915050565b5080546137d390614106565b6000825580601f106137e3575050565b601f0160209004906000526020600020908101906110bb91905b8082111561381157600081556001016137fd565b5090565b6001600160e01b0319811681146110bb57600080fd5b60006020828403121561383d57600080fd5b8135610b0481613815565b60005b8381101561386357818101518382015260200161384b565b50506000910152565b60008151808452613884816020860160208601613848565b601f01601f19169290920160200192915050565b602081526000610b04602083018461386c565b634e487b7160e01b600052604160045260246000fd5b600067ffffffffffffffff808411156138dc576138dc6138ab565b604051601f8501601f19908116603f01168101908282118183101715613904576139046138ab565b8160405280935085815286868601111561391d57600080fd5b858560208301376000602087830101525050509392505050565b600082601f83011261394857600080fd5b610b04838335602085016138c1565b60008060006060848603121561396c57600080fd5b833567ffffffffffffffff8082111561398457600080fd5b61399087838801613937565b945060208601359150808211156139a657600080fd5b6139b287838801613937565b935060408601359150808211156139c857600080fd5b506139d586828701613937565b9150509250925092565b6000602082840312156139f157600080fd5b5035919050565b6001600160a01b03811681146110bb57600080fd5b60008060408385031215613a2057600080fd5b8235613a2b816139f8565b946020939093013593505050565b600080600060608486031215613a4e57600080fd5b8335613a59816139f8565b92506020840135613a69816139f8565b929592945050506040919091013590565b600080600080600080600060e0888a031215613a9557600080fd5b873567ffffffffffffffff80821115613aad57600080fd5b613ab98b838c01613937565b985060208a0135915080821115613acf57600080fd5b613adb8b838c01613937565b975060408a0135915080821115613af157600080fd5b613afd8b838c01613937565b965060608a0135915080821115613b1357600080fd5b613b1f8b838c01613937565b955060808a0135915080821115613b3557600080fd5b613b418b838c01613937565b945060a08a0135915080821115613b5757600080fd5b50613b648a828b01613937565b92505060c0880135905092959891949750929550565b60008060408385031215613b8d57600080fd5b823591506020830135613b9f816139f8565b809150509250929050565b6001600160a01b038c16815261016060208201819052600090613bcf8382018e61386c565b90508281036040840152613be3818d61386c565b90508281036060840152613bf7818c61386c565b90508281036080840152613c0b818b61386c565b905082810360a0840152613c1f818a61386c565b60c0840198909852505060e08101949094526101008401929092521515610120830152610140909101529695505050505050565b600060208284031215613c6557600080fd5b8135610b04816139f8565b60008151808452602080850194506020840160005b83811015613ca157815187529582019590820190600101613c85565b509495945050505050565b602081526000610b046020830184613c70565b80358015158114613ccf57600080fd5b919050565b60008060408385031215613ce757600080fd5b8235613cf2816139f8565b9150613d0060208401613cbf565b90509250929050565b60208152613d236020820183516001600160a01b03169052565b600060208301516101a0806040850152613d416101c085018361386c565b91506040850151601f1980868503016060870152613d5f848361386c565b9350606087015191508086850301608087015250613d7d838261386c565b925050608085015160a085015260a085015160c085015260c085015160e085015260e0850151610100613db38187018315159052565b8601519050610120613dc88682018315159052565b8601519050610140613ddd8682018315159052565b8601519050610160613df38682018360ff169052565b860151610180868101919091529095015193019290925250919050565b60008060408385031215613e2357600080fd5b50508035926020909101359150565b60008060008060808587031215613e4857600080fd5b8435613e53816139f8565b93506020850135613e63816139f8565b925060408501359150606085013567ffffffffffffffff811115613e8657600080fd5b8501601f81018713613e9757600080fd5b613ea6878235602084016138c1565b91505092959194509250565b600080600060608486031215613ec757600080fd5b613ed084613cbf565b9250613ede60208501613cbf565b9150604084013560ff81168114613ef457600080fd5b809150509250925092565b60006040808352613f136040840186613c70565b6020848203818601528186518084528284019150828160051b85010183890160005b8381101561402357868303601f19018552815180516001600160a01b03168452610160878201518189870152613f6d8287018261386c565b915050898201518582038b870152613f85828261386c565b91505060608083015186830382880152613f9f838261386c565b9250505060808083015186830382880152613fba838261386c565b9250505060a08083015186830382880152613fd5838261386c565b60c0858101519089015260e080860151908901526101008086015190890152610120808601511515908901526101409485015194909701939093525050509385019390850190600101613f35565b50909a9950505050505050505050565b6000806040838503121561404657600080fd5b8235614051816139f8565b91506020830135613b9f816139f8565b6001600160a01b038e1681526101a0602082018190526000906140869083018f61386c565b8281036040840152614098818f61386c565b905082810360608401526140ac818e61386c565b9150508a60808301528960a08301528860c08301526140cf60e083018915159052565b95151561010082015293151561012085015260ff929092166101408401526101608301526101809091015298975050505050505050565b600181811c9082168061411a57607f821691505b60208210810361413a57634e487b7160e01b600052602260045260246000fd5b50919050565b601f8211156110d9576000816000526020600020601f850160051c810160208610156141695750805b601f850160051c820191505b8181101561323457828155600101614175565b815167ffffffffffffffff8111156141a2576141a26138ab565b6141b6816141b08454614106565b84614140565b602080601f8311600181146141eb57600084156141d35750858301515b600019600386901b1c1916600185901b178555613234565b600085815260208120601f198616915b8281101561421a578886015182559484019460019091019084016141fb565b50858210156142385787850151600019600388901b60f8161c191681555b5050505050600190811b01905550565b60408152600061425b604083018561386c565b90508260208301529392505050565b6020808252601b908201527f436865662070726f66696c6520646f6573206e6f742065786973740000000000604082015260600190565b634e487b7160e01b600052601160045260246000fd5b6000600182016142c9576142c96142a1565b5060010190565b8082028115828204841417610885576108856142a1565b60008261430457634e487b7160e01b600052601260045260246000fd5b500490565b81810381811115610885576108856142a1565b60006020828403121561432e57600080fd5b8151610b04816139f8565b634e487b7160e01b600052603260045260246000fd5b634e487b7160e01b600052603160045260246000fd5b6001600160a01b03858116825284166020820152604081018390526080606082018190526000906143989083018461386c565b9695505050505050565b6000602082840312156143b457600080fd5b8151610b0481613815565b600083516143d1818460208801613848565b8351908301906143e5818360208801613848565b0194935050505056fea264697066735822122036f6382145c9ceb23048d3e310e54fd6a0ab06a869f875580db227308eeeb82364736f6c63430008170033",
  "linkReferences": {},
  "deployedLinkReferences": {}
}