{"contracts/RecipeBook.sol":{"RecipeBook":{"abi":[{"inputs":[{"internalType":"address","name":"_feeRecipient","type":"address"},{"internalType":"uint256","name":"_initialPlatformFeeBps","type":"uint256"}],"stateMutability":"nonpayable","type":"constructor"},{"inputs":[{"internalType":"address","name":"sender","type":"address"},{"internalType":"uint256","name":"tokenId","type":"uint256"},{"internalType":"address","name":"owner","type":"address"}],"name":"ERC721IncorrectOwner","type":"error"},{"inputs":[{"internalType":"address","name":"operator","type":"address"},{"internalType":"uint256","name":"tokenId","type":"uint256"}],"name":"ERC721InsufficientApproval","type":"error"},{"inputs":[{"internalType":"address","name":"approver","type":"address"}],"name":"ERC721InvalidApprover","type":"error"},{"inputs":[{"internalType":"address","name":"operator","type":"address"}],"name":"ERC721InvalidOperator","type":"error"},{"inputs":[{"internalType":"address","name":"owner","type":"address"}],"name":"ERC721InvalidOwner","type":"error"},{"inputs":[{"internalType":"address","name":"receiver","type":"address"}],"name":"ERC721InvalidReceiver","type":"error"},{"inputs":[{"internalType":"address","name":"sender","type":"address"}],"name":"ERC721InvalidSender","type":"error"},{"inputs":[{"internalType":"uint256","name":"tokenId","type":"uint256"}],"name":"ERC721NonexistentToken","type":"error"},{"inputs":[{"internalType":"address","name":"owner","type":"address"}],"name":"OwnableInvalidOwner","type":"error"},{"inputs":[{"internalType":"address","name":"account","type":"address"}],"name":"OwnableUnauthorizedAccount","type":"error"},{"inputs":[],"name":"ReentrancyGuardReentrantCall","type":"error"},{"anonymous":false,"inputs":[{"indexed":true,"internalType":"address","name":"owner","type":"address"},{"indexed":true,"internalType":"address","name":"approved","type":"address"},{"indexed":true,"internalType":"uint256","name":"tokenId","type":"uint256"}],"name":"Approval","type":"event"},{"anonymous":false,"inputs":[{"indexed":true,"internalType":"address","name":"owner","type":"address"},{"indexed":true,"internalType":"address","name":"operator","type":"address"},{"indexed":false,"internalType":"bool","name":"approved","type":"bool"}],"name":"ApprovalForAll","type":"event"},{"anonymous":false,"inputs":[{"indexed":false,"internalType":"uint256","name":"_fromTokenId","type":"uint256"},{"indexed":false,"internalType":"uint256","name":"_toTokenId","type":"uint256"}],"name":"BatchMetadataUpdate","type":"event"},{"anonymous":false,"inputs":[{"indexed":false,"internalType":"uint256","name":"_tokenId","type":"uint256"}],"name":"MetadataUpdate","type":"event"},{"anonymous":false,"inputs":[{"indexed":true,"internalType":"address","name":"owner","type":"address"},{"indexed":true,"internalType":"uint256","name":"tokenId","type":"uint256"},{"indexed":false,"internalType":"uint256","name":"price","type":"uint256"}],"name":"NFTListedForSale","type":"event"},{"anonymous":false,"inputs":[{"indexed":true,"internalType":"address","name":"creator","type":"address"},{"indexed":true,"internalType":"uint256","name":"tokenId","type":"uint256"},{"indexed":true,"internalType":"uint256","name":"recipeId","type":"uint256"},{"indexed":false,"internalType":"uint256","name":"mintPrice","type":"uint256"}],"name":"NFTMinted","type":"event"},{"anonymous":false,"inputs":[{"indexed":true,"internalType":"address","name":"owner","type":"address"},{"indexed":true,"internalType":"uint256","name":"tokenId","type":"uint256"}],"name":"NFTRemovedFromSale","type":"event"},{"anonymous":false,"inputs":[{"indexed":true,"internalType":"address","name":"seller","type":"address"},{"indexed":true,"internalType":"address","name":"buyer","type":"address"},{"indexed":true,"internalType":"uint256","name":"tokenId","type":"uint256"},{"indexed":false,"internalType":"uint256","name":"price","type":"uint256"}],"name":"NFTSold","type":"event"},{"anonymous":false,"inputs":[{"indexed":true,"internalType":"address","name":"previousOwner","type":"address"},{"indexed":true,"internalType":"address","name":"newOwner","type":"address"}],"name":"OwnershipTransferred","type":"event"},{"anonymous":false,"inputs":[{"indexed":true,"internalType":"address","name":"creator","type":"address"},{"indexed":false,"internalType":"uint256","name":"recipeId","type":"uint256"},{"indexed":false,"internalType":"string","name":"title","type":"string"}],"name":"RecipeSubmitted","type":"event"},{"anonymous":false,"inputs":[{"indexed":true,"internalType":"address","name":"voter","type":"address"},{"indexed":false,"internalType":"uint256","name":"recipeId","type":"uint256"}],"name":"RecipeVoted","type":"event"},{"anonymous":false,"inputs":[{"indexed":true,"internalType":"address","name":"recipient","type":"address"},{"indexed":false,"internalType":"uint256","name":"amount","type":"uint256"},{"indexed":true,"internalType":"uint256","name":"tokenId","type":"uint256"}],"name":"RoyaltyPaid","type":"event"},{"anonymous":false,"inputs":[{"indexed":true,"internalType":"address","name":"from","type":"address"},{"indexed":true,"internalType":"address","name":"to","type":"address"},{"indexed":true,"internalType":"uint256","name":"tokenId","type":"uint256"}],"name":"Transfer","type":"event"},{"inputs":[],"name":"BPS_DIVISOR","outputs":[{"internalType":"uint256","name":"","type":"uint256"}],"stateMutability":"view","type":"function"},{"inputs":[],"name":"MAX_PLATFORM_FEE_BPS","outputs":[{"internalType":"uint256","name":"","type":"uint256"}],"stateMutability":"view","type":"function"},{"inputs":[],"name":"MAX_ROYALTY_PERCENT","outputs":[{"internalType":"uint256","name":"","type":"uint256"}],"stateMutability":"view","type":"function"},{"inputs":[{"internalType":"address","name":"to","type":"address"},{"internalType":"uint256","name":"tokenId","type":"uint256"}],"name":"approve","outputs":[],"stateMutability":"nonpayable","type":"function"},{"inputs":[{"internalType":"address","name":"owner","type":"address"}],"name":"balanceOf","outputs":[{"internalType":"uint256","name":"","type":"uint256"}],"stateMutability":"view","type":"function"},{"inputs":[{"internalType":"uint256","name":"tokenId","type":"uint256"}],"name":"burn","outputs":[],"stateMutability":"nonpayable","type":"function"},{"inputs":[{"internalType":"uint256","name":"_tokenId","type":"uint256"}],"name":"buyNFT","outputs":[],"stateMutability":"payable","type":"function"},{"inputs":[],"name":"feeRecipient","outputs":[{"internalType":"address","name":"","type":"address"}],"stateMutability":"view","type":"function"},{"inputs":[{"internalType":"uint256","name":"tokenId","type":"uint256"}],"name":"getApproved","outputs":[{"internalType":"address","name":"","type":"address"}],"stateMutability":"view","type":"function"},{"inputs":[],"name":"getNFTsForSale","outputs":[{"internalType":"uint256[]","name":"","type":"uint256[]"}],"stateMutability":"view","type":"function"},{"inputs":[],"name":"getTotalNFTs","outputs":[{"internalType":"uint256","name":"","type":"uint256"}],"stateMutability":"view","type":"function"},{"inputs":[],"name":"getTotalRecipes","outputs":[{"internalType":"uint256","name":"","type":"uint256"}],"stateMutability":"view","type":"function"},{"inputs":[{"internalType":"address","name":"user","type":"address"}],"name":"getUserNFTs","outputs":[{"internalType":"uint256[]","name":"","type":"uint256[]"}],"stateMutability":"view","type":"function"},{"inputs":[{"internalType":"uint256","name":"","type":"uint256"},{"internalType":"address","name":"","type":"address"}],"name":"hasVoted","outputs":[{"internalType":"bool","name":"","type":"bool"}],"stateMutability":"view","type":"function"},{"inputs":[{"internalType":"address","name":"owner","type":"address"},{"internalType":"address","name":"operator","type":"address"}],"name":"isApprovedForAll","outputs":[{"internalType":"bool","name":"","type":"bool"}],"stateMutability":"view","type":"function"},{"inputs":[{"internalType":"uint256","name":"_tokenId","type":"uint256"},{"internalType":"uint256","name":"_price","type":"uint256"}],"name":"listNFTForSale","outputs":[],"stateMutability":"nonpayable","type":"function"},{"inputs":[{"internalType":"uint256","name":"_recipeId","type":"uint256"},{"internalType":"uint256","name":"_mintPrice","type":"uint256"},{"internalType":"uint256","name":"_royaltyPercent","type":"uint256"},{"internalType":"string","name":"_description","type":"string"},{"internalType":"string","name":"_tokenURI","type":"string"}],"name":"mintRecipeNFT","outputs":[{"internalType":"uint256","name":"","type":"uint256"}],"stateMutability":"payable","type":"function"},{"inputs":[],"name":"name","outputs":[{"internalType":"string","name":"","type":"string"}],"stateMutability":"view","type":"function"},{"inputs":[{"internalType":"uint256","name":"","type":"uint256"}],"name":"nftMetadata","outputs":[{"internalType":"uint256","name":"recipeId","type":"uint256"},{"internalType":"address","name":"creator","type":"address"},{"internalType":"uint256","name":"mintPrice","type":"uint256"},{"internalType":"uint256","name":"royaltyPercent","type":"uint256"},{"internalType":"string","name":"description","type":"string"},{"internalType":"uint256","name":"mintedAt","type":"uint256"},{"internalType":"bool","name":"isForSale","type":"bool"},{"internalType":"uint256","name":"salePrice","type":"uint256"}],"stateMutability":"view","type":"function"},{"inputs":[],"name":"owner","outputs":[{"internalType":"address","name":"","type":"address"}],"stateMutability":"view","type":"function"},{"inputs":[{"internalType":"uint256","name":"tokenId","type":"uint256"}],"name":"ownerOf","outputs":[{"internalType":"address","name":"","type":"address"}],"stateMutability":"view","type":"function"},{"inputs":[],"name":"platformFeeBps","outputs":[{"internalType":"uint256","name":"","type":"uint256"}],"stateMutability":"view","type":"function"},{"inputs":[{"internalType":"uint256","name":"","type":"uint256"}],"name":"recipeToNFT","outputs":[{"internalType":"uint256","name":"","type":"uint256"}],"stateMutability":"view","type":"function"},{"inputs":[{"internalType":"uint256","name":"","type":"uint256"}],"name":"recipes","outputs":[{"internalType":"uint256","name":"id","type":"uint256"},{"internalType":"address","name":"creator","type":"address"},{"internalType":"string","name":"title","type":"string"},{"internalType":"string","name":"ingredients","type":"string"},{"internalType":"string","name":"instructions","type":"string"},{"internalType":"string","name":"imageURL","type":"string"},{"internalType":"uint256","name":"votes","type":"uint256"},{"internalType":"uint256","name":"timestamp","type":"uint256"},{"internalType":"bool","name":"isNFT","type":"bool"},{"internalType":"uint256","name":"nftTokenId","type":"uint256"}],"stateMutability":"view","type":"function"},{"inputs":[{"internalType":"uint256","name":"_tokenId","type":"uint256"}],"name":"removeNFTFromSale","outputs":[],"stateMutability":"nonpayable","type":"function"},{"inputs":[],"name":"renounceOwnership","outputs":[],"stateMutability":"nonpayable","type":"function"},{"inputs":[{"internalType":"address","name":"from","type":"address"},{"internalType":"address","name":"to","type":"address"},{"internalType":"uint256","name":"tokenId","type":"uint256"}],"name":"safeTransferFrom","outputs":[],"stateMutability":"nonpayable","type":"function"},{"inputs":[{"internalType":"address","name":"from","type":"address"},{"internalType":"address","name":"to","type":"address"},{"internalType":"uint256","name":"tokenId","type":"uint256"},{"internalType":"bytes","name":"data","type":"bytes"}],"name":"safeTransferFrom","outputs":[],"stateMutability":"nonpayable","type":"function"},{"inputs":[{"internalType":"address","name":"operator","type":"address"},{"internalType":"bool","name":"approved","type":"bool"}],"name":"setApprovalForAll","outputs":[],"stateMutability":"nonpayable","type":"function"},{"inputs":[{"internalType":"address","name":"_recipient","type":"address"}],"name":"setFeeRecipient","outputs":[],"stateMutability":"nonpayable","type":"function"},{"inputs":[{"internalType":"uint256","name":"_feeBps","type":"uint256"}],"name":"setPlatformFee","outputs":[],"stateMutability":"nonpayable","type":"function"},{"inputs":[{"internalType":"string","name":"_title","type":"string"},{"internalType":"string","name":"_ingredients","type":"string"},{"internalType":"string","name":"_instructions","type":"string"},{"internalType":"string","name":"_imageURL","type":"string"}],"name":"submitRecipe","outputs":[{"internalType":"uint256","name":"","type":"uint256"}],"stateMutability":"nonpayable","type":"function"},{"inputs":[{"internalType":"bytes4","name":"interfaceId","type":"bytes4"}],"name":"supportsInterface","outputs":[{"internalType":"bool","name":"","type":"bool"}],"stateMutability":"view","type":"function"},{"inputs":[],"name":"symbol","outputs":[{"internalType":"string","name":"","type":"string"}],"stateMutability":"view","type":"function"},{"inputs":[{"internalType":"uint256","name":"tokenId","type":"uint256"}],"name":"tokenURI","outputs":[{"internalType":"string","name":"","type":"string"}],"stateMutability":"view","type":"function"},{"inputs":[{"internalType":"address","name":"from","type":"address"},{"internalType":"address","name":"to","type":"address"},{"internalType":"uint256","name":"tokenId","type":"uint256"}],"name":"transferFrom","outputs":[],"stateMutability":"nonpayable","type":"function"},{"inputs":[{"internalType":"address","name":"newOwner","type":"address"}],"name":"transferOwnership","outputs":[],"stateMutability":"nonpayable","type":"function"},{"inputs":[{"internalType":"address","name":"","type":"address"}],"name":"userReputation","outputs":[{"internalType":"uint256","name":"","type":"uint256"}],"stateMutability":"view","type":"function"},{"inputs":[{"internalType":"uint256","name":"_recipeId","type":"uint256"}],"name":"voteRecipe","outputs":[],"stateMutability":"nonpayable","type":"function"},{"inputs":[],"name":"withdrawEmergency","outputs":[],"stateMutability":"nonpayable","type":"function"}],"evm":{"bytecode":{"linkReferences":{},"object":"60806040523480156200001157600080fd5b506040516200380d3803806200380d833981016040819052620000349162000200565b336040518060400160405280600f81526020016e149958da5c1948109bdbdac8139195608a1b8152506040518060400160405280600681526020016552454349504560d01b81525081600090816200008d9190620002e3565b5060016200009c8282620002e3565b5050506001600160a01b038116620000cf57604051631e4fbdf760e01b8152600060048201526024015b60405180910390fd5b620000da816200012b565b5060016008556001600160a01b038216620000f65733620000f8565b815b600c80546001600160a01b0319166001600160a01b039290921691909117905562000123816200017d565b5050620003af565b600780546001600160a01b038381166001600160a01b0319831681179093556040519116919082907f8be0079c531659141344cd1fd0a4f28419497f9722a3daafe3b4186f6b6457e090600090a35050565b62000187620001cf565b6103e8811115620001ca5760405162461bcd60e51b815260206004820152600c60248201526b08ccaca40e8dede40d0d2ced60a31b6044820152606401620000c6565b600b55565b6007546001600160a01b03163314620001fe5760405163118cdaa760e01b8152336004820152602401620000c6565b565b600080604083850312156200021457600080fd5b82516001600160a01b03811681146200022c57600080fd5b6020939093015192949293505050565b634e487b7160e01b600052604160045260246000fd5b600181811c908216806200026757607f821691505b6020821081036200028857634e487b7160e01b600052602260045260246000fd5b50919050565b601f821115620002de576000816000526020600020601f850160051c81016020861015620002b95750805b601f850160051c820191505b81811015620002da57828155600101620002c5565b5050505b505050565b81516001600160401b03811115620002ff57620002ff6200023c565b620003178162000310845462000252565b846200028e565b602080601f8311600181146200034f5760008415620003365750858301515b600019600386901b1c1916600185901b178555620002da565b600085815260208120601f198616915b8281101562000380578886015182559484019460019091019084016200035f565b50858210156200039f5787850151600019600388901b60f8161c191681555b5050505050600190811b01905550565b61344e80620003bf6000396000f3fe60806040526004361061023b5760003560e01c8063699543451161012e578063b2733b39116100ab578063e503bb051161006f578063e503bb05146106a6578063e74b981b146106d3578063e985e9c5146106f3578063f2fde38b14610713578063f8fdcc211461073357600080fd5b8063b2733b391461061e578063b88d4fde1461063e578063c01f0b8e1461065e578063c87b56dd14610671578063de58af971461069157600080fd5b80638da5cb5b116100f25780638da5cb5b1461059657806395d89b41146105b4578063a02e5107146105c9578063a22cb465146105e9578063b18886491461060957600080fd5b8063699543451461050b57806370a082311461052b578063715018a61461054b578063815d8f94146105605780638d01513c1461058057600080fd5b80634146a073116101bc57806346904840116101805780634690484014610457578063495410151461047757806351ed8288146104ab57806352de4ee5146104be5780636352211e146104eb57600080fd5b80634146a0731461039157806342842e0e146103a657806342966c68146103c657806343859632146103e6578063443c227c1461042157600080fd5b80631650ac6d116102035780631650ac6d14610311578063191fe1ed1461033057806322dcd13e1461034657806323b872dd1461035c57806330bdb3511461037c57600080fd5b806301ffc9a71461024057806306fdde0314610275578063081812fc14610297578063095ea7b3146102cf57806312e8e2c3146102f1575b600080fd5b34801561024c57600080fd5b5061026061025b366004612c0b565b610760565b60405190151581526020015b60405180910390f35b34801561028157600080fd5b5061028a610771565b60405161026c9190612c78565b3480156102a357600080fd5b506102b76102b2366004612c8b565b610803565b6040516001600160a01b03909116815260200161026c565b3480156102db57600080fd5b506102ef6102ea366004612cb9565b61082c565b005b3480156102fd57600080fd5b506102ef61030c366004612c8b565b61083b565b34801561031d57600080fd5b506009545b60405190815260200161026c565b34801561033c57600080fd5b5061032261271081565b34801561035257600080fd5b50610322600b5481565b34801561036857600080fd5b506102ef610377366004612ce5565b61088e565b34801561038857600080fd5b50600a54610322565b34801561039d57600080fd5b506102ef610919565b3480156103b257600080fd5b506102ef6103c1366004612ce5565b6109d8565b3480156103d257600080fd5b506102ef6103e1366004612c8b565b6109f8565b3480156103f257600080fd5b50610260610401366004612d26565b601260209081526000928352604080842090915290825290205460ff1681565b34801561042d57600080fd5b5061044161043c366004612c8b565b610b40565b60405161026c9a99989796959493929190612d56565b34801561046357600080fd5b50600c546102b7906001600160a01b031681565b34801561048357600080fd5b50610497610492366004612c8b565b610dbe565b60405161026c989796959493929190612de9565b6102ef6104b9366004612c8b565b610e99565b3480156104ca57600080fd5b506104de6104d9366004612e3e565b61135a565b60405161026c9190612e5b565b3480156104f757600080fd5b506102b7610506366004612c8b565b61149f565b34801561051757600080fd5b506102ef610526366004612c8b565b6114aa565b34801561053757600080fd5b50610322610546366004612e3e565b611605565b34801561055757600080fd5b506102ef61164d565b34801561056c57600080fd5b5061032261057b366004612f4b565b611661565b34801561058c57600080fd5b506103226103e881565b3480156105a257600080fd5b506007546001600160a01b03166102b7565b3480156105c057600080fd5b5061028a6117d0565b3480156105d557600080fd5b506102ef6105e4366004612c8b565b6117df565b3480156105f557600080fd5b506102ef610604366004612ff8565b6118d3565b34801561061557600080fd5b506104de6118de565b34801561062a57600080fd5b506102ef61063936600461302b565b611935565b34801561064a57600080fd5b506102ef61065936600461304d565b611a7f565b61032261066c3660046130c1565b611a97565b34801561067d57600080fd5b5061028a61068c366004612c8b565b611f03565b34801561069d57600080fd5b50610322601481565b3480156106b257600080fd5b506103226106c1366004612e3e565b60136020526000908152604090205481565b3480156106df57600080fd5b506102ef6106ee366004612e3e565b611f18565b3480156106ff57600080fd5b5061026061070e366004613142565b611f8a565b34801561071f57600080fd5b506102ef61072e366004612e3e565b611fb8565b34801561073f57600080fd5b5061032261074e366004612c8b565b600f6020526000908152604090205481565b600061076b82611ff3565b92915050565b60606000805461078090613170565b80601f01602080910402602001604051908101604052809291908181526020018280546107ac90613170565b80156107f95780601f106107ce576101008083540402835291602001916107f9565b820191906000526020600020905b8154815290600101906020018083116107dc57829003601f168201915b5050505050905090565b600061080e82612018565b506000828152600460205260409020546001600160a01b031661076b565b610837828233612051565b5050565b61084361205e565b6103e88111156108895760405162461bcd60e51b815260206004820152600c60248201526b08ccaca40e8dede40d0d2ced60a31b60448201526064015b60405180910390fd5b600b55565b6001600160a01b0382166108b857604051633250574960e11b815260006004820152602401610880565b60006108c583833361208b565b9050836001600160a01b0316816001600160a01b031614610913576040516364283d7b60e01b81526001600160a01b0380861660048301526024820184905282166044820152606401610880565b50505050565b61092161205e565b60006109356007546001600160a01b031690565b6001600160a01b03164760405160006040518083038185875af1925050503d806000811461097f576040519150601f19603f3d011682016040523d82523d6000602084013e610984565b606091505b50509050806109d55760405162461bcd60e51b815260206004820152601b60248201527f456d657267656e6379207769746864726177616c206661696c656400000000006044820152606401610880565b50565b6109f383838360405180602001604052806000815250611a7f565b505050565b33610a028261149f565b6001600160a01b03161480610a27575033610a1c82610803565b6001600160a01b0316145b80610a3f5750610a3f610a398261149f565b33611f8a565b610a845760405162461bcd60e51b81526020600482015260166024820152752737ba1030baba3437b934bd32b2103a3790313ab93760511b6044820152606401610880565b6000818152600e60205260409020600681015460ff1615610aa857610aa882612184565b80548015610adc576000818152600d6020908152604080832060088101805460ff19169055600901839055600f9091528120555b6000838152600e602052604081208181556001810180546001600160a01b0319169055600281018290556003810182905590610b1b6004830182612ba7565b5060006005820181905560068201805460ff191690556007909101556109f383612234565b600d6020526000908152604090208054600182015460028301805492936001600160a01b0390921692610b7290613170565b80601f0160208091040260200160405190810160405280929190818152602001828054610b9e90613170565b8015610beb5780601f10610bc057610100808354040283529160200191610beb565b820191906000526020600020905b815481529060010190602001808311610bce57829003601f168201915b505050505090806003018054610c0090613170565b80601f0160208091040260200160405190810160405280929190818152602001828054610c2c90613170565b8015610c795780601f10610c4e57610100808354040283529160200191610c79565b820191906000526020600020905b815481529060010190602001808311610c5c57829003601f168201915b505050505090806004018054610c8e90613170565b80601f0160208091040260200160405190810160405280929190818152602001828054610cba90613170565b8015610d075780601f10610cdc57610100808354040283529160200191610d07565b820191906000526020600020905b815481529060010190602001808311610cea57829003601f168201915b505050505090806005018054610d1c90613170565b80601f0160208091040260200160405190810160405280929190818152602001828054610d4890613170565b8015610d955780601f10610d6a57610100808354040283529160200191610d95565b820191906000526020600020905b815481529060010190602001808311610d7857829003601f168201915b5050506006840154600785015460088601546009909601549495919490935060ff90911691508a565b600e602052600090815260409020805460018201546002830154600384015460048501805494956001600160a01b039094169492939192610dfe90613170565b80601f0160208091040260200160405190810160405280929190818152602001828054610e2a90613170565b8015610e775780601f10610e4c57610100808354040283529160200191610e77565b820191906000526020600020905b815481529060010190602001808311610e5a57829003601f168201915b50505050600583015460068401546007909401549293909260ff909116915088565b610ea161226f565b6000818152600e60205260409020600681015460ff16610ef65760405162461bcd60e51b815260206004820152601060248201526f4e4654206e6f7420666f722073616c6560801b6044820152606401610880565b8060070154341015610f415760405162461bcd60e51b8152602060048201526014602482015273125b9cdd59999a58da595b9d081c185e5b595b9d60621b6044820152606401610880565b6000610f4c8361149f565b9050336001600160a01b03821603610fa65760405162461bcd60e51b815260206004820152601760248201527f43616e6e6f742062757920796f7572206f776e204e46540000000000000000006044820152606401610880565b60078201546003830154600090606490610fc090846131c0565b610fca91906131d7565b90506000612710600b5484610fdf91906131c0565b610fe991906131d7565b9050600081610ff884866131f9565b61100291906131f9565b60068701805460ff1916905560006007880155905061102087612184565b61102b853389612299565b821561111c5760018601546040516000916001600160a01b03169085908381818185875af1925050503d8060008114611080576040519150601f19603f3d011682016040523d82523d6000602084013e611085565b606091505b50509050806110d65760405162461bcd60e51b815260206004820152601760248201527f526f79616c7479207472616e73666572206661696c65640000000000000000006044820152606401610880565b600187015460405185815289916001600160a01b0316907fd4aced6a2fedafdf0ace70b949ff0a9877b479c1cf14ab3d84768281f270c9c79060200160405180910390a3505b81156111c757600c546040516000916001600160a01b03169084908381818185875af1925050503d806000811461116f576040519150601f19603f3d011682016040523d82523d6000602084013e611174565b606091505b50509050806111c55760405162461bcd60e51b815260206004820152601c60248201527f506c6174666f726d20666565207472616e73666572206661696c6564000000006044820152606401610880565b505b6000856001600160a01b03168260405160006040518083038185875af1925050503d8060008114611214576040519150601f19603f3d011682016040523d82523d6000602084013e611219565b606091505b50509050806112625760405162461bcd60e51b815260206004820152601560248201527414d95b1b195c881c185e5b595b9d0819985a5b1959605a1b6044820152606401610880565b843411156112fb5760003361127787346131f9565b604051600081818185875af1925050503d80600081146112b3576040519150601f19603f3d011682016040523d82523d6000602084013e6112b8565b606091505b50509050806112f95760405162461bcd60e51b815260206004820152600d60248201526c1499599d5b990819985a5b1959609a1b6044820152606401610880565b505b87336001600160a01b0316876001600160a01b03167ff6ccc0cf89c21c54724ea6ef2ec01da8fe33a1cebe06607e160fd78483eba3028860405161134191815260200190565b60405180910390a4505050505050506109d56001600855565b6060600061136783611605565b905080600003611387575050604080516000815260208101909152919050565b60008167ffffffffffffffff8111156113a2576113a2612e9f565b6040519080825280602002602001820160405280156113cb578160200160208202803683370190505b50600a54909150600060015b828111611494576040516331a9108f60e11b8152600481018290523090636352211e90602401602060405180830381865afa925050508015611436575060408051601f3d908101601f191682019092526114339181019061320c565b60015b1561148257876001600160a01b0316816001600160a01b031603611480578185848151811061146757611467613229565b60209081029190910101528261147c8161323f565b9350505b505b8061148c8161323f565b9150506113d7565b509195945050505050565b600061076b82612018565b6000818152600d602052604081205490036114fb5760405162461bcd60e51b8152602060048201526011602482015270125b9d985b1a59081c9958da5c19481a59607a1b6044820152606401610880565b600081815260126020908152604080832033845290915290205460ff16156115555760405162461bcd60e51b815260206004820152600d60248201526c105b1c9958591e481d9bdd1959609a1b6044820152606401610880565b6000818152600d602052604081206006018054916115728361323f565b909155505060008181526012602090815260408083203384528252808320805460ff19166001908117909155848452600d835281842001546001600160a01b03168352601390915281208054916115c88361323f565b909155505060405181815233907f397208ea016330bff612e9b427f767da913eef4af1825ef102ac6483393170ed9060200160405180910390a250565b60006001600160a01b038216611631576040516322718ad960e21b815260006004820152602401610880565b506001600160a01b031660009081526003602052604090205490565b61165561205e565b61165f6000612349565b565b60098054600091826116728361323f565b909155505060095460408051610140810182528281523360208083019182528284018a8152606084018a90526080840189905260a08401889052600060c085018190524260e086015261010085018190526101208501819052868152600d9092529390208251815590516001820180546001600160a01b0319166001600160a01b039092169190911790559151909190600282019061171190826132a0565b506060820151600382019061172690826132a0565b506080820151600482019061173b90826132a0565b5060a0820151600582019061175090826132a0565b5060c0820151600682015560e0820151600782015561010082015160088201805460ff19169115159190911790556101209091015160099091015560405133907ffdfd35c55471f8948976c4fbb76396afeb2623d6cb2b22bf2d2b40f86f6b7fed906117bf9084908a90613360565b60405180910390a295945050505050565b60606001805461078090613170565b336117e98261149f565b6001600160a01b0316146118315760405162461bcd60e51b815260206004820152600f60248201526e2737ba103a37b5b2b71037bbb732b960891b6044820152606401610880565b6000818152600e60205260409020600681015460ff166118865760405162461bcd60e51b815260206004820152601060248201526f4e4654206e6f7420666f722073616c6560801b6044820152606401610880565b60068101805460ff19169055600060078201556118a282612184565b604051829033907fcf2fc731a404a47e73f7d69b159aa546a5518a6219a33780c682ebaa95666e4490600090a35050565b61083733838361239b565b606060108054806020026020016040519081016040528092919081815260200182805480156107f957602002820191906000526020600020905b815481526020019060010190808311611918575050505050905090565b3361193f8361149f565b6001600160a01b0316146119875760405162461bcd60e51b815260206004820152600f60248201526e2737ba103a37b5b2b71037bbb732b960891b6044820152606401610880565b600081116119cb5760405162461bcd60e51b815260206004820152601160248201527005072696365206d757374206265203e203607c1b6044820152606401610880565b6000828152600e60205260409020600681015460ff1615611a235760405162461bcd60e51b815260206004820152601260248201527113919508185b1c9958591e481b1a5cdd195960721b6044820152606401610880565b60068101805460ff1916600117905560078101829055611a4283612432565b604051828152839033907fcc4e2c49e4691d84c728880220112cb4635c11200d1c91215e401744f6a597ee906020015b60405180910390a3505050565b611a8a84848461088e565b6109133385858585612487565b6000611aa161226f565b6000868152600d602052604081208054909103611af45760405162461bcd60e51b8152602060048201526011602482015270125b9d985b1a59081c9958da5c19481a59607a1b6044820152606401610880565b60018101546001600160a01b03163314611b455760405162461bcd60e51b81526020600482015260126024820152712737ba103932b1b4b8329031b932b0ba37b960711b6044820152606401610880565b600881015460ff1615611b9a5760405162461bcd60e51b815260206004820152601c60248201527f52656369706520616c7265616479206d696e746564206173204e4654000000006044820152606401610880565b6014851115611bde5760405162461bcd60e51b815260206004820152601060248201526f0a4def2c2d8e8f240e8dede40d0d2ced60831b6044820152606401610880565b85341015611c255760405162461bcd60e51b8152602060048201526014602482015273125b9cdd59999a58da595b9d081c185e5b595b9d60621b6044820152606401610880565b600a8054906000611c358361323f565b9091555050600a54611c4733826125b2565b611c5181856125cc565b600882018054600160ff1990911681179091556009830182905560408051610100810182528a81523360208083019182528284018c8152606084018c8152608085018c81524260a0870152600060c0870181905260e08701819052898152600e9094529590922084518155925195830180546001600160a01b0319166001600160a01b0390971696909617909555935160028201559251600384015590519091906004820190611d0190826132a0565b5060a0820151600582015560c082015160068201805460ff191691151591909117905560e0909101516007909101556000888152600f602052604090208190553415611ea8576000612710600b5489611d5a91906131c0565b611d6491906131d7565b90508015611e0757600c546040516000916001600160a01b03169083908381818185875af1925050503d8060008114611db9576040519150601f19603f3d011682016040523d82523d6000602084013e611dbe565b606091505b5050905080611e055760405162461bcd60e51b8152602060048201526013602482015272119959481d1c985b9cd9995c8819985a5b1959606a1b6044820152606401610880565b505b6000611e1389346131f9565b90508015611ea557604051600090339083908381818185875af1925050503d8060008114611e5d576040519150601f19603f3d011682016040523d82523d6000602084013e611e62565b606091505b5050905080611ea35760405162461bcd60e51b815260206004820152600d60248201526c1499599d5b990819985a5b1959609a1b6044820152606401610880565b505b50505b8781336001600160a01b03167f7bc3ddf0bf2ada973906c61001cd8f787646720bb7da90229e5bf81fa71bab6d8a604051611ee591815260200190565b60405180910390a4915050611efa6001600855565b95945050505050565b6060611f0e82612018565b5061076b8261261c565b611f2061205e565b6001600160a01b038116611f685760405162461bcd60e51b815260206004820152600f60248201526e496e76616c6964206164647265737360881b6044820152606401610880565b600c80546001600160a01b0319166001600160a01b0392909216919091179055565b6001600160a01b03918216600090815260056020908152604080832093909416825291909152205460ff1690565b611fc061205e565b6001600160a01b038116611fea57604051631e4fbdf760e01b815260006004820152602401610880565b6109d581612349565b60006001600160e01b03198216632483248360e11b148061076b575061076b8261272d565b6000818152600260205260408120546001600160a01b03168061076b57604051637e27328960e01b815260048101849052602401610880565b6109f3838383600161277d565b6007546001600160a01b0316331461165f5760405163118cdaa760e01b8152336004820152602401610880565b6000828152600260205260408120546001600160a01b03908116908316156120b8576120b8818486612883565b6001600160a01b038116156120f6576120d560008560008061277d565b6001600160a01b038116600090815260036020526040902080546000190190555b6001600160a01b03851615612125576001600160a01b0385166000908152600360205260409020805460010190555b60008481526002602052604080822080546001600160a01b0319166001600160a01b0389811691821790925591518793918516917fddf252ad1be2c89b69c2b068fc378daa952ba7f163c4a11628f55a4df523b3ef91a4949350505050565b600081815260116020526040812054601080549192916121a6906001906131f9565b815481106121b6576121b6613229565b9060005260206000200154905080601083815481106121d7576121d7613229565b6000918252602080832090910192909255828152601190915260409020829055601080548061220857612208613379565b600082815260208082208301600019908101839055909201909255938152601190935250506040812055565b6000612243600083600061208b565b90506001600160a01b03811661083757604051637e27328960e01b815260048101839052602401610880565b60026008540361229257604051633ee5aeb560e01b815260040160405180910390fd5b6002600855565b6001600160a01b0382166122c357604051633250574960e11b815260006004820152602401610880565b60006122d18383600061208b565b90506001600160a01b0381166122fd57604051637e27328960e01b815260048101839052602401610880565b836001600160a01b0316816001600160a01b031614610913576040516364283d7b60e01b81526001600160a01b0380861660048301526024820184905282166044820152606401610880565b600780546001600160a01b038381166001600160a01b0319831681179093556040519116919082907f8be0079c531659141344cd1fd0a4f28419497f9722a3daafe3b4186f6b6457e090600090a35050565b6001600160a01b0382166123cd57604051630b61174360e31b81526001600160a01b0383166004820152602401610880565b6001600160a01b03838116600081815260056020908152604080832094871680845294825291829020805460ff191686151590811790915591519182527f17307eab39ab6107e8899845ad3d59bd9653f200f220920489ca2b5937696c319101611a72565b601080546001818101835560008390527f1b6847dc741a1b0cd08d278845f9d819d87b734759afb55fe2de5cb82a9ae672909101839055905461247591906131f9565b60009182526011602052604090912055565b6001600160a01b0383163b156125ab57604051630a85bd0160e11b81526001600160a01b0384169063150b7a02906124c990889088908790879060040161338f565b6020604051808303816000875af1925050508015612504575060408051601f3d908101601f19168201909252612501918101906133cc565b60015b61256d573d808015612532576040519150601f19603f3d011682016040523d82523d6000602084013e612537565b606091505b50805160000361256557604051633250574960e11b81526001600160a01b0385166004820152602401610880565b805160208201fd5b6001600160e01b03198116630a85bd0160e11b146125a957604051633250574960e11b81526001600160a01b0385166004820152602401610880565b505b5050505050565b6108378282604051806020016040528060008152506128e7565b60008281526006602052604090206125e482826132a0565b506040518281527ff8e1a15aba9398e019f0b49df1a4fde98ee17ae345cb5f6b5e2c27f5033e8ce79060200160405180910390a15050565b606061262782612018565b506000828152600660205260408120805461264190613170565b80601f016020809104026020016040519081016040528092919081815260200182805461266d90613170565b80156126ba5780601f1061268f576101008083540402835291602001916126ba565b820191906000526020600020905b81548152906001019060200180831161269d57829003601f168201915b5050505050905060006126d860408051602081019091526000815290565b905080516000036126ea575092915050565b81511561271c5780826040516020016127049291906133e9565b60405160208183030381529060405292505050919050565b612725846128ff565b949350505050565b60006001600160e01b031982166380ac58cd60e01b148061275e57506001600160e01b03198216635b5e139f60e01b145b8061076b57506301ffc9a760e01b6001600160e01b031983161461076b565b808061279157506001600160a01b03821615155b156128535760006127a184612018565b90506001600160a01b038316158015906127cd5750826001600160a01b0316816001600160a01b031614155b80156127e057506127de8184611f8a565b155b156128095760405163a9fbf51f60e01b81526001600160a01b0384166004820152602401610880565b81156128515783856001600160a01b0316826001600160a01b03167f8c5be1e5ebec7d5bd14f71427d1e84f3dd0314c0f7b2291e5b200ac8c7c3b92560405160405180910390a45b505b5050600090815260046020526040902080546001600160a01b0319166001600160a01b0392909216919091179055565b61288e838383612974565b6109f3576001600160a01b0383166128bc57604051637e27328960e01b815260048101829052602401610880565b60405163177e802f60e01b81526001600160a01b038316600482015260248101829052604401610880565b6128f183836129d7565b6109f3336000858585612487565b606061290a82612018565b50600061292260408051602081019091526000815290565b90506000815111612942576040518060200160405280600081525061296d565b8061294c84612a3c565b60405160200161295d9291906133e9565b6040516020818303038152906040525b9392505050565b60006001600160a01b038316158015906127255750826001600160a01b0316846001600160a01b031614806129ae57506129ae8484611f8a565b806127255750506000908152600460205260409020546001600160a01b03908116911614919050565b6001600160a01b038216612a0157604051633250574960e11b815260006004820152602401610880565b6000612a0f8383600061208b565b90506001600160a01b038116156109f3576040516339e3563760e11b815260006004820152602401610880565b60606000612a4983612acf565b600101905060008167ffffffffffffffff811115612a6957612a69612e9f565b6040519080825280601f01601f191660200182016040528015612a93576020820181803683370190505b5090508181016020015b600019016f181899199a1a9b1b9c1cb0b131b232b360811b600a86061a8153600a8504945084612a9d57509392505050565b60008072184f03e93ff9f4daa797ed6e38ed64bf6a1f0160401b8310612b0e5772184f03e93ff9f4daa797ed6e38ed64bf6a1f0160401b830492506040015b6d04ee2d6d415b85acef81000000008310612b3a576d04ee2d6d415b85acef8100000000830492506020015b662386f26fc100008310612b5857662386f26fc10000830492506010015b6305f5e1008310612b70576305f5e100830492506008015b6127108310612b8457612710830492506004015b60648310612b96576064830492506002015b600a831061076b5760010192915050565b508054612bb390613170565b6000825580601f10612bc3575050565b601f0160209004906000526020600020908101906109d591905b80821115612bf15760008155600101612bdd565b5090565b6001600160e01b0319811681146109d557600080fd5b600060208284031215612c1d57600080fd5b813561296d81612bf5565b60005b83811015612c43578181015183820152602001612c2b565b50506000910152565b60008151808452612c64816020860160208601612c28565b601f01601f19169290920160200192915050565b60208152600061296d6020830184612c4c565b600060208284031215612c9d57600080fd5b5035919050565b6001600160a01b03811681146109d557600080fd5b60008060408385031215612ccc57600080fd5b8235612cd781612ca4565b946020939093013593505050565b600080600060608486031215612cfa57600080fd5b8335612d0581612ca4565b92506020840135612d1581612ca4565b929592945050506040919091013590565b60008060408385031215612d3957600080fd5b823591506020830135612d4b81612ca4565b809150509250929050565b8a81526001600160a01b038a16602082015261014060408201819052600090612d818382018c612c4c565b90508281036060840152612d95818b612c4c565b90508281036080840152612da9818a612c4c565b905082810360a0840152612dbd8189612c4c565b60c0840197909752505060e0810193909352901515610100830152610120909101529695505050505050565b60006101008a835260018060a01b038a166020840152886040840152876060840152806080840152612e1d81840188612c4c565b60a0840196909652505091151560c083015260e09091015295945050505050565b600060208284031215612e5057600080fd5b813561296d81612ca4565b6020808252825182820181905260009190848201906040850190845b81811015612e9357835183529284019291840191600101612e77565b50909695505050505050565b634e487b7160e01b600052604160045260246000fd5b600067ffffffffffffffff80841115612ed057612ed0612e9f565b604051601f8501601f19908116603f01168101908282118183101715612ef857612ef8612e9f565b81604052809350858152868686011115612f1157600080fd5b858560208301376000602087830101525050509392505050565b600082601f830112612f3c57600080fd5b61296d83833560208501612eb5565b60008060008060808587031215612f6157600080fd5b843567ffffffffffffffff80821115612f7957600080fd5b612f8588838901612f2b565b95506020870135915080821115612f9b57600080fd5b612fa788838901612f2b565b94506040870135915080821115612fbd57600080fd5b612fc988838901612f2b565b93506060870135915080821115612fdf57600080fd5b50612fec87828801612f2b565b91505092959194509250565b6000806040838503121561300b57600080fd5b823561301681612ca4565b915060208301358015158114612d4b57600080fd5b6000806040838503121561303e57600080fd5b50508035926020909101359150565b6000806000806080858703121561306357600080fd5b843561306e81612ca4565b9350602085013561307e81612ca4565b925060408501359150606085013567ffffffffffffffff8111156130a157600080fd5b8501601f810187136130b257600080fd5b612fec87823560208401612eb5565b600080600080600060a086880312156130d957600080fd5b853594506020860135935060408601359250606086013567ffffffffffffffff8082111561310657600080fd5b61311289838a01612f2b565b9350608088013591508082111561312857600080fd5b5061313588828901612f2b565b9150509295509295909350565b6000806040838503121561315557600080fd5b823561316081612ca4565b91506020830135612d4b81612ca4565b600181811c9082168061318457607f821691505b6020821081036131a457634e487b7160e01b600052602260045260246000fd5b50919050565b634e487b7160e01b600052601160045260246000fd5b808202811582820484141761076b5761076b6131aa565b6000826131f457634e487b7160e01b600052601260045260246000fd5b500490565b8181038181111561076b5761076b6131aa565b60006020828403121561321e57600080fd5b815161296d81612ca4565b634e487b7160e01b600052603260045260246000fd5b600060018201613251576132516131aa565b5060010190565b601f8211156109f3576000816000526020600020601f850160051c810160208610156132815750805b601f850160051c820191505b818110156125a95782815560010161328d565b815167ffffffffffffffff8111156132ba576132ba612e9f565b6132ce816132c88454613170565b84613258565b602080601f83116001811461330357600084156132eb5750858301515b600019600386901b1c1916600185901b1785556125a9565b600085815260208120601f198616915b8281101561333257888601518255948401946001909101908401613313565b50858210156133505787850151600019600388901b60f8161c191681555b5050505050600190811b01905550565b8281526040602082015260006127256040830184612c4c565b634e487b7160e01b600052603160045260246000fd5b6001600160a01b03858116825284166020820152604081018390526080606082018190526000906133c290830184612c4c565b9695505050505050565b6000602082840312156133de57600080fd5b815161296d81612bf5565b600083516133fb818460208801612c28565b83519083019061340f818360208801612c28565b0194935050505056fea26469706673582212201096fc40faeb731b3b0ffb7de7628ae3df89cc5076ae185367144e73ec29c97f64736f6c63430008170033","opcodes":"PUSH1 0x80 PUSH1 0x40 MSTORE CALLVALUE DUP1 ISZERO PUSH3 0x11 JUMPI PUSH1 0x0 DUP1 REVERT JUMPDEST POP PUSH1 0x40 MLOAD PUSH3 0x380D CODESIZE SUB DUP1 PUSH3 0x380D DUP4 CODECOPY DUP2 ADD PUSH1 0x40 DUP2 SWAP1 MSTORE PUSH3 0x34 SWAP2 PUSH3 0x200 JUMP JUMPDEST CALLER PUSH1 0x40 MLOAD DUP1 PUSH1 0x40 ADD PUSH1 0x40 MSTORE DUP1 PUSH1 0xF DUP2 MSTORE PUSH1 0x20 ADD PUSH15 0x149958DA5C1948109BDBDAC8139195 PUSH1 0x8A SHL DUP2 MSTORE POP PUSH1 0x40 MLOAD DUP1 PUSH1 0x40 ADD PUSH1 0x40 MSTORE DUP1 PUSH1 0x6 DUP2 MSTORE PUSH1 0x20 ADD PUSH6 0x524543495045 PUSH1 0xD0 SHL DUP2 MSTORE POP DUP2 PUSH1 0x0 SWAP1 DUP2 PUSH3 0x8D SWAP2 SWAP1 PUSH3 0x2E3 JUMP JUMPDEST POP PUSH1 0x1 PUSH3 0x9C DUP3 DUP3 PUSH3 0x2E3 JUMP JUMPDEST POP POP POP PUSH1 0x1 PUSH1 0x1 PUSH1 0xA0 SHL SUB DUP2 AND PUSH3 0xCF JUMPI PUSH1 0x40 MLOAD PUSH4 0x1E4FBDF7 PUSH1 0xE0 SHL DUP2 MSTORE PUSH1 0x0 PUSH1 0x4 DUP3 ADD MSTORE PUSH1 0x24 ADD JUMPDEST PUSH1 0x40 MLOAD DUP1 SWAP2 SUB SWAP1 REVERT JUMPDEST PUSH3 0xDA DUP2 PUSH3 0x12B JUMP JUMPDEST POP PUSH1 0x1 PUSH1 0x8 SSTORE PUSH1 0x1 PUSH1 0x1 PUSH1 0xA0 SHL SUB DUP3 AND PUSH3 0xF6 JUMPI CALLER PUSH3 0xF8 JUMP JUMPDEST DUP2 JUMPDEST PUSH1 0xC DUP1 SLOAD PUSH1 0x1 PUSH1 0x1 PUSH1 0xA0 SHL SUB NOT AND PUSH1 0x1 PUSH1 0x1 PUSH1 0xA0 SHL SUB SWAP3 SWAP1 SWAP3 AND SWAP2 SWAP1 SWAP2 OR SWAP1 SSTORE PUSH3 0x123 DUP2 PUSH3 0x17D JUMP JUMPDEST POP POP PUSH3 0x3AF JUMP JUMPDEST PUSH1 0x7 DUP1 SLOAD PUSH1 0x1 PUSH1 0x1 PUSH1 0xA0 SHL SUB DUP4 DUP2 AND PUSH1 0x1 PUSH1 0x1 PUSH1 0xA0 SHL SUB NOT DUP4 AND DUP2 OR SWAP1 SWAP4 SSTORE PUSH1 0x40 MLOAD SWAP2 AND SWAP2 SWAP1 DUP3 SWAP1 PUSH32 0x8BE0079C531659141344CD1FD0A4F28419497F9722A3DAAFE3B4186F6B6457E0 SWAP1 PUSH1 0x0 SWAP1 LOG3 POP POP JUMP JUMPDEST PUSH3 0x187 PUSH3 0x1CF JUMP JUMPDEST PUSH2 0x3E8 DUP2 GT ISZERO PUSH3 0x1CA JUMPI PUSH1 0x40 MLOAD PUSH3 0x461BCD PUSH1 0xE5 SHL DUP2 MSTORE PUSH1 0x20 PUSH1 0x4 DUP3 ADD MSTORE PUSH1 0xC PUSH1 0x24 DUP3 ADD MSTORE PUSH12 0x8CCACA40E8DEDE40D0D2CED PUSH1 0xA3 SHL PUSH1 0x44 DUP3 ADD MSTORE PUSH1 0x64 ADD PUSH3 0xC6 JUMP JUMPDEST PUSH1 0xB SSTORE JUMP JUMPDEST PUSH1 0x7 SLOAD PUSH1 0x1 PUSH1 0x1 PUSH1 0xA0 SHL SUB AND CALLER EQ PUSH3 0x1FE JUMPI PUSH1 0x40 MLOAD PUSH4 0x118CDAA7 PUSH1 0xE0 SHL DUP2 MSTORE CALLER PUSH1 0x4 DUP3 ADD MSTORE PUSH1 0x24 ADD PUSH3 0xC6 JUMP JUMPDEST JUMP JUMPDEST PUSH1 0x0 DUP1 PUSH1 0x40 DUP4 DUP6 SUB SLT ISZERO PUSH3 0x214 JUMPI PUSH1 0x0 DUP1 REVERT JUMPDEST DUP3 MLOAD PUSH1 0x1 PUSH1 0x1 PUSH1 0xA0 SHL SUB DUP2 AND DUP2 EQ PUSH3 0x22C JUMPI PUSH1 0x0 DUP1 REVERT JUMPDEST PUSH1 0x20 SWAP4 SWAP1 SWAP4 ADD MLOAD SWAP3 SWAP5 SWAP3 SWAP4 POP POP POP JUMP JUMPDEST PUSH4 0x4E487B71 PUSH1 0xE0 SHL PUSH1 0x0 MSTORE PUSH1 0x41 PUSH1 0x4 MSTORE PUSH1 0x24 PUSH1 0x0 REVERT JUMPDEST PUSH1 0x1 DUP2 DUP2 SHR SWAP1 DUP3 AND DUP1 PUSH3 0x267 JUMPI PUSH1 0x7F DUP3 AND SWAP2 POP JUMPDEST PUSH1 0x20 DUP3 LT DUP2 SUB PUSH3 0x288 JUMPI PUSH4 0x4E487B71 PUSH1 0xE0 SHL PUSH1 0x0 MSTORE PUSH1 0x22 PUSH1 0x4 MSTORE PUSH1 0x24 PUSH1 0x0 REVERT JUMPDEST POP SWAP2 SWAP1 POP JUMP JUMPDEST PUSH1 0x1F DUP3 GT ISZERO PUSH3 0x2DE JUMPI PUSH1 0x0 DUP2 PUSH1 0x0 MSTORE PUSH1 0x20 PUSH1 0x0 KECCAK256 PUSH1 0x1F DUP6 ADD PUSH1 0x5 SHR DUP2 ADD PUSH1 0x20 DUP7 LT ISZERO PUSH3 0x2B9 JUMPI POP DUP1 JUMPDEST PUSH1 0x1F DUP6 ADD PUSH1 0x5 SHR DUP3 ADD SWAP2 POP JUMPDEST DUP2 DUP2 LT ISZERO PUSH3 0x2DA JUMPI DUP3 DUP2 SSTORE PUSH1 0x1 ADD PUSH3 0x2C5 JUMP JUMPDEST POP POP POP JUMPDEST POP POP POP JUMP JUMPDEST DUP2 MLOAD PUSH1 0x1 PUSH1 0x1 PUSH1 0x40 SHL SUB DUP2 GT ISZERO PUSH3 0x2FF JUMPI PUSH3 0x2FF PUSH3 0x23C JUMP JUMPDEST PUSH3 0x317 DUP2 PUSH3 0x310 DUP5 SLOAD PUSH3 0x252 JUMP JUMPDEST DUP5 PUSH3 0x28E JUMP JUMPDEST PUSH1 0x20 DUP1 PUSH1 0x1F DUP4 GT PUSH1 0x1 DUP2 EQ PUSH3 0x34F JUMPI PUSH1 0x0 DUP5 ISZERO PUSH3 0x336 JUMPI POP DUP6 DUP4 ADD MLOAD JUMPDEST PUSH1 0x0 NOT PUSH1 0x3 DUP7 SWAP1 SHL SHR NOT AND PUSH1 0x1 DUP6 SWAP1 SHL OR DUP6 SSTORE PUSH3 0x2DA JUMP JUMPDEST PUSH1 0x0 DUP6 DUP2 MSTORE PUSH1 0x20 DUP2 KECCAK256 PUSH1 0x1F NOT DUP7 AND SWAP2 JUMPDEST DUP3 DUP2 LT ISZERO PUSH3 0x380 JUMPI DUP9 DUP7 ADD MLOAD DUP3 SSTORE SWAP5 DUP5 ADD SWAP5 PUSH1 0x1 SWAP1 SWAP2 ADD SWAP1 DUP5 ADD PUSH3 0x35F JUMP JUMPDEST POP DUP6 DUP3 LT ISZERO PUSH3 0x39F JUMPI DUP8 DUP6 ADD MLOAD PUSH1 0x0 NOT PUSH1 0x3 DUP9 SWAP1 SHL PUSH1 0xF8 AND SHR NOT AND DUP2 SSTORE JUMPDEST POP POP POP POP POP PUSH1 0x1 SWAP1 DUP2 SHL ADD SWAP1 SSTORE POP JUMP JUMPDEST PUSH2 0x344E DUP1 PUSH3 0x3BF PUSH1 0x0 CODECOPY PUSH1 0x0 RETURN INVALID PUSH1 0x80 PUSH1 0x40 MSTORE PUSH1 0x4 CALLDATASIZE LT PUSH2 0x23B JUMPI PUSH1 0x0 CALLDATALOAD PUSH1 0xE0 SHR DUP1 PUSH4 0x69954345 GT PUSH2 0x12E JUMPI DUP1 PUSH4 0xB2733B39 GT PUSH2 0xAB JUMPI DUP1 PUSH4 0xE503BB05 GT PUSH2 0x6F JUMPI DUP1 PUSH4 0xE503BB05 EQ PUSH2 0x6A6 JUMPI DUP1 PUSH4 0xE74B981B EQ PUSH2 0x6D3 JUMPI DUP1 PUSH4 0xE985E9C5 EQ PUSH2 0x6F3 JUMPI DUP1 PUSH4 0xF2FDE38B EQ PUSH2 0x713 JUMPI DUP1 PUSH4 0xF8FDCC21 EQ PUSH2 0x733 JUMPI PUSH1 0x0 DUP1 REVERT JUMPDEST DUP1 PUSH4 0xB2733B39 EQ PUSH2 0x61E JUMPI DUP1 PUSH4 0xB88D4FDE EQ PUSH2 0x63E JUMPI DUP1 PUSH4 0xC01F0B8E EQ PUSH2 0x65E JUMPI DUP1 PUSH4 0xC87B56DD EQ PUSH2 0x671 JUMPI DUP1 PUSH4 0xDE58AF97 EQ PUSH2 0x691 JUMPI PUSH1 0x0 DUP1 REVERT JUMPDEST DUP1 PUSH4 0x8DA5CB5B GT PUSH2 0xF2 JUMPI DUP1 PUSH4 0x8DA5CB5B EQ PUSH2 0x596 JUMPI DUP1 PUSH4 0x95D89B41 EQ PUSH2 0x5B4 JUMPI DUP1 PUSH4 0xA02E5107 EQ PUSH2 0x5C9 JUMPI DUP1 PUSH4 0xA22CB465 EQ PUSH2 0x5E9 JUMPI DUP1 PUSH4 0xB1888649 EQ PUSH2 0x609 JUMPI PUSH1 0x0 DUP1 REVERT JUMPDEST DUP1 PUSH4 0x69954345 EQ PUSH2 0x50B JUMPI DUP1 PUSH4 0x70A08231 EQ PUSH2 0x52B JUMPI DUP1 PUSH4 0x715018A6 EQ PUSH2 0x54B JUMPI DUP1 PUSH4 0x815D8F94 EQ PUSH2 0x560 JUMPI DUP1 PUSH4 0x8D01513C EQ PUSH2 0x580 JUMPI PUSH1 0x0 DUP1 REVERT JUMPDEST DUP1 PUSH4 0x4146A073 GT PUSH2 0x1BC JUMPI DUP1 PUSH4 0x46904840 GT PUSH2 0x180 JUMPI DUP1 PUSH4 0x46904840 EQ PUSH2 0x457 JUMPI DUP1 PUSH4 0x49541015 EQ PUSH2 0x477 JUMPI DUP1 PUSH4 0x51ED8288 EQ PUSH2 0x4AB JUMPI DUP1 PUSH4 0x52DE4EE5 EQ PUSH2 0x4BE JUMPI DUP1 PUSH4 0x6352211E EQ PUSH2 0x4EB JUMPI PUSH1 0x0 DUP1 REVERT JUMPDEST DUP1 PUSH4 0x4146A073 EQ PUSH2 0x391 JUMPI DUP1 PUSH4 0x42842E0E EQ PUSH2 0x3A6 JUMPI DUP1 PUSH4 0x42966C68 EQ PUSH2 0x3C6 JUMPI DUP1 PUSH4 0x43859632 EQ PUSH2 0x3E6 JUMPI DUP1 PUSH4 0x443C227C EQ PUSH2 0x421 JUMPI PUSH1 0x0 DUP1 REVERT JUMPDEST DUP1 PUSH4 0x1650AC6D GT PUSH2 0x203 JUMPI DUP1 PUSH4 0x1650AC6D EQ PUSH2 0x311 JUMPI DUP1 PUSH4 0x191FE1ED EQ PUSH2 0x330 JUMPI DUP1 PUSH4 0x22DCD13E EQ PUSH2 0x346 JUMPI DUP1 PUSH4 0x23B872DD EQ PUSH2 0x35C JUMPI DUP1 PUSH4 0x30BDB351 EQ PUSH2 0x37C JUMPI PUSH1 0x0 DUP1 REVERT JUMPDEST DUP1 PUSH4 0x1FFC9A7 EQ PUSH2 0x240 JUMPI DUP1 PUSH4 0x6FDDE03 EQ PUSH2 0x275 JUMPI DUP1 PUSH4 0x81812FC EQ PUSH2 0x297 JUMPI DUP1 PUSH4 0x95EA7B3 EQ PUSH2 0x2CF JUMPI DUP1 PUSH4 0x12E8E2C3 EQ PUSH2 0x2F1 JUMPI JUMPDEST PUSH1 0x0 DUP1 REVERT JUMPDEST CALLVALUE DUP1 ISZERO PUSH2 0x24C JUMPI PUSH1 0x0 DUP1 REVERT JUMPDEST POP PUSH2 0x260 PUSH2 0x25B CALLDATASIZE PUSH1 0x4 PUSH2 0x2C0B JUMP JUMPDEST PUSH2 0x760 JUMP JUMPDEST PUSH1 0x40 MLOAD SWAP1 ISZERO ISZERO DUP2 MSTORE PUSH1 0x20 ADD JUMPDEST PUSH1 0x40 MLOAD DUP1 SWAP2 SUB SWAP1 RETURN JUMPDEST CALLVALUE DUP1 ISZERO PUSH2 0x281 JUMPI PUSH1 0x0 DUP1 REVERT JUMPDEST POP PUSH2 0x28A PUSH2 0x771 JUMP JUMPDEST PUSH1 0x40 MLOAD PUSH2 0x26C SWAP2 SWAP1 PUSH2 0x2C78 JUMP JUMPDEST CALLVALUE DUP1 ISZERO PUSH2 0x2A3 JUMPI PUSH1 0x0 DUP1 REVERT JUMPDEST POP PUSH2 0x2B7 PUSH2 0x2B2 CALLDATASIZE PUSH1 0x4 PUSH2 0x2C8B JUMP JUMPDEST PUSH2 0x803 JUMP JUMPDEST PUSH1 0x40 MLOAD PUSH1 0x1 PUSH1 0x1 PUSH1 0xA0 SHL SUB SWAP1 SWAP2 AND DUP2 MSTORE PUSH1 0x20 ADD PUSH2 0x26C JUMP JUMPDEST CALLVALUE DUP1 ISZERO PUSH2 0x2DB JUMPI PUSH1 0x0 DUP1 REVERT JUMPDEST POP PUSH2 0x2EF PUSH2 0x2EA CALLDATASIZE PUSH1 0x4 PUSH2 0x2CB9 JUMP JUMPDEST PUSH2 0x82C JUMP JUMPDEST STOP JUMPDEST CALLVALUE DUP1 ISZERO PUSH2 0x2FD JUMPI PUSH1 0x0 DUP1 REVERT JUMPDEST POP PUSH2 0x2EF PUSH2 0x30C CALLDATASIZE PUSH1 0x4 PUSH2 0x2C8B JUMP JUMPDEST PUSH2 0x83B JUMP JUMPDEST CALLVALUE DUP1 ISZERO PUSH2 0x31D JUMPI PUSH1 0x0 DUP1 REVERT JUMPDEST POP PUSH1 0x9 SLOAD JUMPDEST PUSH1 0x40 MLOAD SWAP1 DUP2 MSTORE PUSH1 0x20 ADD PUSH2 0x26C JUMP JUMPDEST CALLVALUE DUP1 ISZERO PUSH2 0x33C JUMPI PUSH1 0x0 DUP1 REVERT JUMPDEST POP PUSH2 0x322 PUSH2 0x2710 DUP2 JUMP JUMPDEST CALLVALUE DUP1 ISZERO PUSH2 0x352 JUMPI PUSH1 0x0 DUP1 REVERT JUMPDEST POP PUSH2 0x322 PUSH1 0xB SLOAD DUP2 JUMP JUMPDEST CALLVALUE DUP1 ISZERO PUSH2 0x368 JUMPI PUSH1 0x0 DUP1 REVERT JUMPDEST POP PUSH2 0x2EF PUSH2 0x377 CALLDATASIZE PUSH1 0x4 PUSH2 0x2CE5 JUMP JUMPDEST PUSH2 0x88E JUMP JUMPDEST CALLVALUE DUP1 ISZERO PUSH2 0x388 JUMPI PUSH1 0x0 DUP1 REVERT JUMPDEST POP PUSH1 0xA SLOAD PUSH2 0x322 JUMP JUMPDEST CALLVALUE DUP1 ISZERO PUSH2 0x39D JUMPI PUSH1 0x0 DUP1 REVERT JUMPDEST POP PUSH2 0x2EF PUSH2 0x919 JUMP JUMPDEST CALLVALUE DUP1 ISZERO PUSH2 0x3B2 JUMPI PUSH1 0x0 DUP1 REVERT JUMPDEST POP PUSH2 0x2EF PUSH2 0x3C1 CALLDATASIZE PUSH1 0x4 PUSH2 0x2CE5 JUMP JUMPDEST PUSH2 0x9D8 JUMP JUMPDEST CALLVALUE DUP1 ISZERO PUSH2 0x3D2 JUMPI PUSH1 0x0 DUP1 REVERT JUMPDEST POP PUSH2 0x2EF PUSH2 0x3E1 CALLDATASIZE PUSH1 0x4 PUSH2 0x2C8B JUMP JUMPDEST PUSH2 0x9F8 JUMP JUMPDEST CALLVALUE DUP1 ISZERO PUSH2 0x3F2 JUMPI PUSH1 0x0 DUP1 REVERT JUMPDEST POP PUSH2 0x260 PUSH2 0x401 CALLDATASIZE PUSH1 0x4 PUSH2 0x2D26 JUMP JUMPDEST PUSH1 0x12 PUSH1 0x20 SWAP1 DUP2 MSTORE PUSH1 0x0 SWAP3 DUP4 MSTORE PUSH1 0x40 DUP1 DUP5 KECCAK256 SWAP1 SWAP2 MSTORE SWAP1 DUP3 MSTORE SWAP1 KECCAK256 SLOAD PUSH1 0xFF AND DUP2 JUMP JUMPDEST CALLVALUE DUP1 ISZERO PUSH2 0x42D JUMPI PUSH1 0x0 DUP1 REVERT JUMPDEST POP PUSH2 0x441 PUSH2 0x43C CALLDATASIZE PUSH1 0x4 PUSH2 0x2C8B JUMP JUMPDEST PUSH2 0xB40 JUMP JUMPDEST PUSH1 0x40 MLOAD PUSH2 0x26C SWAP11 SWAP10 SWAP9 SWAP8 SWAP7 SWAP6 SWAP5 SWAP4 SWAP3 SWAP2 SWAP1 PUSH2 0x2D56 JUMP JUMPDEST CALLVALUE DUP1 ISZERO PUSH2 0x463 JUMPI PUSH1 0x0 DUP1 REVERT JUMPDEST POP PUSH1 0xC SLOAD PUSH2 0x2B7 SWAP1 PUSH1 0x1 PUSH1 0x1 PUSH1 0xA0 SHL SUB AND DUP2 JUMP JUMPDEST CALLVALUE DUP1 ISZERO PUSH2 0x483 JUMPI PUSH1 0x0 DUP1 REVERT JUMPDEST POP PUSH2 0x497 PUSH2 0x492 CALLDATASIZE PUSH1 0x4 PUSH2 0x2C8B JUMP JUMPDEST PUSH2 0xDBE JUMP JUMPDEST PUSH1 0x40 MLOAD PUSH2 0x26C SWAP9 SWAP8 SWAP7 SWAP6 SWAP5 SWAP4 SWAP3 SWAP2 SWAP1 PUSH2 0x2DE9 JUMP JUMPDEST PUSH2 0x2EF PUSH2 0x4B9 CALLDATASIZE PUSH1 0x4 PUSH2 0x2C8B JUMP JUMPDEST PUSH2 0xE99 JUMP JUMPDEST CALLVALUE DUP1 ISZERO PUSH2 0x4CA JUMPI PUSH1 0x0 DUP1 REVERT JUMPDEST POP PUSH2 0x4DE PUSH2 0x4D9 CALLDATASIZE PUSH1 0x4 PUSH2 0x2E3E JUMP JUMPDEST PUSH2 0x135A JUMP JUMPDEST PUSH1 0x40 MLOAD PUSH2 0x26C SWAP2 SWAP1 PUSH2 0x2E5B JUMP JUMPDEST CALLVALUE DUP1 ISZERO PUSH2 0x4F7 JUMPI PUSH1 0x0 DUP1 REVERT JUMPDEST POP PUSH2 0x2B7 PUSH2 0x506 CALLDATASIZE PUSH1 0x4 PUSH2 0x2C8B JUMP JUMPDEST PUSH2 0x149F JUMP JUMPDEST CALLVALUE DUP1 ISZERO PUSH2 0x517 JUMPI PUSH1 0x0 DUP1 REVERT JUMPDEST POP PUSH2 0x2EF PUSH2 0x526 CALLDATASIZE PUSH1 0x4 PUSH2 0x2C8B JUMP JUMPDEST PUSH2 0x14AA JUMP JUMPDEST CALLVALUE DUP1 ISZERO PUSH2 0x537 JUMPI PUSH1 0x0 DUP1 REVERT JUMPDEST POP PUSH2 0x322 PUSH2 0x546 CALLDATASIZE PUSH1 0x4 PUSH2 0x2E3E JUMP JUMPDEST PUSH2 0x1605 JUMP JUMPDEST CALLVALUE DUP1 ISZERO PUSH2 0x557 JUMPI PUSH1 0x0 DUP1 REVERT JUMPDEST POP PUSH2 0x2EF PUSH2 0x164D JUMP JUMPDEST CALLVALUE DUP1 ISZERO PUSH2 0x56C JUMPI PUSH1 0x0 DUP1 REVERT JUMPDEST POP PUSH2 0x322 PUSH2 0x57B CALLDATASIZE PUSH1 0x4 PUSH2 0x2F4B JUMP JUMPDEST PUSH2 0x1661 JUMP JUMPDEST CALLVALUE DUP1 ISZERO PUSH2 0x58C JUMPI PUSH1 0x0 DUP1 REVERT JUMPDEST POP PUSH2 0x322 PUSH2 0x3E8 DUP2 JUMP JUMPDEST CALLVALUE DUP1 ISZERO PUSH2 0x5A2 JUMPI PUSH1 0x0 DUP1 REVERT JUMPDEST POP PUSH1 0x7 SLOAD PUSH1 0x1 PUSH1 0x1 PUSH1 0xA0 SHL SUB AND PUSH2 0x2B7 JUMP JUMPDEST CALLVALUE DUP1 ISZERO PUSH2 0x5C0 JUMPI PUSH1 0x0 DUP1 REVERT JUMPDEST POP PUSH2 0x28A PUSH2 0x17D0 JUMP JUMPDEST CALLVALUE DUP1 ISZERO PUSH2 0x5D5 JUMPI PUSH1 0x0 DUP1 REVERT JUMPDEST POP PUSH2 0x2EF PUSH2 0x5E4 CALLDATASIZE PUSH1 0x4 PUSH2 0x2C8B JUMP JUMPDEST PUSH2 0x17DF JUMP JUMPDEST CALLVALUE DUP1 ISZERO PUSH2 0x5F5 JUMPI PUSH1 0x0 DUP1 REVERT JUMPDEST POP PUSH2 0x2EF PUSH2 0x604 CALLDATASIZE PUSH1 0x4 PUSH2 0x2FF8 JUMP JUMPDEST PUSH2 0x18D3 JUMP JUMPDEST CALLVALUE DUP1 ISZERO PUSH2 0x615 JUMPI PUSH1 0x0 DUP1 REVERT JUMPDEST POP PUSH2 0x4DE PUSH2 0x18DE JUMP JUMPDEST CALLVALUE DUP1 ISZERO PUSH2 0x62A JUMPI PUSH1 0x0 DUP1 REVERT JUMPDEST POP PUSH2 0x2EF PUSH2 0x639 CALLDATASIZE PUSH1 0x4 PUSH2 0x302B JUMP JUMPDEST PUSH2 0x1935 JUMP JUMPDEST CALLVALUE DUP1 ISZERO PUSH2 0x64A JUMPI PUSH1 0x0 DUP1 REVERT JUMPDEST POP PUSH2 0x2EF PUSH2 0x659 CALLDATASIZE PUSH1 0x4 PUSH2 0x304D JUMP JUMPDEST PUSH2 0x1A7F JUMP JUMPDEST PUSH2 0x322 PUSH2 0x66C CALLDATASIZE PUSH1 0x4 PUSH2 0x30C1 JUMP JUMPDEST PUSH2 0x1A97 JUMP JUMPDEST CALLVALUE DUP1 ISZERO PUSH2 0x67D JUMPI PUSH1 0x0 DUP1 REVERT JUMPDEST POP PUSH2 0x28A PUSH2 0x68C CALLDATASIZE PUSH1 0x4 PUSH2 0x2C8B JUMP JUMPDEST PUSH2 0x1F03 JUMP JUMPDEST CALLVALUE DUP1 ISZERO PUSH2 0x69D JUMPI PUSH1 0x0 DUP1 REVERT JUMPDEST POP PUSH2 0x322 PUSH1 0x14 DUP2 JUMP JUMPDEST CALLVALUE DUP1 ISZERO PUSH2 0x6B2 JUMPI PUSH1 0x0 DUP1 REVERT JUMPDEST POP PUSH2 0x322 PUSH2 0x6C1 CALLDATASIZE PUSH1 0x4 PUSH2 0x2E3E JUMP JUMPDEST PUSH1 0x13 PUSH1 0x20 MSTORE PUSH1 0x0 SWAP1 DUP2 MSTORE PUSH1 0x40 SWAP1 KECCAK256 SLOAD DUP2 JUMP JUMPDEST CALLVALUE DUP1 ISZERO PUSH2 0x6DF JUMPI PUSH1 0x0 DUP1 REVERT JUMPDEST POP PUSH2 0x2EF PUSH2 0x6EE CALLDATASIZE PUSH1 0x4 PUSH2 0x2E3E JUMP JUMPDEST PUSH2 0x1F18 JUMP JUMPDEST CALLVALUE DUP1 ISZERO PUSH2 0x6FF JUMPI PUSH1 0x0 DUP1 REVERT JUMPDEST POP PUSH2 0x260 PUSH2 0x70E CALLDATASIZE PUSH1 0x4 PUSH2 0x3142 JUMP JUMPDEST PUSH2 0x1F8A JUMP JUMPDEST CALLVALUE DUP1 ISZERO PUSH2 0x71F JUMPI PUSH1 0x0 DUP1 REVERT JUMPDEST POP PUSH2 0x2EF PUSH2 0x72E CALLDATASIZE PUSH1 0x4 PUSH2 0x2E3E JUMP JUMPDEST PUSH2 0x1FB8 JUMP JUMPDEST CALLVALUE DUP1 ISZERO PUSH2 0x73F JUMPI PUSH1 0x0 DUP1 REVERT JUMPDEST POP PUSH2 0x322 PUSH2 0x74E CALLDATASIZE PUSH1 0x4 PUSH2 0x2C8B JUMP JUMPDEST PUSH1 0xF PUSH1 0x20 MSTORE PUSH1 0x0 SWAP1 DUP2 MSTORE PUSH1 0x40 SWAP1 KECCAK256 SLOAD DUP2 JUMP JUMPDEST PUSH1 0x0 PUSH2 0x76B DUP3 PUSH2 0x1FF3 JUMP JUMPDEST SWAP3 SWAP2 POP POP JUMP JUMPDEST PUSH1 0x60 PUSH1 0x0 DUP1 SLOAD PUSH2 0x780 SWAP1 PUSH2 0x3170 JUMP JUMPDEST DUP1 PUSH1 0x1F ADD PUSH1 0x20 DUP1 SWAP2 DIV MUL PUSH1 0x20 ADD PUSH1 0x40 MLOAD SWAP1 DUP2 ADD PUSH1 0x40 MSTORE DUP1 SWAP3 SWAP2 SWAP1 DUP2 DUP2 MSTORE PUSH1 0x20 ADD DUP3 DUP1 SLOAD PUSH2 0x7AC SWAP1 PUSH2 0x3170 JUMP JUMPDEST DUP1 ISZERO PUSH2 0x7F9 JUMPI DUP1 PUSH1 0x1F LT PUSH2 0x7CE JUMPI PUSH2 0x100 DUP1 DUP4 SLOAD DIV MUL DUP4 MSTORE SWAP2 PUSH1 0x20 ADD SWAP2 PUSH2 0x7F9 JUMP JUMPDEST DUP3 ADD SWAP2 SWAP1 PUSH1 0x0 MSTORE PUSH1 0x20 PUSH1 0x0 KECCAK256 SWAP1 JUMPDEST DUP2 SLOAD DUP2 MSTORE SWAP1 PUSH1 0x1 ADD SWAP1 PUSH1 0x20 ADD DUP1 DUP4 GT PUSH2 0x7DC JUMPI DUP3 SWAP1 SUB PUSH1 0x1F AND DUP3 ADD SWAP2 JUMPDEST POP POP POP POP POP SWAP1 POP SWAP1 JUMP JUMPDEST PUSH1 0x0 PUSH2 0x80E DUP3 PUSH2 0x2018 JUMP JUMPDEST POP PUSH1 0x0 DUP3 DUP2 MSTORE PUSH1 0x4 PUSH1 0x20 MSTORE PUSH1 0x40 SWAP1 KECCAK256 SLOAD PUSH1 0x1 PUSH1 0x1 PUSH1 0xA0 SHL SUB AND PUSH2 0x76B JUMP JUMPDEST PUSH2 0x837 DUP3 DUP3 CALLER PUSH2 0x2051 JUMP JUMPDEST POP POP JUMP JUMPDEST PUSH2 0x843 PUSH2 0x205E JUMP JUMPDEST PUSH2 0x3E8 DUP2 GT ISZERO PUSH2 0x889 JUMPI PUSH1 0x40 MLOAD PUSH3 0x461BCD PUSH1 0xE5 SHL DUP2 MSTORE PUSH1 0x20 PUSH1 0x4 DUP3 ADD MSTORE PUSH1 0xC PUSH1 0x24 DUP3 ADD MSTORE PUSH12 0x8CCACA40E8DEDE40D0D2CED PUSH1 0xA3 SHL PUSH1 0x44 DUP3 ADD MSTORE PUSH1 0x64 ADD JUMPDEST PUSH1 0x40 MLOAD DUP1 SWAP2 SUB SWAP1 REVERT JUMPDEST PUSH1 0xB SSTORE JUMP JUMPDEST PUSH1 0x1 PUSH1 0x1 PUSH1 0xA0 SHL SUB DUP3 AND PUSH2 0x8B8 JUMPI PUSH1 0x40 MLOAD PUSH4 0x32505749 PUSH1 0xE1 SHL DUP2 MSTORE PUSH1 0x0 PUSH1 0x4 DUP3 ADD MSTORE PUSH1 0x24 ADD PUSH2 0x880 JUMP JUMPDEST PUSH1 0x0 PUSH2 0x8C5 DUP4 DUP4 CALLER PUSH2 0x208B JUMP JUMPDEST SWAP1 POP DUP4 PUSH1 0x1 PUSH1 0x1 PUSH1 0xA0 SHL SUB AND DUP2 PUSH1 0x1 PUSH1 0x1 PUSH1 0xA0 SHL SUB AND EQ PUSH2 0x913 JUMPI PUSH1 0x40 MLOAD PUSH4 0x64283D7B PUSH1 0xE0 SHL DUP2 MSTORE PUSH1 0x1 PUSH1 0x1 PUSH1 0xA0 SHL SUB DUP1 DUP7 AND PUSH1 0x4 DUP4 ADD MSTORE PUSH1 0x24 DUP3 ADD DUP5 SWAP1 MSTORE DUP3 AND PUSH1 0x44 DUP3 ADD MSTORE PUSH1 0x64 ADD PUSH2 0x880 JUMP JUMPDEST POP POP POP POP JUMP JUMPDEST PUSH2 0x921 PUSH2 0x205E JUMP JUMPDEST PUSH1 0x0 PUSH2 0x935 PUSH1 0x7 SLOAD PUSH1 0x1 PUSH1 0x1 PUSH1 0xA0 SHL SUB AND SWAP1 JUMP JUMPDEST PUSH1 0x1 PUSH1 0x1 PUSH1 0xA0 SHL SUB AND SELFBALANCE PUSH1 0x40 MLOAD PUSH1 0x0 PUSH1 0x40 MLOAD DUP1 DUP4 SUB DUP2 DUP6 DUP8 GAS CALL SWAP3 POP POP POP RETURNDATASIZE DUP1 PUSH1 0x0 DUP2 EQ PUSH2 0x97F JUMPI PUSH1 0x40 MLOAD SWAP2 POP PUSH1 0x1F NOT PUSH1 0x3F RETURNDATASIZE ADD AND DUP3 ADD PUSH1 0x40 MSTORE RETURNDATASIZE DUP3 MSTORE RETURNDATASIZE PUSH1 0x0 PUSH1 0x20 DUP5 ADD RETURNDATACOPY PUSH2 0x984 JUMP JUMPDEST PUSH1 0x60 SWAP2 POP JUMPDEST POP POP SWAP1 POP DUP1 PUSH2 0x9D5 JUMPI PUSH1 0x40 MLOAD PUSH3 0x461BCD PUSH1 0xE5 SHL DUP2 MSTORE PUSH1 0x20 PUSH1 0x4 DUP3 ADD MSTORE PUSH1 0x1B PUSH1 0x24 DUP3 ADD MSTORE PUSH32 0x456D657267656E6379207769746864726177616C206661696C65640000000000 PUSH1 0x44 DUP3 ADD MSTORE PUSH1 0x64 ADD PUSH2 0x880 JUMP JUMPDEST POP JUMP JUMPDEST PUSH2 0x9F3 DUP4 DUP4 DUP4 PUSH1 0x40 MLOAD DUP1 PUSH1 0x20 ADD PUSH1 0x40 MSTORE DUP1 PUSH1 0x0 DUP2 MSTORE POP PUSH2 0x1A7F JUMP JUMPDEST POP POP POP JUMP JUMPDEST CALLER PUSH2 0xA02 DUP3 PUSH2 0x149F JUMP JUMPDEST PUSH1 0x1 PUSH1 0x1 PUSH1 0xA0 SHL SUB AND EQ DUP1 PUSH2 0xA27 JUMPI POP CALLER PUSH2 0xA1C DUP3 PUSH2 0x803 JUMP JUMPDEST PUSH1 0x1 PUSH1 0x1 PUSH1 0xA0 SHL SUB AND EQ JUMPDEST DUP1 PUSH2 0xA3F JUMPI POP PUSH2 0xA3F PUSH2 0xA39 DUP3 PUSH2 0x149F JUMP JUMPDEST CALLER PUSH2 0x1F8A JUMP JUMPDEST PUSH2 0xA84 JUMPI PUSH1 0x40 MLOAD PUSH3 0x461BCD PUSH1 0xE5 SHL DUP2 MSTORE PUSH1 0x20 PUSH1 0x4 DUP3 ADD MSTORE PUSH1 0x16 PUSH1 0x24 DUP3 ADD MSTORE PUSH22 0x2737BA1030BABA3437B934BD32B2103A3790313AB937 PUSH1 0x51 SHL PUSH1 0x44 DUP3 ADD MSTORE PUSH1 0x64 ADD PUSH2 0x880 JUMP JUMPDEST PUSH1 0x0 DUP2 DUP2 MSTORE PUSH1 0xE PUSH1 0x20 MSTORE PUSH1 0x40 SWAP1 KECCAK256 PUSH1 0x6 DUP2 ADD SLOAD PUSH1 0xFF AND ISZERO PUSH2 0xAA8 JUMPI PUSH2 0xAA8 DUP3 PUSH2 0x2184 JUMP JUMPDEST DUP1 SLOAD DUP1 ISZERO PUSH2 0xADC JUMPI PUSH1 0x0 DUP2 DUP2 MSTORE PUSH1 0xD PUSH1 0x20 SWAP1 DUP2 MSTORE PUSH1 0x40 DUP1 DUP4 KECCAK256 PUSH1 0x8 DUP2 ADD DUP1 SLOAD PUSH1 0xFF NOT AND SWAP1 SSTORE PUSH1 0x9 ADD DUP4 SWAP1 SSTORE PUSH1 0xF SWAP1 SWAP2 MSTORE DUP2 KECCAK256 SSTORE JUMPDEST PUSH1 0x0 DUP4 DUP2 MSTORE PUSH1 0xE PUSH1 0x20 MSTORE PUSH1 0x40 DUP2 KECCAK256 DUP2 DUP2 SSTORE PUSH1 0x1 DUP2 ADD DUP1 SLOAD PUSH1 0x1 PUSH1 0x1 PUSH1 0xA0 SHL SUB NOT AND SWAP1 SSTORE PUSH1 0x2 DUP2 ADD DUP3 SWAP1 SSTORE PUSH1 0x3 DUP2 ADD DUP3 SWAP1 SSTORE SWAP1 PUSH2 0xB1B PUSH1 0x4 DUP4 ADD DUP3 PUSH2 0x2BA7 JUMP JUMPDEST POP PUSH1 0x0 PUSH1 0x5 DUP3 ADD DUP2 SWAP1 SSTORE PUSH1 0x6 DUP3 ADD DUP1 SLOAD PUSH1 0xFF NOT AND SWAP1 SSTORE PUSH1 0x7 SWAP1 SWAP2 ADD SSTORE PUSH2 0x9F3 DUP4 PUSH2 0x2234 JUMP JUMPDEST PUSH1 0xD PUSH1 0x20 MSTORE PUSH1 0x0 SWAP1 DUP2 MSTORE PUSH1 0x40 SWAP1 KECCAK256 DUP1 SLOAD PUSH1 0x1 DUP3 ADD SLOAD PUSH1 0x2 DUP4 ADD DUP1 SLOAD SWAP3 SWAP4 PUSH1 0x1 PUSH1 0x1 PUSH1 0xA0 SHL SUB SWAP1 SWAP3 AND SWAP3 PUSH2 0xB72 SWAP1 PUSH2 0x3170 JUMP JUMPDEST DUP1 PUSH1 0x1F ADD PUSH1 0x20 DUP1 SWAP2 DIV MUL PUSH1 0x20 ADD PUSH1 0x40 MLOAD SWAP1 DUP2 ADD PUSH1 0x40 MSTORE DUP1 SWAP3 SWAP2 SWAP1 DUP2 DUP2 MSTORE PUSH1 0x20 ADD DUP3 DUP1 SLOAD PUSH2 0xB9E SWAP1 PUSH2 0x3170 JUMP JUMPDEST DUP1 ISZERO PUSH2 0xBEB JUMPI DUP1 PUSH1 0x1F LT PUSH2 0xBC0 JUMPI PUSH2 0x100 DUP1 DUP4 SLOAD DIV MUL DUP4 MSTORE SWAP2 PUSH1 0x20 ADD SWAP2 PUSH2 0xBEB JUMP JUMPDEST DUP3 ADD SWAP2 SWAP1 PUSH1 0x0 MSTORE PUSH1 0x20 PUSH1 0x0 KECCAK256 SWAP1 JUMPDEST DUP2 SLOAD DUP2 MSTORE SWAP1 PUSH1 0x1 ADD SWAP1 PUSH1 0x20 ADD DUP1 DUP4 GT PUSH2 0xBCE JUMPI DUP3 SWAP1 SUB PUSH1 0x1F AND DUP3 ADD SWAP2 JUMPDEST POP POP POP POP POP SWAP1 DUP1 PUSH1 0x3 ADD DUP1 SLOAD PUSH2 0xC00 SWAP1 PUSH2 0x3170 JUMP JUMPDEST DUP1 PUSH1 0x1F ADD PUSH1 0x20 DUP1 SWAP2 DIV MUL PUSH1 0x20 ADD PUSH1 0x40 MLOAD SWAP1 DUP2 ADD PUSH1 0x40 MSTORE DUP1 SWAP3 SWAP2 SWAP1 DUP2 DUP2 MSTORE PUSH1 0x20 ADD DUP3 DUP1 SLOAD PUSH2 0xC2C SWAP1 PUSH2 0x3170 JUMP JUMPDEST DUP1 ISZERO PUSH2 0xC79 JUMPI DUP1 PUSH1 0x1F LT PUSH2 0xC4E JUMPI PUSH2 0x100 DUP1 DUP4 SLOAD DIV MUL DUP4 MSTORE SWAP2 PUSH1 0x20 ADD SWAP2 PUSH2 0xC79 JUMP JUMPDEST DUP3 ADD SWAP2 SWAP1 PUSH1 0x0 MSTORE PUSH1 0x20 PUSH1 0x0 KECCAK256 SWAP1 JUMPDEST DUP2 SLOAD DUP2 MSTORE SWAP1 PUSH1 0x1 ADD SWAP1 PUSH1 0x20 ADD DUP1 DUP4 GT PUSH2 0xC5C JUMPI DUP3 SWAP1 SUB PUSH1 0x1F AND DUP3 ADD SWAP2 JUMPDEST POP POP POP POP POP SWAP1 DUP1 PUSH1 0x4 ADD DUP1 SLOAD PUSH2 0xC8E SWAP1 PUSH2 0x3170 JUMP JUMPDEST DUP1 PUSH1 0x1F ADD PUSH1 0x20 DUP1 SWAP2 DIV MUL PUSH1 0x20 ADD PUSH1 0x40 MLOAD SWAP1 DUP2 ADD PUSH1 0x40 MSTORE DUP1 SWAP3 SWAP2 SWAP1 DUP2 DUP2 MSTORE PUSH1 0x20 ADD DUP3 DUP1 SLOAD PUSH2 0xCBA SWAP1 PUSH2 0x3170 JUMP JUMPDEST DUP1 ISZERO PUSH2 0xD07 JUMPI DUP1 PUSH1 0x1F LT PUSH2 0xCDC JUMPI PUSH2 0x100 DUP1 DUP4 SLOAD DIV MUL DUP4 MSTORE SWAP2 PUSH1 0x20 ADD SWAP2 PUSH2 0xD07 JUMP JUMPDEST DUP3 ADD SWAP2 SWAP1 PUSH1 0x0 MSTORE PUSH1 0x20 PUSH1 0x0 KECCAK256 SWAP1 JUMPDEST DUP2 SLOAD DUP2 MSTORE SWAP1 PUSH1 0x1 ADD SWAP1 PUSH1 0x20 ADD DUP1 DUP4 GT PUSH2 0xCEA JUMPI DUP3 SWAP1 SUB PUSH1 0x1F AND DUP3 ADD SWAP2 JUMPDEST POP POP POP POP POP SWAP1 DUP1 PUSH1 0x5 ADD DUP1 SLOAD PUSH2 0xD1C SWAP1 PUSH2 0x3170 JUMP JUMPDEST DUP1 PUSH1 0x1F ADD PUSH1 0x20 DUP1 SWAP2 DIV MUL PUSH1 0x20 ADD PUSH1 0x40 MLOAD SWAP1 DUP2 ADD PUSH1 0x40 MSTORE DUP1 SWAP3 SWAP2 SWAP1 DUP2 DUP2 MSTORE PUSH1 0x20 ADD DUP3 DUP1 SLOAD PUSH2 0xD48 SWAP1 PUSH2 0x3170 JUMP JUMPDEST DUP1 ISZERO PUSH2 0xD95 JUMPI DUP1 PUSH1 0x1F LT PUSH2 0xD6A JUMPI PUSH2 0x100 DUP1 DUP4 SLOAD DIV MUL DUP4 MSTORE SWAP2 PUSH1 0x20 ADD SWAP2 PUSH2 0xD95 JUMP JUMPDEST DUP3 ADD SWAP2 SWAP1 PUSH1 0x0 MSTORE PUSH1 0x20 PUSH1 0x0 KECCAK256 SWAP1 JUMPDEST DUP2 SLOAD DUP2 MSTORE SWAP1 PUSH1 0x1 ADD SWAP1 PUSH1 0x20 ADD DUP1 DUP4 GT PUSH2 0xD78 JUMPI DUP3 SWAP1 SUB PUSH1 0x1F AND DUP3 ADD SWAP2 JUMPDEST POP POP POP PUSH1 0x6 DUP5 ADD SLOAD PUSH1 0x7 DUP6 ADD SLOAD PUSH1 0x8 DUP7 ADD SLOAD PUSH1 0x9 SWAP1 SWAP7 ADD SLOAD SWAP5 SWAP6 SWAP2 SWAP5 SWAP1 SWAP4 POP PUSH1 0xFF SWAP1 SWAP2 AND SWAP2 POP DUP11 JUMP JUMPDEST PUSH1 0xE PUSH1 0x20 MSTORE PUSH1 0x0 SWAP1 DUP2 MSTORE PUSH1 0x40 SWAP1 KECCAK256 DUP1 SLOAD PUSH1 0x1 DUP3 ADD SLOAD PUSH1 0x2 DUP4 ADD SLOAD PUSH1 0x3 DUP5 ADD SLOAD PUSH1 0x4 DUP6 ADD DUP1 SLOAD SWAP5 SWAP6 PUSH1 0x1 PUSH1 0x1 PUSH1 0xA0 SHL SUB SWAP1 SWAP5 AND SWAP5 SWAP3 SWAP4 SWAP2 SWAP3 PUSH2 0xDFE SWAP1 PUSH2 0x3170 JUMP JUMPDEST DUP1 PUSH1 0x1F ADD PUSH1 0x20 DUP1 SWAP2 DIV MUL PUSH1 0x20 ADD PUSH1 0x40 MLOAD SWAP1 DUP2 ADD PUSH1 0x40 MSTORE DUP1 SWAP3 SWAP2 SWAP1 DUP2 DUP2 MSTORE PUSH1 0x20 ADD DUP3 DUP1 SLOAD PUSH2 0xE2A SWAP1 PUSH2 0x3170 JUMP JUMPDEST DUP1 ISZERO PUSH2 0xE77 JUMPI DUP1 PUSH1 0x1F LT PUSH2 0xE4C JUMPI PUSH2 0x100 DUP1 DUP4 SLOAD DIV MUL DUP4 MSTORE SWAP2 PUSH1 0x20 ADD SWAP2 PUSH2 0xE77 JUMP JUMPDEST DUP3 ADD SWAP2 SWAP1 PUSH1 0x0 MSTORE PUSH1 0x20 PUSH1 0x0 KECCAK256 SWAP1 JUMPDEST DUP2 SLOAD DUP2 MSTORE SWAP1 PUSH1 0x1 ADD SWAP1 PUSH1 0x20 ADD DUP1 DUP4 GT PUSH2 0xE5A JUMPI DUP3 SWAP1 SUB PUSH1 0x1F AND DUP3 ADD SWAP2 JUMPDEST POP POP POP POP PUSH1 0x5 DUP4 ADD SLOAD PUSH1 0x6 DUP5 ADD SLOAD PUSH1 0x7 SWAP1 SWAP5 ADD SLOAD SWAP3 SWAP4 SWAP1 SWAP3 PUSH1 0xFF SWAP1 SWAP2 AND SWAP2 POP DUP9 JUMP JUMPDEST PUSH2 0xEA1 PUSH2 0x226F JUMP JUMPDEST PUSH1 0x0 DUP2 DUP2 MSTORE PUSH1 0xE PUSH1 0x20 MSTORE PUSH1 0x40 SWAP1 KECCAK256 PUSH1 0x6 DUP2 ADD SLOAD PUSH1 0xFF AND PUSH2 0xEF6 JUMPI PUSH1 0x40 MLOAD PUSH3 0x461BCD PUSH1 0xE5 SHL DUP2 MSTORE PUSH1 0x20 PUSH1 0x4 DUP3 ADD MSTORE PUSH1 0x10 PUSH1 0x24 DUP3 ADD MSTORE PUSH16 0x4E4654206E6F7420666F722073616C65 PUSH1 0x80 SHL PUSH1 0x44 DUP3 ADD MSTORE PUSH1 0x64 ADD PUSH2 0x880 JUMP JUMPDEST DUP1 PUSH1 0x7 ADD SLOAD CALLVALUE LT ISZERO PUSH2 0xF41 JUMPI PUSH1 0x40 MLOAD PUSH3 0x461BCD PUSH1 0xE5 SHL DUP2 MSTORE PUSH1 0x20 PUSH1 0x4 DUP3 ADD MSTORE PUSH1 0x14 PUSH1 0x24 DUP3 ADD MSTORE PUSH20 0x125B9CDD59999A58DA595B9D081C185E5B595B9D PUSH1 0x62 SHL PUSH1 0x44 DUP3 ADD MSTORE PUSH1 0x64 ADD PUSH2 0x880 JUMP JUMPDEST PUSH1 0x0 PUSH2 0xF4C DUP4 PUSH2 0x149F JUMP JUMPDEST SWAP1 POP CALLER PUSH1 0x1 PUSH1 0x1 PUSH1 0xA0 SHL SUB DUP3 AND SUB PUSH2 0xFA6 JUMPI PUSH1 0x40 MLOAD PUSH3 0x461BCD PUSH1 0xE5 SHL DUP2 MSTORE PUSH1 0x20 PUSH1 0x4 DUP3 ADD MSTORE PUSH1 0x17 PUSH1 0x24 DUP3 ADD MSTORE PUSH32 0x43616E6E6F742062757920796F7572206F776E204E4654000000000000000000 PUSH1 0x44 DUP3 ADD MSTORE PUSH1 0x64 ADD PUSH2 0x880 JUMP JUMPDEST PUSH1 0x7 DUP3 ADD SLOAD PUSH1 0x3 DUP4 ADD SLOAD PUSH1 0x0 SWAP1 PUSH1 0x64 SWAP1 PUSH2 0xFC0 SWAP1 DUP5 PUSH2 0x31C0 JUMP JUMPDEST PUSH2 0xFCA SWAP2 SWAP1 PUSH2 0x31D7 JUMP JUMPDEST SWAP1 POP PUSH1 0x0 PUSH2 0x2710 PUSH1 0xB SLOAD DUP5 PUSH2 0xFDF SWAP2 SWAP1 PUSH2 0x31C0 JUMP JUMPDEST PUSH2 0xFE9 SWAP2 SWAP1 PUSH2 0x31D7 JUMP JUMPDEST SWAP1 POP PUSH1 0x0 DUP2 PUSH2 0xFF8 DUP5 DUP7 PUSH2 0x31F9 JUMP JUMPDEST PUSH2 0x1002 SWAP2 SWAP1 PUSH2 0x31F9 JUMP JUMPDEST PUSH1 0x6 DUP8 ADD DUP1 SLOAD PUSH1 0xFF NOT AND SWAP1 SSTORE PUSH1 0x0 PUSH1 0x7 DUP9 ADD SSTORE SWAP1 POP PUSH2 0x1020 DUP8 PUSH2 0x2184 JUMP JUMPDEST PUSH2 0x102B DUP6 CALLER DUP10 PUSH2 0x2299 JUMP JUMPDEST DUP3 ISZERO PUSH2 0x111C JUMPI PUSH1 0x1 DUP7 ADD SLOAD PUSH1 0x40 MLOAD PUSH1 0x0 SWAP2 PUSH1 0x1 PUSH1 0x1 PUSH1 0xA0 SHL SUB AND SWAP1 DUP6 SWAP1 DUP4 DUP2 DUP2 DUP2 DUP6 DUP8 GAS CALL SWAP3 POP POP POP RETURNDATASIZE DUP1 PUSH1 0x0 DUP2 EQ PUSH2 0x1080 JUMPI PUSH1 0x40 MLOAD SWAP2 POP PUSH1 0x1F NOT PUSH1 0x3F RETURNDATASIZE ADD AND DUP3 ADD PUSH1 0x40 MSTORE RETURNDATASIZE DUP3 MSTORE RETURNDATASIZE PUSH1 0x0 PUSH1 0x20 DUP5 ADD RETURNDATACOPY PUSH2 0x1085 JUMP JUMPDEST PUSH1 0x60 SWAP2 POP JUMPDEST POP POP SWAP1 POP DUP1 PUSH2 0x10D6 JUMPI PUSH1 0x40 MLOAD PUSH3 0x461BCD PUSH1 0xE5 SHL DUP2 MSTORE PUSH1 0x20 PUSH1 0x4 DUP3 ADD MSTORE PUSH1 0x17 PUSH1 0x24 DUP3 ADD MSTORE PUSH32 0x526F79616C7479207472616E73666572206661696C6564000000000000000000 PUSH1 0x44 DUP3 ADD MSTORE PUSH1 0x64 ADD PUSH2 0x880 JUMP JUMPDEST PUSH1 0x1 DUP8 ADD SLOAD PUSH1 0x40 MLOAD DUP6 DUP2 MSTORE DUP10 SWAP2 PUSH1 0x1 PUSH1 0x1 PUSH1 0xA0 SHL SUB AND SWAP1 PUSH32 0xD4ACED6A2FEDAFDF0ACE70B949FF0A9877B479C1CF14AB3D84768281F270C9C7 SWAP1 PUSH1 0x20 ADD PUSH1 0x40 MLOAD DUP1 SWAP2 SUB SWAP1 LOG3 POP JUMPDEST DUP2 ISZERO PUSH2 0x11C7 JUMPI PUSH1 0xC SLOAD PUSH1 0x40 MLOAD PUSH1 0x0 SWAP2 PUSH1 0x1 PUSH1 0x1 PUSH1 0xA0 SHL SUB AND SWAP1 DUP5 SWAP1 DUP4 DUP2 DUP2 DUP2 DUP6 DUP8 GAS CALL SWAP3 POP POP POP RETURNDATASIZE DUP1 PUSH1 0x0 DUP2 EQ PUSH2 0x116F JUMPI PUSH1 0x40 MLOAD SWAP2 POP PUSH1 0x1F NOT PUSH1 0x3F RETURNDATASIZE ADD AND DUP3 ADD PUSH1 0x40 MSTORE RETURNDATASIZE DUP3 MSTORE RETURNDATASIZE PUSH1 0x0 PUSH1 0x20 DUP5 ADD RETURNDATACOPY PUSH2 0x1174 JUMP JUMPDEST PUSH1 0x60 SWAP2 POP JUMPDEST POP POP SWAP1 POP DUP1 PUSH2 0x11C5 JUMPI PUSH1 0x40 MLOAD PUSH3 0x461BCD PUSH1 0xE5 SHL DUP2 MSTORE PUSH1 0x20 PUSH1 0x4 DUP3 ADD MSTORE PUSH1 0x1C PUSH1 0x24 DUP3 ADD MSTORE PUSH32 0x506C6174666F726D20666565207472616E73666572206661696C656400000000 PUSH1 0x44 DUP3 ADD MSTORE PUSH1 0x64 ADD PUSH2 0x880 JUMP JUMPDEST POP JUMPDEST PUSH1 0x0 DUP6 PUSH1 0x1 PUSH1 0x1 PUSH1 0xA0 SHL SUB AND DUP3 PUSH1 0x40 MLOAD PUSH1 0x0 PUSH1 0x40 MLOAD DUP1 DUP4 SUB DUP2 DUP6 DUP8 GAS CALL SWAP3 POP POP POP RETURNDATASIZE DUP1 PUSH1 0x0 DUP2 EQ PUSH2 0x1214 JUMPI PUSH1 0x40 MLOAD SWAP2 POP PUSH1 0x1F NOT PUSH1 0x3F RETURNDATASIZE ADD AND DUP3 ADD PUSH1 0x40 MSTORE RETURNDATASIZE DUP3 MSTORE RETURNDATASIZE PUSH1 0x0 PUSH1 0x20 DUP5 ADD RETURNDATACOPY PUSH2 0x1219 JUMP JUMPDEST PUSH1 0x60 SWAP2 POP JUMPDEST POP POP SWAP1 POP DUP1 PUSH2 0x1262 JUMPI PUSH1 0x40 MLOAD PUSH3 0x461BCD PUSH1 0xE5 SHL DUP2 MSTORE PUSH1 0x20 PUSH1 0x4 DUP3 ADD MSTORE PUSH1 0x15 PUSH1 0x24 DUP3 ADD MSTORE PUSH21 0x14D95B1B195C881C185E5B595B9D0819985A5B1959 PUSH1 0x5A SHL PUSH1 0x44 DUP3 ADD MSTORE PUSH1 0x64 ADD PUSH2 0x880 JUMP JUMPDEST DUP5 CALLVALUE GT ISZERO PUSH2 0x12FB JUMPI PUSH1 0x0 CALLER PUSH2 0x1277 DUP8 CALLVALUE PUSH2 0x31F9 JUMP JUMPDEST PUSH1 0x40 MLOAD PUSH1 0x0 DUP2 DUP2 DUP2 DUP6 DUP8 GAS CALL SWAP3 POP POP POP RETURNDATASIZE DUP1 PUSH1 0x0 DUP2 EQ PUSH2 0x12B3 JUMPI PUSH1 0x40 MLOAD SWAP2 POP PUSH1 0x1F NOT PUSH1 0x3F RETURNDATASIZE ADD AND DUP3 ADD PUSH1 0x40 MSTORE RETURNDATASIZE DUP3 MSTORE RETURNDATASIZE PUSH1 0x0 PUSH1 0x20 DUP5 ADD RETURNDATACOPY PUSH2 0x12B8 JUMP JUMPDEST PUSH1 0x60 SWAP2 POP JUMPDEST POP POP SWAP1 POP DUP1 PUSH2 0x12F9 JUMPI PUSH1 0x40 MLOAD PUSH3 0x461BCD PUSH1 0xE5 SHL DUP2 MSTORE PUSH1 0x20 PUSH1 0x4 DUP3 ADD MSTORE PUSH1 0xD PUSH1 0x24 DUP3 ADD MSTORE PUSH13 0x1499599D5B990819985A5B1959 PUSH1 0x9A SHL PUSH1 0x44 DUP3 ADD MSTORE PUSH1 0x64 ADD PUSH2 0x880 JUMP JUMPDEST POP JUMPDEST DUP8 CALLER PUSH1 0x1 PUSH1 0x1 PUSH1 0xA0 SHL SUB AND DUP8 PUSH1 0x1 PUSH1 0x1 PUSH1 0xA0 SHL SUB AND PUSH32 0xF6CCC0CF89C21C54724EA6EF2EC01DA8FE33A1CEBE06607E160FD78483EBA302 DUP9 PUSH1 0x40 MLOAD PUSH2 0x1341 SWAP2 DUP2 MSTORE PUSH1 0x20 ADD SWAP1 JUMP JUMPDEST PUSH1 0x40 MLOAD DUP1 SWAP2 SUB SWAP1 LOG4 POP POP POP POP POP POP POP PUSH2 0x9D5 PUSH1 0x1 PUSH1 0x8 SSTORE JUMP JUMPDEST PUSH1 0x60 PUSH1 0x0 PUSH2 0x1367 DUP4 PUSH2 0x1605 JUMP JUMPDEST SWAP1 POP DUP1 PUSH1 0x0 SUB PUSH2 0x1387 JUMPI POP POP PUSH1 0x40 DUP1 MLOAD PUSH1 0x0 DUP2 MSTORE PUSH1 0x20 DUP2 ADD SWAP1 SWAP2 MSTORE SWAP2 SWAP1 POP JUMP JUMPDEST PUSH1 0x0 DUP2 PUSH8 0xFFFFFFFFFFFFFFFF DUP2 GT ISZERO PUSH2 0x13A2 JUMPI PUSH2 0x13A2 PUSH2 0x2E9F JUMP JUMPDEST PUSH1 0x40 MLOAD SWAP1 DUP1 DUP3 MSTORE DUP1 PUSH1 0x20 MUL PUSH1 0x20 ADD DUP3 ADD PUSH1 0x40 MSTORE DUP1 ISZERO PUSH2 0x13CB JUMPI DUP2 PUSH1 0x20 ADD PUSH1 0x20 DUP3 MUL DUP1 CALLDATASIZE DUP4 CALLDATACOPY ADD SWAP1 POP JUMPDEST POP PUSH1 0xA SLOAD SWAP1 SWAP2 POP PUSH1 0x0 PUSH1 0x1 JUMPDEST DUP3 DUP2 GT PUSH2 0x1494 JUMPI PUSH1 0x40 MLOAD PUSH4 0x31A9108F PUSH1 0xE1 SHL DUP2 MSTORE PUSH1 0x4 DUP2 ADD DUP3 SWAP1 MSTORE ADDRESS SWAP1 PUSH4 0x6352211E SWAP1 PUSH1 0x24 ADD PUSH1 0x20 PUSH1 0x40 MLOAD DUP1 DUP4 SUB DUP2 DUP7 GAS STATICCALL SWAP3 POP POP POP DUP1 ISZERO PUSH2 0x1436 JUMPI POP PUSH1 0x40 DUP1 MLOAD PUSH1 0x1F RETURNDATASIZE SWAP1 DUP2 ADD PUSH1 0x1F NOT AND DUP3 ADD SWAP1 SWAP3 MSTORE PUSH2 0x1433 SWAP2 DUP2 ADD SWAP1 PUSH2 0x320C JUMP JUMPDEST PUSH1 0x1 JUMPDEST ISZERO PUSH2 0x1482 JUMPI DUP8 PUSH1 0x1 PUSH1 0x1 PUSH1 0xA0 SHL SUB AND DUP2 PUSH1 0x1 PUSH1 0x1 PUSH1 0xA0 SHL SUB AND SUB PUSH2 0x1480 JUMPI DUP2 DUP6 DUP5 DUP2 MLOAD DUP2 LT PUSH2 0x1467 JUMPI PUSH2 0x1467 PUSH2 0x3229 JUMP JUMPDEST PUSH1 0x20 SWAP1 DUP2 MUL SWAP2 SWAP1 SWAP2 ADD ADD MSTORE DUP3 PUSH2 0x147C DUP2 PUSH2 0x323F JUMP JUMPDEST SWAP4 POP POP JUMPDEST POP JUMPDEST DUP1 PUSH2 0x148C DUP2 PUSH2 0x323F JUMP JUMPDEST SWAP2 POP POP PUSH2 0x13D7 JUMP JUMPDEST POP SWAP2 SWAP6 SWAP5 POP POP POP POP POP JUMP JUMPDEST PUSH1 0x0 PUSH2 0x76B DUP3 PUSH2 0x2018 JUMP JUMPDEST PUSH1 0x0 DUP2 DUP2 MSTORE PUSH1 0xD PUSH1 0x20 MSTORE PUSH1 0x40 DUP2 KECCAK256 SLOAD SWAP1 SUB PUSH2 0x14FB JUMPI PUSH1 0x40 MLOAD PUSH3 0x461BCD PUSH1 0xE5 SHL DUP2 MSTORE PUSH1 0x20 PUSH1 0x4 DUP3 ADD MSTORE PUSH1 0x11 PUSH1 0x24 DUP3 ADD MSTORE PUSH17 0x125B9D985B1A59081C9958DA5C19481A59 PUSH1 0x7A SHL PUSH1 0x44 DUP3 ADD MSTORE PUSH1 0x64 ADD PUSH2 0x880 JUMP JUMPDEST PUSH1 0x0 DUP2 DUP2 MSTORE PUSH1 0x12 PUSH1 0x20 SWAP1 DUP2 MSTORE PUSH1 0x40 DUP1 DUP4 KECCAK256 CALLER DUP5 MSTORE SWAP1 SWAP2 MSTORE SWAP1 KECCAK256 SLOAD PUSH1 0xFF AND ISZERO PUSH2 0x1555 JUMPI PUSH1 0x40 MLOAD PUSH3 0x461BCD PUSH1 0xE5 SHL DUP2 MSTORE PUSH1 0x20 PUSH1 0x4 DUP3 ADD MSTORE PUSH1 0xD PUSH1 0x24 DUP3 ADD MSTORE PUSH13 0x105B1C9958591E481D9BDD1959 PUSH1 0x9A SHL PUSH1 0x44 DUP3 ADD MSTORE PUSH1 0x64 ADD PUSH2 0x880 JUMP JUMPDEST PUSH1 0x0 DUP2 DUP2 MSTORE PUSH1 0xD PUSH1 0x20 MSTORE PUSH1 0x40 DUP2 KECCAK256 PUSH1 0x6 ADD DUP1 SLOAD SWAP2 PUSH2 0x1572 DUP4 PUSH2 0x323F JUMP JUMPDEST SWAP1 SWAP2 SSTORE POP POP PUSH1 0x0 DUP2 DUP2 MSTORE PUSH1 0x12 PUSH1 0x20 SWAP1 DUP2 MSTORE PUSH1 0x40 DUP1 DUP4 KECCAK256 CALLER DUP5 MSTORE DUP3 MSTORE DUP1 DUP4 KECCAK256 DUP1 SLOAD PUSH1 0xFF NOT AND PUSH1 0x1 SWAP1 DUP2 OR SWAP1 SWAP2 SSTORE DUP5 DUP5 MSTORE PUSH1 0xD DUP4 MSTORE DUP2 DUP5 KECCAK256 ADD SLOAD PUSH1 0x1 PUSH1 0x1 PUSH1 0xA0 SHL SUB AND DUP4 MSTORE PUSH1 0x13 SWAP1 SWAP2 MSTORE DUP2 KECCAK256 DUP1 SLOAD SWAP2 PUSH2 0x15C8 DUP4 PUSH2 0x323F JUMP JUMPDEST SWAP1 SWAP2 SSTORE POP POP PUSH1 0x40 MLOAD DUP2 DUP2 MSTORE CALLER SWAP1 PUSH32 0x397208EA016330BFF612E9B427F767DA913EEF4AF1825EF102AC6483393170ED SWAP1 PUSH1 0x20 ADD PUSH1 0x40 MLOAD DUP1 SWAP2 SUB SWAP1 LOG2 POP JUMP JUMPDEST PUSH1 0x0 PUSH1 0x1 PUSH1 0x1 PUSH1 0xA0 SHL SUB DUP3 AND PUSH2 0x1631 JUMPI PUSH1 0x40 MLOAD PUSH4 0x22718AD9 PUSH1 0xE2 SHL DUP2 MSTORE PUSH1 0x0 PUSH1 0x4 DUP3 ADD MSTORE PUSH1 0x24 ADD PUSH2 0x880 JUMP JUMPDEST POP PUSH1 0x1 PUSH1 0x1 PUSH1 0xA0 SHL SUB AND PUSH1 0x0 SWAP1 DUP2 MSTORE PUSH1 0x3 PUSH1 0x20 MSTORE PUSH1 0x40 SWAP1 KECCAK256 SLOAD SWAP1 JUMP JUMPDEST PUSH2 0x1655 PUSH2 0x205E JUMP JUMPDEST PUSH2 0x165F PUSH1 0x0 PUSH2 0x2349 JUMP JUMPDEST JUMP JUMPDEST PUSH1 0x9 DUP1 SLOAD PUSH1 0x0 SWAP2 DUP3 PUSH2 0x1672 DUP4 PUSH2 0x323F JUMP JUMPDEST SWAP1 SWAP2 SSTORE POP POP PUSH1 0x9 SLOAD PUSH1 0x40 DUP1 MLOAD PUSH2 0x140 DUP2 ADD DUP3 MSTORE DUP3 DUP2 MSTORE CALLER PUSH1 0x20 DUP1 DUP4 ADD SWAP2 DUP3 MSTORE DUP3 DUP5 ADD DUP11 DUP2 MSTORE PUSH1 0x60 DUP5 ADD DUP11 SWAP1 MSTORE PUSH1 0x80 DUP5 ADD DUP10 SWAP1 MSTORE PUSH1 0xA0 DUP5 ADD DUP9 SWAP1 MSTORE PUSH1 0x0 PUSH1 0xC0 DUP6 ADD DUP2 SWAP1 MSTORE TIMESTAMP PUSH1 0xE0 DUP7 ADD MSTORE PUSH2 0x100 DUP6 ADD DUP2 SWAP1 MSTORE PUSH2 0x120 DUP6 ADD DUP2 SWAP1 MSTORE DUP7 DUP2 MSTORE PUSH1 0xD SWAP1 SWAP3 MSTORE SWAP4 SWAP1 KECCAK256 DUP3 MLOAD DUP2 SSTORE SWAP1 MLOAD PUSH1 0x1 DUP3 ADD DUP1 SLOAD PUSH1 0x1 PUSH1 0x1 PUSH1 0xA0 SHL SUB NOT AND PUSH1 0x1 PUSH1 0x1 PUSH1 0xA0 SHL SUB SWAP1 SWAP3 AND SWAP2 SWAP1 SWAP2 OR SWAP1 SSTORE SWAP2 MLOAD SWAP1 SWAP2 SWAP1 PUSH1 0x2 DUP3 ADD SWAP1 PUSH2 0x1711 SWAP1 DUP3 PUSH2 0x32A0 JUMP JUMPDEST POP PUSH1 0x60 DUP3 ADD MLOAD PUSH1 0x3 DUP3 ADD SWAP1 PUSH2 0x1726 SWAP1 DUP3 PUSH2 0x32A0 JUMP JUMPDEST POP PUSH1 0x80 DUP3 ADD MLOAD PUSH1 0x4 DUP3 ADD SWAP1 PUSH2 0x173B SWAP1 DUP3 PUSH2 0x32A0 JUMP JUMPDEST POP PUSH1 0xA0 DUP3 ADD MLOAD PUSH1 0x5 DUP3 ADD SWAP1 PUSH2 0x1750 SWAP1 DUP3 PUSH2 0x32A0 JUMP JUMPDEST POP PUSH1 0xC0 DUP3 ADD MLOAD PUSH1 0x6 DUP3 ADD SSTORE PUSH1 0xE0 DUP3 ADD MLOAD PUSH1 0x7 DUP3 ADD SSTORE PUSH2 0x100 DUP3 ADD MLOAD PUSH1 0x8 DUP3 ADD DUP1 SLOAD PUSH1 0xFF NOT AND SWAP2 ISZERO ISZERO SWAP2 SWAP1 SWAP2 OR SWAP1 SSTORE PUSH2 0x120 SWAP1 SWAP2 ADD MLOAD PUSH1 0x9 SWAP1 SWAP2 ADD SSTORE PUSH1 0x40 MLOAD CALLER SWAP1 PUSH32 0xFDFD35C55471F8948976C4FBB76396AFEB2623D6CB2B22BF2D2B40F86F6B7FED SWAP1 PUSH2 0x17BF SWAP1 DUP5 SWAP1 DUP11 SWAP1 PUSH2 0x3360 JUMP JUMPDEST PUSH1 0x40 MLOAD DUP1 SWAP2 SUB SWAP1 LOG2 SWAP6 SWAP5 POP POP POP POP POP JUMP JUMPDEST PUSH1 0x60 PUSH1 0x1 DUP1 SLOAD PUSH2 0x780 SWAP1 PUSH2 0x3170 JUMP JUMPDEST CALLER PUSH2 0x17E9 DUP3 PUSH2 0x149F JUMP JUMPDEST PUSH1 0x1 PUSH1 0x1 PUSH1 0xA0 SHL SUB AND EQ PUSH2 0x1831 JUMPI PUSH1 0x40 MLOAD PUSH3 0x461BCD PUSH1 0xE5 SHL DUP2 MSTORE PUSH1 0x20 PUSH1 0x4 DUP3 ADD MSTORE PUSH1 0xF PUSH1 0x24 DUP3 ADD MSTORE PUSH15 0x2737BA103A37B5B2B71037BBB732B9 PUSH1 0x89 SHL PUSH1 0x44 DUP3 ADD MSTORE PUSH1 0x64 ADD PUSH2 0x880 JUMP JUMPDEST PUSH1 0x0 DUP2 DUP2 MSTORE PUSH1 0xE PUSH1 0x20 MSTORE PUSH1 0x40 SWAP1 KECCAK256 PUSH1 0x6 DUP2 ADD SLOAD PUSH1 0xFF AND PUSH2 0x1886 JUMPI PUSH1 0x40 MLOAD PUSH3 0x461BCD PUSH1 0xE5 SHL DUP2 MSTORE PUSH1 0x20 PUSH1 0x4 DUP3 ADD MSTORE PUSH1 0x10 PUSH1 0x24 DUP3 ADD MSTORE PUSH16 0x4E4654206E6F7420666F722073616C65 PUSH1 0x80 SHL PUSH1 0x44 DUP3 ADD MSTORE PUSH1 0x64 ADD PUSH2 0x880 JUMP JUMPDEST PUSH1 0x6 DUP2 ADD DUP1 SLOAD PUSH1 0xFF NOT AND SWAP1 SSTORE PUSH1 0x0 PUSH1 0x7 DUP3 ADD SSTORE PUSH2 0x18A2 DUP3 PUSH2 0x2184 JUMP JUMPDEST PUSH1 0x40 MLOAD DUP3 SWAP1 CALLER SWAP1 PUSH32 0xCF2FC731A404A47E73F7D69B159AA546A5518A6219A33780C682EBAA95666E44 SWAP1 PUSH1 0x0 SWAP1 LOG3 POP POP JUMP JUMPDEST PUSH2 0x837 CALLER DUP4 DUP4 PUSH2 0x239B JUMP JUMPDEST PUSH1 0x60 PUSH1 0x10 DUP1 SLOAD DUP1 PUSH1 0x20 MUL PUSH1 0x20 ADD PUSH1 0x40 MLOAD SWAP1 DUP2 ADD PUSH1 0x40 MSTORE DUP1 SWAP3 SWAP2 SWAP1 DUP2 DUP2 MSTORE PUSH1 0x20 ADD DUP3 DUP1 SLOAD DUP1 ISZERO PUSH2 0x7F9 JUMPI PUSH1 0x20 MUL DUP3 ADD SWAP2 SWAP1 PUSH1 0x0 MSTORE PUSH1 0x20 PUSH1 0x0 KECCAK256 SWAP1 JUMPDEST DUP2 SLOAD DUP2 MSTORE PUSH1 0x20 ADD SWAP1 PUSH1 0x1 ADD SWAP1 DUP1 DUP4 GT PUSH2 0x1918 JUMPI POP POP POP POP POP SWAP1 POP SWAP1 JUMP JUMPDEST CALLER PUSH2 0x193F DUP4 PUSH2 0x149F JUMP JUMPDEST PUSH1 0x1 PUSH1 0x1 PUSH1 0xA0 SHL SUB AND EQ PUSH2 0x1987 JUMPI PUSH1 0x40 MLOAD PUSH3 0x461BCD PUSH1 0xE5 SHL DUP2 MSTORE PUSH1 0x20 PUSH1 0x4 DUP3 ADD MSTORE PUSH1 0xF PUSH1 0x24 DUP3 ADD MSTORE PUSH15 0x2737BA103A37B5B2B71037BBB732B9 PUSH1 0x89 SHL PUSH1 0x44 DUP3 ADD MSTORE PUSH1 0x64 ADD PUSH2 0x880 JUMP JUMPDEST PUSH1 0x0 DUP2 GT PUSH2 0x19CB JUMPI PUSH1 0x40 MLOAD PUSH3 0x461BCD PUSH1 0xE5 SHL DUP2 MSTORE PUSH1 0x20 PUSH1 0x4 DUP3 ADD MSTORE PUSH1 0x11 PUSH1 0x24 DUP3 ADD MSTORE PUSH17 0x5072696365206D757374206265203E203 PUSH1 0x7C SHL PUSH1 0x44 DUP3 ADD MSTORE PUSH1 0x64 ADD PUSH2 0x880 JUMP JUMPDEST PUSH1 0x0 DUP3 DUP2 MSTORE PUSH1 0xE PUSH1 0x20 MSTORE PUSH1 0x40 SWAP1 KECCAK256 PUSH1 0x6 DUP2 ADD SLOAD PUSH1 0xFF AND ISZERO PUSH2 0x1A23 JUMPI PUSH1 0x40 MLOAD PUSH3 0x461BCD PUSH1 0xE5 SHL DUP2 MSTORE PUSH1 0x20 PUSH1 0x4 DUP3 ADD MSTORE PUSH1 0x12 PUSH1 0x24 DUP3 ADD MSTORE PUSH18 0x13919508185B1C9958591E481B1A5CDD1959 PUSH1 0x72 SHL PUSH1 0x44 DUP3 ADD MSTORE PUSH1 0x64 ADD PUSH2 0x880 JUMP JUMPDEST PUSH1 0x6 DUP2 ADD DUP1 SLOAD PUSH1 0xFF NOT AND PUSH1 0x1 OR SWAP1 SSTORE PUSH1 0x7 DUP2 ADD DUP3 SWAP1 SSTORE PUSH2 0x1A42 DUP4 PUSH2 0x2432 JUMP JUMPDEST PUSH1 0x40 MLOAD DUP3 DUP2 MSTORE DUP4 SWAP1 CALLER SWAP1 PUSH32 0xCC4E2C49E4691D84C728880220112CB4635C11200D1C91215E401744F6A597EE SWAP1 PUSH1 0x20 ADD JUMPDEST PUSH1 0x40 MLOAD DUP1 SWAP2 SUB SWAP1 LOG3 POP POP POP JUMP JUMPDEST PUSH2 0x1A8A DUP5 DUP5 DUP5 PUSH2 0x88E JUMP JUMPDEST PUSH2 0x913 CALLER DUP6 DUP6 DUP6 DUP6 PUSH2 0x2487 JUMP JUMPDEST PUSH1 0x0 PUSH2 0x1AA1 PUSH2 0x226F JUMP JUMPDEST PUSH1 0x0 DUP7 DUP2 MSTORE PUSH1 0xD PUSH1 0x20 MSTORE PUSH1 0x40 DUP2 KECCAK256 DUP1 SLOAD SWAP1 SWAP2 SUB PUSH2 0x1AF4 JUMPI PUSH1 0x40 MLOAD PUSH3 0x461BCD PUSH1 0xE5 SHL DUP2 MSTORE PUSH1 0x20 PUSH1 0x4 DUP3 ADD MSTORE PUSH1 0x11 PUSH1 0x24 DUP3 ADD MSTORE PUSH17 0x125B9D985B1A59081C9958DA5C19481A59 PUSH1 0x7A SHL PUSH1 0x44 DUP3 ADD MSTORE PUSH1 0x64 ADD PUSH2 0x880 JUMP JUMPDEST PUSH1 0x1 DUP2 ADD SLOAD PUSH1 0x1 PUSH1 0x1 PUSH1 0xA0 SHL SUB AND CALLER EQ PUSH2 0x1B45 JUMPI PUSH1 0x40 MLOAD PUSH3 0x461BCD PUSH1 0xE5 SHL DUP2 MSTORE PUSH1 0x20 PUSH1 0x4 DUP3 ADD MSTORE PUSH1 0x12 PUSH1 0x24 DUP3 ADD MSTORE PUSH18 0x2737BA103932B1B4B8329031B932B0BA37B9 PUSH1 0x71 SHL PUSH1 0x44 DUP3 ADD MSTORE PUSH1 0x64 ADD PUSH2 0x880 JUMP JUMPDEST PUSH1 0x8 DUP2 ADD SLOAD PUSH1 0xFF AND ISZERO PUSH2 0x1B9A JUMPI PUSH1 0x40 MLOAD PUSH3 0x461BCD PUSH1 0xE5 SHL DUP2 MSTORE PUSH1 0x20 PUSH1 0x4 DUP3 ADD MSTORE PUSH1 0x1C PUSH1 0x24 DUP3 ADD MSTORE PUSH32 0x52656369706520616C7265616479206D696E746564206173204E465400000000 PUSH1 0x44 DUP3 ADD MSTORE PUSH1 0x64 ADD PUSH2 0x880 JUMP JUMPDEST PUSH1 0x14 DUP6 GT ISZERO PUSH2 0x1BDE JUMPI PUSH1 0x40 MLOAD PUSH3 0x461BCD PUSH1 0xE5 SHL DUP2 MSTORE PUSH1 0x20 PUSH1 0x4 DUP3 ADD MSTORE PUSH1 0x10 PUSH1 0x24 DUP3 ADD MSTORE PUSH16 0xA4DEF2C2D8E8F240E8DEDE40D0D2CED PUSH1 0x83 SHL PUSH1 0x44 DUP3 ADD MSTORE PUSH1 0x64 ADD PUSH2 0x880 JUMP JUMPDEST DUP6 CALLVALUE LT ISZERO PUSH2 0x1C25 JUMPI PUSH1 0x40 MLOAD PUSH3 0x461BCD PUSH1 0xE5 SHL DUP2 MSTORE PUSH1 0x20 PUSH1 0x4 DUP3 ADD MSTORE PUSH1 0x14 PUSH1 0x24 DUP3 ADD MSTORE PUSH20 0x125B9CDD59999A58DA595B9D081C185E5B595B9D PUSH1 0x62 SHL PUSH1 0x44 DUP3 ADD MSTORE PUSH1 0x64 ADD PUSH2 0x880 JUMP JUMPDEST PUSH1 0xA DUP1 SLOAD SWAP1 PUSH1 0x0 PUSH2 0x1C35 DUP4 PUSH2 0x323F JUMP JUMPDEST SWAP1 SWAP2 SSTORE POP POP PUSH1 0xA SLOAD PUSH2 0x1C47 CALLER DUP3 PUSH2 0x25B2 JUMP JUMPDEST PUSH2 0x1C51 DUP2 DUP6 PUSH2 0x25CC JUMP JUMPDEST PUSH1 0x8 DUP3 ADD DUP1 SLOAD PUSH1 0x1 PUSH1 0xFF NOT SWAP1 SWAP2 AND DUP2 OR SWAP1 SWAP2 SSTORE PUSH1 0x9 DUP4 ADD DUP3 SWAP1 SSTORE PUSH1 0x40 DUP1 MLOAD PUSH2 0x100 DUP2 ADD DUP3 MSTORE DUP11 DUP2 MSTORE CALLER PUSH1 0x20 DUP1 DUP4 ADD SWAP2 DUP3 MSTORE DUP3 DUP5 ADD DUP13 DUP2 MSTORE PUSH1 0x60 DUP5 ADD DUP13 DUP2 MSTORE PUSH1 0x80 DUP6 ADD DUP13 DUP2 MSTORE TIMESTAMP PUSH1 0xA0 DUP8 ADD MSTORE PUSH1 0x0 PUSH1 0xC0 DUP8 ADD DUP2 SWAP1 MSTORE PUSH1 0xE0 DUP8 ADD DUP2 SWAP1 MSTORE DUP10 DUP2 MSTORE PUSH1 0xE SWAP1 SWAP5 MSTORE SWAP6 SWAP1 SWAP3 KECCAK256 DUP5 MLOAD DUP2 SSTORE SWAP3 MLOAD SWAP6 DUP4 ADD DUP1 SLOAD PUSH1 0x1 PUSH1 0x1 PUSH1 0xA0 SHL SUB NOT AND PUSH1 0x1 PUSH1 0x1 PUSH1 0xA0 SHL SUB SWAP1 SWAP8 AND SWAP7 SWAP1 SWAP7 OR SWAP1 SWAP6 SSTORE SWAP4 MLOAD PUSH1 0x2 DUP3 ADD SSTORE SWAP3 MLOAD PUSH1 0x3 DUP5 ADD SSTORE SWAP1 MLOAD SWAP1 SWAP2 SWAP1 PUSH1 0x4 DUP3 ADD SWAP1 PUSH2 0x1D01 SWAP1 DUP3 PUSH2 0x32A0 JUMP JUMPDEST POP PUSH1 0xA0 DUP3 ADD MLOAD PUSH1 0x5 DUP3 ADD SSTORE PUSH1 0xC0 DUP3 ADD MLOAD PUSH1 0x6 DUP3 ADD DUP1 SLOAD PUSH1 0xFF NOT AND SWAP2 ISZERO ISZERO SWAP2 SWAP1 SWAP2 OR SWAP1 SSTORE PUSH1 0xE0 SWAP1 SWAP2 ADD MLOAD PUSH1 0x7 SWAP1 SWAP2 ADD SSTORE PUSH1 0x0 DUP9 DUP2 MSTORE PUSH1 0xF PUSH1 0x20 MSTORE PUSH1 0x40 SWAP1 KECCAK256 DUP2 SWAP1 SSTORE CALLVALUE ISZERO PUSH2 0x1EA8 JUMPI PUSH1 0x0 PUSH2 0x2710 PUSH1 0xB SLOAD DUP10 PUSH2 0x1D5A SWAP2 SWAP1 PUSH2 0x31C0 JUMP JUMPDEST PUSH2 0x1D64 SWAP2 SWAP1 PUSH2 0x31D7 JUMP JUMPDEST SWAP1 POP DUP1 ISZERO PUSH2 0x1E07 JUMPI PUSH1 0xC SLOAD PUSH1 0x40 MLOAD PUSH1 0x0 SWAP2 PUSH1 0x1 PUSH1 0x1 PUSH1 0xA0 SHL SUB AND SWAP1 DUP4 SWAP1 DUP4 DUP2 DUP2 DUP2 DUP6 DUP8 GAS CALL SWAP3 POP POP POP RETURNDATASIZE DUP1 PUSH1 0x0 DUP2 EQ PUSH2 0x1DB9 JUMPI PUSH1 0x40 MLOAD SWAP2 POP PUSH1 0x1F NOT PUSH1 0x3F RETURNDATASIZE ADD AND DUP3 ADD PUSH1 0x40 MSTORE RETURNDATASIZE DUP3 MSTORE RETURNDATASIZE PUSH1 0x0 PUSH1 0x20 DUP5 ADD RETURNDATACOPY PUSH2 0x1DBE JUMP JUMPDEST PUSH1 0x60 SWAP2 POP JUMPDEST POP POP SWAP1 POP DUP1 PUSH2 0x1E05 JUMPI PUSH1 0x40 MLOAD PUSH3 0x461BCD PUSH1 0xE5 SHL DUP2 MSTORE PUSH1 0x20 PUSH1 0x4 DUP3 ADD MSTORE PUSH1 0x13 PUSH1 0x24 DUP3 ADD MSTORE PUSH19 0x119959481D1C985B9CD9995C8819985A5B1959 PUSH1 0x6A SHL PUSH1 0x44 DUP3 ADD MSTORE PUSH1 0x64 ADD PUSH2 0x880 JUMP JUMPDEST POP JUMPDEST PUSH1 0x0 PUSH2 0x1E13 DUP10 CALLVALUE PUSH2 0x31F9 JUMP JUMPDEST SWAP1 POP DUP1 ISZERO PUSH2 0x1EA5 JUMPI PUSH1 0x40 MLOAD PUSH1 0x0 SWAP1 CALLER SWAP1 DUP4 SWAP1 DUP4 DUP2 DUP2 DUP2 DUP6 DUP8 GAS CALL SWAP3 POP POP POP RETURNDATASIZE DUP1 PUSH1 0x0 DUP2 EQ PUSH2 0x1E5D JUMPI PUSH1 0x40 MLOAD SWAP2 POP PUSH1 0x1F NOT PUSH1 0x3F RETURNDATASIZE ADD AND DUP3 ADD PUSH1 0x40 MSTORE RETURNDATASIZE DUP3 MSTORE RETURNDATASIZE PUSH1 0x0 PUSH1 0x20 DUP5 ADD RETURNDATACOPY PUSH2 0x1E62 JUMP JUMPDEST PUSH1 0x60 SWAP2 POP JUMPDEST POP POP SWAP1 POP DUP1 PUSH2 0x1EA3 JUMPI PUSH1 0x40 MLOAD PUSH3 0x461BCD PUSH1 0xE5 SHL DUP2 MSTORE PUSH1 0x20 PUSH1 0x4 DUP3 ADD MSTORE PUSH1 0xD PUSH1 0x24 DUP3 ADD MSTORE PUSH13 0x1499599D5B990819985A5B1959 PUSH1 0x9A SHL PUSH1 0x44 DUP3 ADD MSTORE PUSH1 0x64 ADD PUSH2 0x880 JUMP JUMPDEST POP JUMPDEST POP POP JUMPDEST DUP8 DUP2 CALLER PUSH1 0x1 PUSH1 0x1 PUSH1 0xA0 SHL SUB AND PUSH32 0x7BC3DDF0BF2ADA973906C61001CD8F787646720BB7DA90229E5BF81FA71BAB6D DUP11 PUSH1 0x40 MLOAD PUSH2 0x1EE5 SWAP2 DUP2 MSTORE PUSH1 0x20 ADD SWAP1 JUMP JUMPDEST PUSH1 0x40 MLOAD DUP1 SWAP2 SUB SWAP1 LOG4 SWAP2 POP POP PUSH2 0x1EFA PUSH1 0x1 PUSH1 0x8 SSTORE JUMP JUMPDEST SWAP6 SWAP5 POP POP POP POP POP JUMP JUMPDEST PUSH1 0x60 PUSH2 0x1F0E DUP3 PUSH2 0x2018 JUMP JUMPDEST POP PUSH2 0x76B DUP3 PUSH2 0x261C JUMP JUMPDEST PUSH2 0x1F20 PUSH2 0x205E JUMP JUMPDEST PUSH1 0x1 PUSH1 0x1 PUSH1 0xA0 SHL SUB DUP2 AND PUSH2 0x1F68 JUMPI PUSH1 0x40 MLOAD PUSH3 0x461BCD PUSH1 0xE5 SHL DUP2 MSTORE PUSH1 0x20 PUSH1 0x4 DUP3 ADD MSTORE PUSH1 0xF PUSH1 0x24 DUP3 ADD MSTORE PUSH15 0x496E76616C69642061646472657373 PUSH1 0x88 SHL PUSH1 0x44 DUP3 ADD MSTORE PUSH1 0x64 ADD PUSH2 0x880 JUMP JUMPDEST PUSH1 0xC DUP1 SLOAD PUSH1 0x1 PUSH1 0x1 PUSH1 0xA0 SHL SUB NOT AND PUSH1 0x1 PUSH1 0x1 PUSH1 0xA0 SHL SUB SWAP3 SWAP1 SWAP3 AND SWAP2 SWAP1 SWAP2 OR SWAP1 SSTORE JUMP JUMPDEST PUSH1 0x1 PUSH1 0x1 PUSH1 0xA0 SHL SUB SWAP2 DUP3 AND PUSH1 0x0 SWAP1 DUP2 MSTORE PUSH1 0x5 PUSH1 0x20 SWAP1 DUP2 MSTORE PUSH1 0x40 DUP1 DUP4 KECCAK256 SWAP4 SWAP1 SWAP5 AND DUP3 MSTORE SWAP2 SWAP1 SWAP2 MSTORE KECCAK256 SLOAD PUSH1 0xFF AND SWAP1 JUMP JUMPDEST PUSH2 0x1FC0 PUSH2 0x205E JUMP JUMPDEST PUSH1 0x1 PUSH1 0x1 PUSH1 0xA0 SHL SUB DUP2 AND PUSH2 0x1FEA JUMPI PUSH1 0x40 MLOAD PUSH4 0x1E4FBDF7 PUSH1 0xE0 SHL DUP2 MSTORE PUSH1 0x0 PUSH1 0x4 DUP3 ADD MSTORE PUSH1 0x24 ADD PUSH2 0x880 JUMP JUMPDEST PUSH2 0x9D5 DUP2 PUSH2 0x2349 JUMP JUMPDEST PUSH1 0x0 PUSH1 0x1 PUSH1 0x1 PUSH1 0xE0 SHL SUB NOT DUP3 AND PUSH4 0x24832483 PUSH1 0xE1 SHL EQ DUP1 PUSH2 0x76B JUMPI POP PUSH2 0x76B DUP3 PUSH2 0x272D JUMP JUMPDEST PUSH1 0x0 DUP2 DUP2 MSTORE PUSH1 0x2 PUSH1 0x20 MSTORE PUSH1 0x40 DUP2 KECCAK256 SLOAD PUSH1 0x1 PUSH1 0x1 PUSH1 0xA0 SHL SUB AND DUP1 PUSH2 0x76B JUMPI PUSH1 0x40 MLOAD PUSH4 0x7E273289 PUSH1 0xE0 SHL DUP2 MSTORE PUSH1 0x4 DUP2 ADD DUP5 SWAP1 MSTORE PUSH1 0x24 ADD PUSH2 0x880 JUMP JUMPDEST PUSH2 0x9F3 DUP4 DUP4 DUP4 PUSH1 0x1 PUSH2 0x277D JUMP JUMPDEST PUSH1 0x7 SLOAD PUSH1 0x1 PUSH1 0x1 PUSH1 0xA0 SHL SUB AND CALLER EQ PUSH2 0x165F JUMPI PUSH1 0x40 MLOAD PUSH4 0x118CDAA7 PUSH1 0xE0 SHL DUP2 MSTORE CALLER PUSH1 0x4 DUP3 ADD MSTORE PUSH1 0x24 ADD PUSH2 0x880 JUMP JUMPDEST PUSH1 0x0 DUP3 DUP2 MSTORE PUSH1 0x2 PUSH1 0x20 MSTORE PUSH1 0x40 DUP2 KECCAK256 SLOAD PUSH1 0x1 PUSH1 0x1 PUSH1 0xA0 SHL SUB SWAP1 DUP2 AND SWAP1 DUP4 AND ISZERO PUSH2 0x20B8 JUMPI PUSH2 0x20B8 DUP2 DUP5 DUP7 PUSH2 0x2883 JUMP JUMPDEST PUSH1 0x1 PUSH1 0x1 PUSH1 0xA0 SHL SUB DUP2 AND ISZERO PUSH2 0x20F6 JUMPI PUSH2 0x20D5 PUSH1 0x0 DUP6 PUSH1 0x0 DUP1 PUSH2 0x277D JUMP JUMPDEST PUSH1 0x1 PUSH1 0x1 PUSH1 0xA0 SHL SUB DUP2 AND PUSH1 0x0 SWAP1 DUP2 MSTORE PUSH1 0x3 PUSH1 0x20 MSTORE PUSH1 0x40 SWAP1 KECCAK256 DUP1 SLOAD PUSH1 0x0 NOT ADD SWAP1 SSTORE JUMPDEST PUSH1 0x1 PUSH1 0x1 PUSH1 0xA0 SHL SUB DUP6 AND ISZERO PUSH2 0x2125 JUMPI PUSH1 0x1 PUSH1 0x1 PUSH1 0xA0 SHL SUB DUP6 AND PUSH1 0x0 SWAP1 DUP2 MSTORE PUSH1 0x3 PUSH1 0x20 MSTORE PUSH1 0x40 SWAP1 KECCAK256 DUP1 SLOAD PUSH1 0x1 ADD SWAP1 SSTORE JUMPDEST PUSH1 0x0 DUP5 DUP2 MSTORE PUSH1 0x2 PUSH1 0x20 MSTORE PUSH1 0x40 DUP1 DUP3 KECCAK256 DUP1 SLOAD PUSH1 0x1 PUSH1 0x1 PUSH1 0xA0 SHL SUB NOT AND PUSH1 0x1 PUSH1 0x1 PUSH1 0xA0 SHL SUB DUP10 DUP2 AND SWAP2 DUP3 OR SWAP1 SWAP3 SSTORE SWAP2 MLOAD DUP8 SWAP4 SWAP2 DUP6 AND SWAP2 PUSH32 0xDDF252AD1BE2C89B69C2B068FC378DAA952BA7F163C4A11628F55A4DF523B3EF SWAP2 LOG4 SWAP5 SWAP4 POP POP POP POP JUMP JUMPDEST PUSH1 0x0 DUP2 DUP2 MSTORE PUSH1 0x11 PUSH1 0x20 MSTORE PUSH1 0x40 DUP2 KECCAK256 SLOAD PUSH1 0x10 DUP1 SLOAD SWAP2 SWAP3 SWAP2 PUSH2 0x21A6 SWAP1 PUSH1 0x1 SWAP1 PUSH2 0x31F9 JUMP JUMPDEST DUP2 SLOAD DUP2 LT PUSH2 0x21B6 JUMPI PUSH2 0x21B6 PUSH2 0x3229 JUMP JUMPDEST SWAP1 PUSH1 0x0 MSTORE PUSH1 0x20 PUSH1 0x0 KECCAK256 ADD SLOAD SWAP1 POP DUP1 PUSH1 0x10 DUP4 DUP2 SLOAD DUP2 LT PUSH2 0x21D7 JUMPI PUSH2 0x21D7 PUSH2 0x3229 JUMP JUMPDEST PUSH1 0x0 SWAP2 DUP3 MSTORE PUSH1 0x20 DUP1 DUP4 KECCAK256 SWAP1 SWAP2 ADD SWAP3 SWAP1 SWAP3 SSTORE DUP3 DUP2 MSTORE PUSH1 0x11 SWAP1 SWAP2 MSTORE PUSH1 0x40 SWAP1 KECCAK256 DUP3 SWAP1 SSTORE PUSH1 0x10 DUP1 SLOAD DUP1 PUSH2 0x2208 JUMPI PUSH2 0x2208 PUSH2 0x3379 JUMP JUMPDEST PUSH1 0x0 DUP3 DUP2 MSTORE PUSH1 0x20 DUP1 DUP3 KECCAK256 DUP4 ADD PUSH1 0x0 NOT SWAP1 DUP2 ADD DUP4 SWAP1 SSTORE SWAP1 SWAP3 ADD SWAP1 SWAP3 SSTORE SWAP4 DUP2 MSTORE PUSH1 0x11 SWAP1 SWAP4 MSTORE POP POP PUSH1 0x40 DUP2 KECCAK256 SSTORE JUMP JUMPDEST PUSH1 0x0 PUSH2 0x2243 PUSH1 0x0 DUP4 PUSH1 0x0 PUSH2 0x208B JUMP JUMPDEST SWAP1 POP PUSH1 0x1 PUSH1 0x1 PUSH1 0xA0 SHL SUB DUP2 AND PUSH2 0x837 JUMPI PUSH1 0x40 MLOAD PUSH4 0x7E273289 PUSH1 0xE0 SHL DUP2 MSTORE PUSH1 0x4 DUP2 ADD DUP4 SWAP1 MSTORE PUSH1 0x24 ADD PUSH2 0x880 JUMP JUMPDEST PUSH1 0x2 PUSH1 0x8 SLOAD SUB PUSH2 0x2292 JUMPI PUSH1 0x40 MLOAD PUSH4 0x3EE5AEB5 PUSH1 0xE0 SHL DUP2 MSTORE PUSH1 0x4 ADD PUSH1 0x40 MLOAD DUP1 SWAP2 SUB SWAP1 REVERT JUMPDEST PUSH1 0x2 PUSH1 0x8 SSTORE JUMP JUMPDEST PUSH1 0x1 PUSH1 0x1 PUSH1 0xA0 SHL SUB DUP3 AND PUSH2 0x22C3 JUMPI PUSH1 0x40 MLOAD PUSH4 0x32505749 PUSH1 0xE1 SHL DUP2 MSTORE PUSH1 0x0 PUSH1 0x4 DUP3 ADD MSTORE PUSH1 0x24 ADD PUSH2 0x880 JUMP JUMPDEST PUSH1 0x0 PUSH2 0x22D1 DUP4 DUP4 PUSH1 0x0 PUSH2 0x208B JUMP JUMPDEST SWAP1 POP PUSH1 0x1 PUSH1 0x1 PUSH1 0xA0 SHL SUB DUP2 AND PUSH2 0x22FD JUMPI PUSH1 0x40 MLOAD PUSH4 0x7E273289 PUSH1 0xE0 SHL DUP2 MSTORE PUSH1 0x4 DUP2 ADD DUP4 SWAP1 MSTORE PUSH1 0x24 ADD PUSH2 0x880 JUMP JUMPDEST DUP4 PUSH1 0x1 PUSH1 0x1 PUSH1 0xA0 SHL SUB AND DUP2 PUSH1 0x1 PUSH1 0x1 PUSH1 0xA0 SHL SUB AND EQ PUSH2 0x913 JUMPI PUSH1 0x40 MLOAD PUSH4 0x64283D7B PUSH1 0xE0 SHL DUP2 MSTORE PUSH1 0x1 PUSH1 0x1 PUSH1 0xA0 SHL SUB DUP1 DUP7 AND PUSH1 0x4 DUP4 ADD MSTORE PUSH1 0x24 DUP3 ADD DUP5 SWAP1 MSTORE DUP3 AND PUSH1 0x44 DUP3 ADD MSTORE PUSH1 0x64 ADD PUSH2 0x880 JUMP JUMPDEST PUSH1 0x7 DUP1 SLOAD PUSH1 0x1 PUSH1 0x1 PUSH1 0xA0 SHL SUB DUP4 DUP2 AND PUSH1 0x1 PUSH1 0x1 PUSH1 0xA0 SHL SUB NOT DUP4 AND DUP2 OR SWAP1 SWAP4 SSTORE PUSH1 0x40 MLOAD SWAP2 AND SWAP2 SWAP1 DUP3 SWAP1 PUSH32 0x8BE0079C531659141344CD1FD0A4F28419497F9722A3DAAFE3B4186F6B6457E0 SWAP1 PUSH1 0x0 SWAP1 LOG3 POP POP JUMP JUMPDEST PUSH1 0x1 PUSH1 0x1 PUSH1 0xA0 SHL SUB DUP3 AND PUSH2 0x23CD JUMPI PUSH1 0x40 MLOAD PUSH4 0xB611743 PUSH1 0xE3 SHL DUP2 MSTORE PUSH1 0x1 PUSH1 0x1 PUSH1 0xA0 SHL SUB DUP4 AND PUSH1 0x4 DUP3 ADD MSTORE PUSH1 0x24 ADD PUSH2 0x880 JUMP JUMPDEST PUSH1 0x1 PUSH1 0x1 PUSH1 0xA0 SHL SUB DUP4 DUP2 AND PUSH1 0x0 DUP2 DUP2 MSTORE PUSH1 0x5 PUSH1 0x20 SWAP1 DUP2 MSTORE PUSH1 0x40 DUP1 DUP4 KECCAK256 SWAP5 DUP8 AND DUP1 DUP5 MSTORE SWAP5 DUP3 MSTORE SWAP2 DUP3 SWAP1 KECCAK256 DUP1 SLOAD PUSH1 0xFF NOT AND DUP7 ISZERO ISZERO SWAP1 DUP2 OR SWAP1 SWAP2 SSTORE SWAP2 MLOAD SWAP2 DUP3 MSTORE PUSH32 0x17307EAB39AB6107E8899845AD3D59BD9653F200F220920489CA2B5937696C31 SWAP2 ADD PUSH2 0x1A72 JUMP JUMPDEST PUSH1 0x10 DUP1 SLOAD PUSH1 0x1 DUP2 DUP2 ADD DUP4 SSTORE PUSH1 0x0 DUP4 SWAP1 MSTORE PUSH32 0x1B6847DC741A1B0CD08D278845F9D819D87B734759AFB55FE2DE5CB82A9AE672 SWAP1 SWAP2 ADD DUP4 SWAP1 SSTORE SWAP1 SLOAD PUSH2 0x2475 SWAP2 SWAP1 PUSH2 0x31F9 JUMP JUMPDEST PUSH1 0x0 SWAP2 DUP3 MSTORE PUSH1 0x11 PUSH1 0x20 MSTORE PUSH1 0x40 SWAP1 SWAP2 KECCAK256 SSTORE JUMP JUMPDEST PUSH1 0x1 PUSH1 0x1 PUSH1 0xA0 SHL SUB DUP4 AND EXTCODESIZE ISZERO PUSH2 0x25AB JUMPI PUSH1 0x40 MLOAD PUSH4 0xA85BD01 PUSH1 0xE1 SHL DUP2 MSTORE PUSH1 0x1 PUSH1 0x1 PUSH1 0xA0 SHL SUB DUP5 AND SWAP1 PUSH4 0x150B7A02 SWAP1 PUSH2 0x24C9 SWAP1 DUP9 SWAP1 DUP9 SWAP1 DUP8 SWAP1 DUP8 SWAP1 PUSH1 0x4 ADD PUSH2 0x338F JUMP JUMPDEST PUSH1 0x20 PUSH1 0x40 MLOAD DUP1 DUP4 SUB DUP2 PUSH1 0x0 DUP8 GAS CALL SWAP3 POP POP POP DUP1 ISZERO PUSH2 0x2504 JUMPI POP PUSH1 0x40 DUP1 MLOAD PUSH1 0x1F RETURNDATASIZE SWAP1 DUP2 ADD PUSH1 0x1F NOT AND DUP3 ADD SWAP1 SWAP3 MSTORE PUSH2 0x2501 SWAP2 DUP2 ADD SWAP1 PUSH2 0x33CC JUMP JUMPDEST PUSH1 0x1 JUMPDEST PUSH2 0x256D JUMPI RETURNDATASIZE DUP1 DUP1 ISZERO PUSH2 0x2532 JUMPI PUSH1 0x40 MLOAD SWAP2 POP PUSH1 0x1F NOT PUSH1 0x3F RETURNDATASIZE ADD AND DUP3 ADD PUSH1 0x40 MSTORE RETURNDATASIZE DUP3 MSTORE RETURNDATASIZE PUSH1 0x0 PUSH1 0x20 DUP5 ADD RETURNDATACOPY PUSH2 0x2537 JUMP JUMPDEST PUSH1 0x60 SWAP2 POP JUMPDEST POP DUP1 MLOAD PUSH1 0x0 SUB PUSH2 0x2565 JUMPI PUSH1 0x40 MLOAD PUSH4 0x32505749 PUSH1 0xE1 SHL DUP2 MSTORE PUSH1 0x1 PUSH1 0x1 PUSH1 0xA0 SHL SUB DUP6 AND PUSH1 0x4 DUP3 ADD MSTORE PUSH1 0x24 ADD PUSH2 0x880 JUMP JUMPDEST DUP1 MLOAD PUSH1 0x20 DUP3 ADD REVERT JUMPDEST PUSH1 0x1 PUSH1 0x1 PUSH1 0xE0 SHL SUB NOT DUP2 AND PUSH4 0xA85BD01 PUSH1 0xE1 SHL EQ PUSH2 0x25A9 JUMPI PUSH1 0x40 MLOAD PUSH4 0x32505749 PUSH1 0xE1 SHL DUP2 MSTORE PUSH1 0x1 PUSH1 0x1 PUSH1 0xA0 SHL SUB DUP6 AND PUSH1 0x4 DUP3 ADD MSTORE PUSH1 0x24 ADD PUSH2 0x880 JUMP JUMPDEST POP JUMPDEST POP POP POP POP POP JUMP JUMPDEST PUSH2 0x837 DUP3 DUP3 PUSH1 0x40 MLOAD DUP1 PUSH1 0x20 ADD PUSH1 0x40 MSTORE DUP1 PUSH1 0x0 DUP2 MSTORE POP PUSH2 0x28E7 JUMP JUMPDEST PUSH1 0x0 DUP3 DUP2 MSTORE PUSH1 0x6 PUSH1 0x20 MSTORE PUSH1 0x40 SWAP1 KECCAK256 PUSH2 0x25E4 DUP3 DUP3 PUSH2 0x32A0 JUMP JUMPDEST POP PUSH1 0x40 MLOAD DUP3 DUP2 MSTORE PUSH32 0xF8E1A15ABA9398E019F0B49DF1A4FDE98EE17AE345CB5F6B5E2C27F5033E8CE7 SWAP1 PUSH1 0x20 ADD PUSH1 0x40 MLOAD DUP1 SWAP2 SUB SWAP1 LOG1 POP POP JUMP JUMPDEST PUSH1 0x60 PUSH2 0x2627 DUP3 PUSH2 0x2018 JUMP JUMPDEST POP PUSH1 0x0 DUP3 DUP2 MSTORE PUSH1 0x6 PUSH1 0x20 MSTORE PUSH1 0x40 DUP2 KECCAK256 DUP1 SLOAD PUSH2 0x2641 SWAP1 PUSH2 0x3170 JUMP JUMPDEST DUP1 PUSH1 0x1F ADD PUSH1 0x20 DUP1 SWAP2 DIV MUL PUSH1 0x20 ADD PUSH1 0x40 MLOAD SWAP1 DUP2 ADD PUSH1 0x40 MSTORE DUP1 SWAP3 SWAP2 SWAP1 DUP2 DUP2 MSTORE PUSH1 0x20 ADD DUP3 DUP1 SLOAD PUSH2 0x266D SWAP1 PUSH2 0x3170 JUMP JUMPDEST DUP1 ISZERO PUSH2 0x26BA JUMPI DUP1 PUSH1 0x1F LT PUSH2 0x268F JUMPI PUSH2 0x100 DUP1 DUP4 SLOAD DIV MUL DUP4 MSTORE SWAP2 PUSH1 0x20 ADD SWAP2 PUSH2 0x26BA JUMP JUMPDEST DUP3 ADD SWAP2 SWAP1 PUSH1 0x0 MSTORE PUSH1 0x20 PUSH1 0x0 KECCAK256 SWAP1 JUMPDEST DUP2 SLOAD DUP2 MSTORE SWAP1 PUSH1 0x1 ADD SWAP1 PUSH1 0x20 ADD DUP1 DUP4 GT PUSH2 0x269D JUMPI DUP3 SWAP1 SUB PUSH1 0x1F AND DUP3 ADD SWAP2 JUMPDEST POP POP POP POP POP SWAP1 POP PUSH1 0x0 PUSH2 0x26D8 PUSH1 0x40 DUP1 MLOAD PUSH1 0x20 DUP2 ADD SWAP1 SWAP2 MSTORE PUSH1 0x0 DUP2 MSTORE SWAP1 JUMP JUMPDEST SWAP1 POP DUP1 MLOAD PUSH1 0x0 SUB PUSH2 0x26EA JUMPI POP SWAP3 SWAP2 POP POP JUMP JUMPDEST DUP2 MLOAD ISZERO PUSH2 0x271C JUMPI DUP1 DUP3 PUSH1 0x40 MLOAD PUSH1 0x20 ADD PUSH2 0x2704 SWAP3 SWAP2 SWAP1 PUSH2 0x33E9 JUMP JUMPDEST PUSH1 0x40 MLOAD PUSH1 0x20 DUP2 DUP4 SUB SUB DUP2 MSTORE SWAP1 PUSH1 0x40 MSTORE SWAP3 POP POP POP SWAP2 SWAP1 POP JUMP JUMPDEST PUSH2 0x2725 DUP5 PUSH2 0x28FF JUMP JUMPDEST SWAP5 SWAP4 POP POP POP POP JUMP JUMPDEST PUSH1 0x0 PUSH1 0x1 PUSH1 0x1 PUSH1 0xE0 SHL SUB NOT DUP3 AND PUSH4 0x80AC58CD PUSH1 0xE0 SHL EQ DUP1 PUSH2 0x275E JUMPI POP PUSH1 0x1 PUSH1 0x1 PUSH1 0xE0 SHL SUB NOT DUP3 AND PUSH4 0x5B5E139F PUSH1 0xE0 SHL EQ JUMPDEST DUP1 PUSH2 0x76B JUMPI POP PUSH4 0x1FFC9A7 PUSH1 0xE0 SHL PUSH1 0x1 PUSH1 0x1 PUSH1 0xE0 SHL SUB NOT DUP4 AND EQ PUSH2 0x76B JUMP JUMPDEST DUP1 DUP1 PUSH2 0x2791 JUMPI POP PUSH1 0x1 PUSH1 0x1 PUSH1 0xA0 SHL SUB DUP3 AND ISZERO ISZERO JUMPDEST ISZERO PUSH2 0x2853 JUMPI PUSH1 0x0 PUSH2 0x27A1 DUP5 PUSH2 0x2018 JUMP JUMPDEST SWAP1 POP PUSH1 0x1 PUSH1 0x1 PUSH1 0xA0 SHL SUB DUP4 AND ISZERO DUP1 ISZERO SWAP1 PUSH2 0x27CD JUMPI POP DUP3 PUSH1 0x1 PUSH1 0x1 PUSH1 0xA0 SHL SUB AND DUP2 PUSH1 0x1 PUSH1 0x1 PUSH1 0xA0 SHL SUB AND EQ ISZERO JUMPDEST DUP1 ISZERO PUSH2 0x27E0 JUMPI POP PUSH2 0x27DE DUP2 DUP5 PUSH2 0x1F8A JUMP JUMPDEST ISZERO JUMPDEST ISZERO PUSH2 0x2809 JUMPI PUSH1 0x40 MLOAD PUSH4 0xA9FBF51F PUSH1 0xE0 SHL DUP2 MSTORE PUSH1 0x1 PUSH1 0x1 PUSH1 0xA0 SHL SUB DUP5 AND PUSH1 0x4 DUP3 ADD MSTORE PUSH1 0x24 ADD PUSH2 0x880 JUMP JUMPDEST DUP2 ISZERO PUSH2 0x2851 JUMPI DUP4 DUP6 PUSH1 0x1 PUSH1 0x1 PUSH1 0xA0 SHL SUB AND DUP3 PUSH1 0x1 PUSH1 0x1 PUSH1 0xA0 SHL SUB AND PUSH32 0x8C5BE1E5EBEC7D5BD14F71427D1E84F3DD0314C0F7B2291E5B200AC8C7C3B925 PUSH1 0x40 MLOAD PUSH1 0x40 MLOAD DUP1 SWAP2 SUB SWAP1 LOG4 JUMPDEST POP JUMPDEST POP POP PUSH1 0x0 SWAP1 DUP2 MSTORE PUSH1 0x4 PUSH1 0x20 MSTORE PUSH1 0x40 SWAP1 KECCAK256 DUP1 SLOAD PUSH1 0x1 PUSH1 0x1 PUSH1 0xA0 SHL SUB NOT AND PUSH1 0x1 PUSH1 0x1 PUSH1 0xA0 SHL SUB SWAP3 SWAP1 SWAP3 AND SWAP2 SWAP1 SWAP2 OR SWAP1 SSTORE JUMP JUMPDEST PUSH2 0x288E DUP4 DUP4 DUP4 PUSH2 0x2974 JUMP JUMPDEST PUSH2 0x9F3 JUMPI PUSH1 0x1 PUSH1 0x1 PUSH1 0xA0 SHL SUB DUP4 AND PUSH2 0x28BC JUMPI PUSH1 0x40 MLOAD PUSH4 0x7E273289 PUSH1 0xE0 SHL DUP2 MSTORE PUSH1 0x4 DUP2 ADD DUP3 SWAP1 MSTORE PUSH1 0x24 ADD PUSH2 0x880 JUMP JUMPDEST PUSH1 0x40 MLOAD PUSH4 0x177E802F PUSH1 0xE0 SHL DUP2 MSTORE PUSH1 0x1 PUSH1 0x1 PUSH1 0xA0 SHL SUB DUP4 AND PUSH1 0x4 DUP3 ADD MSTORE PUSH1 0x24 DUP2 ADD DUP3 SWAP1 MSTORE PUSH1 0x44 ADD PUSH2 0x880 JUMP JUMPDEST PUSH2 0x28F1 DUP4 DUP4 PUSH2 0x29D7 JUMP JUMPDEST PUSH2 0x9F3 CALLER PUSH1 0x0 DUP6 DUP6 DUP6 PUSH2 0x2487 JUMP JUMPDEST PUSH1 0x60 PUSH2 0x290A DUP3 PUSH2 0x2018 JUMP JUMPDEST POP PUSH1 0x0 PUSH2 0x2922 PUSH1 0x40 DUP1 MLOAD PUSH1 0x20 DUP2 ADD SWAP1 SWAP2 MSTORE PUSH1 0x0 DUP2 MSTORE SWAP1 JUMP JUMPDEST SWAP1 POP PUSH1 0x0 DUP2 MLOAD GT PUSH2 0x2942 JUMPI PUSH1 0x40 MLOAD DUP1 PUSH1 0x20 ADD PUSH1 0x40 MSTORE DUP1 PUSH1 0x0 DUP2 MSTORE POP PUSH2 0x296D JUMP JUMPDEST DUP1 PUSH2 0x294C DUP5 PUSH2 0x2A3C JUMP JUMPDEST PUSH1 0x40 MLOAD PUSH1 0x20 ADD PUSH2 0x295D SWAP3 SWAP2 SWAP1 PUSH2 0x33E9 JUMP JUMPDEST PUSH1 0x40 MLOAD PUSH1 0x20 DUP2 DUP4 SUB SUB DUP2 MSTORE SWAP1 PUSH1 0x40 MSTORE JUMPDEST SWAP4 SWAP3 POP POP POP JUMP JUMPDEST PUSH1 0x0 PUSH1 0x1 PUSH1 0x1 PUSH1 0xA0 SHL SUB DUP4 AND ISZERO DUP1 ISZERO SWAP1 PUSH2 0x2725 JUMPI POP DUP3 PUSH1 0x1 PUSH1 0x1 PUSH1 0xA0 SHL SUB AND DUP5 PUSH1 0x1 PUSH1 0x1 PUSH1 0xA0 SHL SUB AND EQ DUP1 PUSH2 0x29AE JUMPI POP PUSH2 0x29AE DUP5 DUP5 PUSH2 0x1F8A JUMP JUMPDEST DUP1 PUSH2 0x2725 JUMPI POP POP PUSH1 0x0 SWAP1 DUP2 MSTORE PUSH1 0x4 PUSH1 0x20 MSTORE PUSH1 0x40 SWAP1 KECCAK256 SLOAD PUSH1 0x1 PUSH1 0x1 PUSH1 0xA0 SHL SUB SWAP1 DUP2 AND SWAP2 AND EQ SWAP2 SWAP1 POP JUMP JUMPDEST PUSH1 0x1 PUSH1 0x1 PUSH1 0xA0 SHL SUB DUP3 AND PUSH2 0x2A01 JUMPI PUSH1 0x40 MLOAD PUSH4 0x32505749 PUSH1 0xE1 SHL DUP2 MSTORE PUSH1 0x0 PUSH1 0x4 DUP3 ADD MSTORE PUSH1 0x24 ADD PUSH2 0x880 JUMP JUMPDEST PUSH1 0x0 PUSH2 0x2A0F DUP4 DUP4 PUSH1 0x0 PUSH2 0x208B JUMP JUMPDEST SWAP1 POP PUSH1 0x1 PUSH1 0x1 PUSH1 0xA0 SHL SUB DUP2 AND ISZERO PUSH2 0x9F3 JUMPI PUSH1 0x40 MLOAD PUSH4 0x39E35637 PUSH1 0xE1 SHL DUP2 MSTORE PUSH1 0x0 PUSH1 0x4 DUP3 ADD MSTORE PUSH1 0x24 ADD PUSH2 0x880 JUMP JUMPDEST PUSH1 0x60 PUSH1 0x0 PUSH2 0x2A49 DUP4 PUSH2 0x2ACF JUMP JUMPDEST PUSH1 0x1 ADD SWAP1 POP PUSH1 0x0 DUP2 PUSH8 0xFFFFFFFFFFFFFFFF DUP2 GT ISZERO PUSH2 0x2A69 JUMPI PUSH2 0x2A69 PUSH2 0x2E9F JUMP JUMPDEST PUSH1 0x40 MLOAD SWAP1 DUP1 DUP3 MSTORE DUP1 PUSH1 0x1F ADD PUSH1 0x1F NOT AND PUSH1 0x20 ADD DUP3 ADD PUSH1 0x40 MSTORE DUP1 ISZERO PUSH2 0x2A93 JUMPI PUSH1 0x20 DUP3 ADD DUP2 DUP1 CALLDATASIZE DUP4 CALLDATACOPY ADD SWAP1 POP JUMPDEST POP SWAP1 POP DUP2 DUP2 ADD PUSH1 0x20 ADD JUMPDEST PUSH1 0x0 NOT ADD PUSH16 0x181899199A1A9B1B9C1CB0B131B232B3 PUSH1 0x81 SHL PUSH1 0xA DUP7 MOD BYTE DUP2 MSTORE8 PUSH1 0xA DUP6 DIV SWAP5 POP DUP5 PUSH2 0x2A9D JUMPI POP SWAP4 SWAP3 POP POP POP JUMP JUMPDEST PUSH1 0x0 DUP1 PUSH19 0x184F03E93FF9F4DAA797ED6E38ED64BF6A1F01 PUSH1 0x40 SHL DUP4 LT PUSH2 0x2B0E JUMPI PUSH19 0x184F03E93FF9F4DAA797ED6E38ED64BF6A1F01 PUSH1 0x40 SHL DUP4 DIV SWAP3 POP PUSH1 0x40 ADD JUMPDEST PUSH14 0x4EE2D6D415B85ACEF8100000000 DUP4 LT PUSH2 0x2B3A JUMPI PUSH14 0x4EE2D6D415B85ACEF8100000000 DUP4 DIV SWAP3 POP PUSH1 0x20 ADD JUMPDEST PUSH7 0x2386F26FC10000 DUP4 LT PUSH2 0x2B58 JUMPI PUSH7 0x2386F26FC10000 DUP4 DIV SWAP3 POP PUSH1 0x10 ADD JUMPDEST PUSH4 0x5F5E100 DUP4 LT PUSH2 0x2B70 JUMPI PUSH4 0x5F5E100 DUP4 DIV SWAP3 POP PUSH1 0x8 ADD JUMPDEST PUSH2 0x2710 DUP4 LT PUSH2 0x2B84 JUMPI PUSH2 0x2710 DUP4 DIV SWAP3 POP PUSH1 0x4 ADD JUMPDEST PUSH1 0x64 DUP4 LT PUSH2 0x2B96 JUMPI PUSH1 0x64 DUP4 DIV SWAP3 POP PUSH1 0x2 ADD JUMPDEST PUSH1 0xA DUP4 LT PUSH2 0x76B JUMPI PUSH1 0x1 ADD SWAP3 SWAP2 POP POP JUMP JUMPDEST POP DUP1 SLOAD PUSH2 0x2BB3 SWAP1 PUSH2 0x3170 JUMP JUMPDEST PUSH1 0x0 DUP3 SSTORE DUP1 PUSH1 0x1F LT PUSH2 0x2BC3 JUMPI POP POP JUMP JUMPDEST PUSH1 0x1F ADD PUSH1 0x20 SWAP1 DIV SWAP1 PUSH1 0x0 MSTORE PUSH1 0x20 PUSH1 0x0 KECCAK256 SWAP1 DUP2 ADD SWAP1 PUSH2 0x9D5 SWAP2 SWAP1 JUMPDEST DUP1 DUP3 GT ISZERO PUSH2 0x2BF1 JUMPI PUSH1 0x0 DUP2 SSTORE PUSH1 0x1 ADD PUSH2 0x2BDD JUMP JUMPDEST POP SWAP1 JUMP JUMPDEST PUSH1 0x1 PUSH1 0x1 PUSH1 0xE0 SHL SUB NOT DUP2 AND DUP2 EQ PUSH2 0x9D5 JUMPI PUSH1 0x0 DUP1 REVERT JUMPDEST PUSH1 0x0 PUSH1 0x20 DUP3 DUP5 SUB SLT ISZERO PUSH2 0x2C1D JUMPI PUSH1 0x0 DUP1 REVERT JUMPDEST DUP2 CALLDATALOAD PUSH2 0x296D DUP2 PUSH2 0x2BF5 JUMP JUMPDEST PUSH1 0x0 JUMPDEST DUP4 DUP2 LT ISZERO PUSH2 0x2C43 JUMPI DUP2 DUP2 ADD MLOAD DUP4 DUP3 ADD MSTORE PUSH1 0x20 ADD PUSH2 0x2C2B JUMP JUMPDEST POP POP PUSH1 0x0 SWAP2 ADD MSTORE JUMP JUMPDEST PUSH1 0x0 DUP2 MLOAD DUP1 DUP5 MSTORE PUSH2 0x2C64 DUP2 PUSH1 0x20 DUP7 ADD PUSH1 0x20 DUP7 ADD PUSH2 0x2C28 JUMP JUMPDEST PUSH1 0x1F ADD PUSH1 0x1F NOT AND SWAP3 SWAP1 SWAP3 ADD PUSH1 0x20 ADD SWAP3 SWAP2 POP POP JUMP JUMPDEST PUSH1 0x20 DUP2 MSTORE PUSH1 0x0 PUSH2 0x296D PUSH1 0x20 DUP4 ADD DUP5 PUSH2 0x2C4C JUMP JUMPDEST PUSH1 0x0 PUSH1 0x20 DUP3 DUP5 SUB SLT ISZERO PUSH2 0x2C9D JUMPI PUSH1 0x0 DUP1 REVERT JUMPDEST POP CALLDATALOAD SWAP2 SWAP1 POP JUMP JUMPDEST PUSH1 0x1 PUSH1 0x1 PUSH1 0xA0 SHL SUB DUP2 AND DUP2 EQ PUSH2 0x9D5 JUMPI PUSH1 0x0 DUP1 REVERT JUMPDEST PUSH1 0x0 DUP1 PUSH1 0x40 DUP4 DUP6 SUB SLT ISZERO PUSH2 0x2CCC JUMPI PUSH1 0x0 DUP1 REVERT JUMPDEST DUP3 CALLDATALOAD PUSH2 0x2CD7 DUP2 PUSH2 0x2CA4 JUMP JUMPDEST SWAP5 PUSH1 0x20 SWAP4 SWAP1 SWAP4 ADD CALLDATALOAD SWAP4 POP POP POP JUMP JUMPDEST PUSH1 0x0 DUP1 PUSH1 0x0 PUSH1 0x60 DUP5 DUP7 SUB SLT ISZERO PUSH2 0x2CFA JUMPI PUSH1 0x0 DUP1 REVERT JUMPDEST DUP4 CALLDATALOAD PUSH2 0x2D05 DUP2 PUSH2 0x2CA4 JUMP JUMPDEST SWAP3 POP PUSH1 0x20 DUP5 ADD CALLDATALOAD PUSH2 0x2D15 DUP2 PUSH2 0x2CA4 JUMP JUMPDEST SWAP3 SWAP6 SWAP3 SWAP5 POP POP POP PUSH1 0x40 SWAP2 SWAP1 SWAP2 ADD CALLDATALOAD SWAP1 JUMP JUMPDEST PUSH1 0x0 DUP1 PUSH1 0x40 DUP4 DUP6 SUB SLT ISZERO PUSH2 0x2D39 JUMPI PUSH1 0x0 DUP1 REVERT JUMPDEST DUP3 CALLDATALOAD SWAP2 POP PUSH1 0x20 DUP4 ADD CALLDATALOAD PUSH2 0x2D4B DUP2 PUSH2 0x2CA4 JUMP JUMPDEST DUP1 SWAP2 POP POP SWAP3 POP SWAP3 SWAP1 POP JUMP JUMPDEST DUP11 DUP2 MSTORE PUSH1 0x1 PUSH1 0x1 PUSH1 0xA0 SHL SUB DUP11 AND PUSH1 0x20 DUP3 ADD MSTORE PUSH2 0x140 PUSH1 0x40 DUP3 ADD DUP2 SWAP1 MSTORE PUSH1 0x0 SWAP1 PUSH2 0x2D81 DUP4 DUP3 ADD DUP13 PUSH2 0x2C4C JUMP JUMPDEST SWAP1 POP DUP3 DUP2 SUB PUSH1 0x60 DUP5 ADD MSTORE PUSH2 0x2D95 DUP2 DUP12 PUSH2 0x2C4C JUMP JUMPDEST SWAP1 POP DUP3 DUP2 SUB PUSH1 0x80 DUP5 ADD MSTORE PUSH2 0x2DA9 DUP2 DUP11 PUSH2 0x2C4C JUMP JUMPDEST SWAP1 POP DUP3 DUP2 SUB PUSH1 0xA0 DUP5 ADD MSTORE PUSH2 0x2DBD DUP2 DUP10 PUSH2 0x2C4C JUMP JUMPDEST PUSH1 0xC0 DUP5 ADD SWAP8 SWAP1 SWAP8 MSTORE POP POP PUSH1 0xE0 DUP2 ADD SWAP4 SWAP1 SWAP4 MSTORE SWAP1 ISZERO ISZERO PUSH2 0x100 DUP4 ADD MSTORE PUSH2 0x120 SWAP1 SWAP2 ADD MSTORE SWAP7 SWAP6 POP POP POP POP POP POP JUMP JUMPDEST PUSH1 0x0 PUSH2 0x100 DUP11 DUP4 MSTORE PUSH1 0x1 DUP1 PUSH1 0xA0 SHL SUB DUP11 AND PUSH1 0x20 DUP5 ADD MSTORE DUP9 PUSH1 0x40 DUP5 ADD MSTORE DUP8 PUSH1 0x60 DUP5 ADD MSTORE DUP1 PUSH1 0x80 DUP5 ADD MSTORE PUSH2 0x2E1D DUP2 DUP5 ADD DUP9 PUSH2 0x2C4C JUMP JUMPDEST PUSH1 0xA0 DUP5 ADD SWAP7 SWAP1 SWAP7 MSTORE POP POP SWAP2 ISZERO ISZERO PUSH1 0xC0 DUP4 ADD MSTORE PUSH1 0xE0 SWAP1 SWAP2 ADD MSTORE SWAP6 SWAP5 POP POP POP POP POP JUMP JUMPDEST PUSH1 0x0 PUSH1 0x20 DUP3 DUP5 SUB SLT ISZERO PUSH2 0x2E50 JUMPI PUSH1 0x0 DUP1 REVERT JUMPDEST DUP2 CALLDATALOAD PUSH2 0x296D DUP2 PUSH2 0x2CA4 JUMP JUMPDEST PUSH1 0x20 DUP1 DUP3 MSTORE DUP3 MLOAD DUP3 DUP3 ADD DUP2 SWAP1 MSTORE PUSH1 0x0 SWAP2 SWAP1 DUP5 DUP3 ADD SWAP1 PUSH1 0x40 DUP6 ADD SWAP1 DUP5 JUMPDEST DUP2 DUP2 LT ISZERO PUSH2 0x2E93 JUMPI DUP4 MLOAD DUP4 MSTORE SWAP3 DUP5 ADD SWAP3 SWAP2 DUP5 ADD SWAP2 PUSH1 0x1 ADD PUSH2 0x2E77 JUMP JUMPDEST POP SWAP1 SWAP7 SWAP6 POP POP POP POP POP POP JUMP JUMPDEST PUSH4 0x4E487B71 PUSH1 0xE0 SHL PUSH1 0x0 MSTORE PUSH1 0x41 PUSH1 0x4 MSTORE PUSH1 0x24 PUSH1 0x0 REVERT JUMPDEST PUSH1 0x0 PUSH8 0xFFFFFFFFFFFFFFFF DUP1 DUP5 GT ISZERO PUSH2 0x2ED0 JUMPI PUSH2 0x2ED0 PUSH2 0x2E9F JUMP JUMPDEST PUSH1 0x40 MLOAD PUSH1 0x1F DUP6 ADD PUSH1 0x1F NOT SWAP1 DUP2 AND PUSH1 0x3F ADD AND DUP2 ADD SWAP1 DUP3 DUP3 GT DUP2 DUP4 LT OR ISZERO PUSH2 0x2EF8 JUMPI PUSH2 0x2EF8 PUSH2 0x2E9F JUMP JUMPDEST DUP2 PUSH1 0x40 MSTORE DUP1 SWAP4 POP DUP6 DUP2 MSTORE DUP7 DUP7 DUP7 ADD GT ISZERO PUSH2 0x2F11 JUMPI PUSH1 0x0 DUP1 REVERT JUMPDEST DUP6 DUP6 PUSH1 0x20 DUP4 ADD CALLDATACOPY PUSH1 0x0 PUSH1 0x20 DUP8 DUP4 ADD ADD MSTORE POP POP POP SWAP4 SWAP3 POP POP POP JUMP JUMPDEST PUSH1 0x0 DUP3 PUSH1 0x1F DUP4 ADD SLT PUSH2 0x2F3C JUMPI PUSH1 0x0 DUP1 REVERT JUMPDEST PUSH2 0x296D DUP4 DUP4 CALLDATALOAD PUSH1 0x20 DUP6 ADD PUSH2 0x2EB5 JUMP JUMPDEST PUSH1 0x0 DUP1 PUSH1 0x0 DUP1 PUSH1 0x80 DUP6 DUP8 SUB SLT ISZERO PUSH2 0x2F61 JUMPI PUSH1 0x0 DUP1 REVERT JUMPDEST DUP5 CALLDATALOAD PUSH8 0xFFFFFFFFFFFFFFFF DUP1 DUP3 GT ISZERO PUSH2 0x2F79 JUMPI PUSH1 0x0 DUP1 REVERT JUMPDEST PUSH2 0x2F85 DUP9 DUP4 DUP10 ADD PUSH2 0x2F2B JUMP JUMPDEST SWAP6 POP PUSH1 0x20 DUP8 ADD CALLDATALOAD SWAP2 POP DUP1 DUP3 GT ISZERO PUSH2 0x2F9B JUMPI PUSH1 0x0 DUP1 REVERT JUMPDEST PUSH2 0x2FA7 DUP9 DUP4 DUP10 ADD PUSH2 0x2F2B JUMP JUMPDEST SWAP5 POP PUSH1 0x40 DUP8 ADD CALLDATALOAD SWAP2 POP DUP1 DUP3 GT ISZERO PUSH2 0x2FBD JUMPI PUSH1 0x0 DUP1 REVERT JUMPDEST PUSH2 0x2FC9 DUP9 DUP4 DUP10 ADD PUSH2 0x2F2B JUMP JUMPDEST SWAP4 POP PUSH1 0x60 DUP8 ADD CALLDATALOAD SWAP2 POP DUP1 DUP3 GT ISZERO PUSH2 0x2FDF JUMPI PUSH1 0x0 DUP1 REVERT JUMPDEST POP PUSH2 0x2FEC DUP8 DUP3 DUP9 ADD PUSH2 0x2F2B JUMP JUMPDEST SWAP2 POP POP SWAP3 SWAP6 SWAP2 SWAP5 POP SWAP3 POP JUMP JUMPDEST PUSH1 0x0 DUP1 PUSH1 0x40 DUP4 DUP6 SUB SLT ISZERO PUSH2 0x300B JUMPI PUSH1 0x0 DUP1 REVERT JUMPDEST DUP3 CALLDATALOAD PUSH2 0x3016 DUP2 PUSH2 0x2CA4 JUMP JUMPDEST SWAP2 POP PUSH1 0x20 DUP4 ADD CALLDATALOAD DUP1 ISZERO ISZERO DUP2 EQ PUSH2 0x2D4B JUMPI PUSH1 0x0 DUP1 REVERT JUMPDEST PUSH1 0x0 DUP1 PUSH1 0x40 DUP4 DUP6 SUB SLT ISZERO PUSH2 0x303E JUMPI PUSH1 0x0 DUP1 REVERT JUMPDEST POP POP DUP1 CALLDATALOAD SWAP3 PUSH1 0x20 SWAP1 SWAP2 ADD CALLDATALOAD SWAP2 POP JUMP JUMPDEST PUSH1 0x0 DUP1 PUSH1 0x0 DUP1 PUSH1 0x80 DUP6 DUP8 SUB SLT ISZERO PUSH2 0x3063 JUMPI PUSH1 0x0 DUP1 REVERT JUMPDEST DUP5 CALLDATALOAD PUSH2 0x306E DUP2 PUSH2 0x2CA4 JUMP JUMPDEST SWAP4 POP PUSH1 0x20 DUP6 ADD CALLDATALOAD PUSH2 0x307E DUP2 PUSH2 0x2CA4 JUMP JUMPDEST SWAP3 POP PUSH1 0x40 DUP6 ADD CALLDATALOAD SWAP2 POP PUSH1 0x60 DUP6 ADD CALLDATALOAD PUSH8 0xFFFFFFFFFFFFFFFF DUP2 GT ISZERO PUSH2 0x30A1 JUMPI PUSH1 0x0 DUP1 REVERT JUMPDEST DUP6 ADD PUSH1 0x1F DUP2 ADD DUP8 SGT PUSH2 0x30B2 JUMPI PUSH1 0x0 DUP1 REVERT JUMPDEST PUSH2 0x2FEC DUP8 DUP3 CALLDATALOAD PUSH1 0x20 DUP5 ADD PUSH2 0x2EB5 JUMP JUMPDEST PUSH1 0x0 DUP1 PUSH1 0x0 DUP1 PUSH1 0x0 PUSH1 0xA0 DUP7 DUP9 SUB SLT ISZERO PUSH2 0x30D9 JUMPI PUSH1 0x0 DUP1 REVERT JUMPDEST DUP6 CALLDATALOAD SWAP5 POP PUSH1 0x20 DUP7 ADD CALLDATALOAD SWAP4 POP PUSH1 0x40 DUP7 ADD CALLDATALOAD SWAP3 POP PUSH1 0x60 DUP7 ADD CALLDATALOAD PUSH8 0xFFFFFFFFFFFFFFFF DUP1 DUP3 GT ISZERO PUSH2 0x3106 JUMPI PUSH1 0x0 DUP1 REVERT JUMPDEST PUSH2 0x3112 DUP10 DUP4 DUP11 ADD PUSH2 0x2F2B JUMP JUMPDEST SWAP4 POP PUSH1 0x80 DUP9 ADD CALLDATALOAD SWAP2 POP DUP1 DUP3 GT ISZERO PUSH2 0x3128 JUMPI PUSH1 0x0 DUP1 REVERT JUMPDEST POP PUSH2 0x3135 DUP9 DUP3 DUP10 ADD PUSH2 0x2F2B JUMP JUMPDEST SWAP2 POP POP SWAP3 SWAP6 POP SWAP3 SWAP6 SWAP1 SWAP4 POP JUMP JUMPDEST PUSH1 0x0 DUP1 PUSH1 0x40 DUP4 DUP6 SUB SLT ISZERO PUSH2 0x3155 JUMPI PUSH1 0x0 DUP1 REVERT JUMPDEST DUP3 CALLDATALOAD PUSH2 0x3160 DUP2 PUSH2 0x2CA4 JUMP JUMPDEST SWAP2 POP PUSH1 0x20 DUP4 ADD CALLDATALOAD PUSH2 0x2D4B DUP2 PUSH2 0x2CA4 JUMP JUMPDEST PUSH1 0x1 DUP2 DUP2 SHR SWAP1 DUP3 AND DUP1 PUSH2 0x3184 JUMPI PUSH1 0x7F DUP3 AND SWAP2 POP JUMPDEST PUSH1 0x20 DUP3 LT DUP2 SUB PUSH2 0x31A4 JUMPI PUSH4 0x4E487B71 PUSH1 0xE0 SHL PUSH1 0x0 MSTORE PUSH1 0x22 PUSH1 0x4 MSTORE PUSH1 0x24 PUSH1 0x0 REVERT JUMPDEST POP SWAP2 SWAP1 POP JUMP JUMPDEST PUSH4 0x4E487B71 PUSH1 0xE0 SHL PUSH1 0x0 MSTORE PUSH1 0x11 PUSH1 0x4 MSTORE PUSH1 0x24 PUSH1 0x0 REVERT JUMPDEST DUP1 DUP3 MUL DUP2 ISZERO DUP3 DUP3 DIV DUP5 EQ OR PUSH2 0x76B JUMPI PUSH2 0x76B PUSH2 0x31AA JUMP JUMPDEST PUSH1 0x0 DUP3 PUSH2 0x31F4 JUMPI PUSH4 0x4E487B71 PUSH1 0xE0 SHL PUSH1 0x0 MSTORE PUSH1 0x12 PUSH1 0x4 MSTORE PUSH1 0x24 PUSH1 0x0 REVERT JUMPDEST POP DIV SWAP1 JUMP JUMPDEST DUP2 DUP2 SUB DUP2 DUP2 GT ISZERO PUSH2 0x76B JUMPI PUSH2 0x76B PUSH2 0x31AA JUMP JUMPDEST PUSH1 0x0 PUSH1 0x20 DUP3 DUP5 SUB SLT ISZERO PUSH2 0x321E JUMPI PUSH1 0x0 DUP1 REVERT JUMPDEST DUP2 MLOAD PUSH2 0x296D DUP2 PUSH2 0x2CA4 JUMP JUMPDEST PUSH4 0x4E487B71 PUSH1 0xE0 SHL PUSH1 0x0 MSTORE PUSH1 0x32 PUSH1 0x4 MSTORE PUSH1 0x24 PUSH1 0x0 REVERT JUMPDEST PUSH1 0x0 PUSH1 0x1 DUP3 ADD PUSH2 0x3251 JUMPI PUSH2 0x3251 PUSH2 0x31AA JUMP JUMPDEST POP PUSH1 0x1 ADD SWAP1 JUMP JUMPDEST PUSH1 0x1F DUP3 GT ISZERO PUSH2 0x9F3 JUMPI PUSH1 0x0 DUP2 PUSH1 0x0 MSTORE PUSH1 0x20 PUSH1 0x0 KECCAK256 PUSH1 0x1F DUP6 ADD PUSH1 0x5 SHR DUP2 ADD PUSH1 0x20 DUP7 LT ISZERO PUSH2 0x3281 JUMPI POP DUP1 JUMPDEST PUSH1 0x1F DUP6 ADD PUSH1 0x5 SHR DUP3 ADD SWAP2 POP JUMPDEST DUP2 DUP2 LT ISZERO PUSH2 0x25A9 JUMPI DUP3 DUP2 SSTORE PUSH1 0x1 ADD PUSH2 0x328D JUMP JUMPDEST DUP2 MLOAD PUSH8 0xFFFFFFFFFFFFFFFF DUP2 GT ISZERO PUSH2 0x32BA JUMPI PUSH2 0x32BA PUSH2 0x2E9F JUMP JUMPDEST PUSH2 0x32CE DUP2 PUSH2 0x32C8 DUP5 SLOAD PUSH2 0x3170 JUMP JUMPDEST DUP5 PUSH2 0x3258 JUMP JUMPDEST PUSH1 0x20 DUP1 PUSH1 0x1F DUP4 GT PUSH1 0x1 DUP2 EQ PUSH2 0x3303 JUMPI PUSH1 0x0 DUP5 ISZERO PUSH2 0x32EB JUMPI POP DUP6 DUP4 ADD MLOAD JUMPDEST PUSH1 0x0 NOT PUSH1 0x3 DUP7 SWAP1 SHL SHR NOT AND PUSH1 0x1 DUP6 SWAP1 SHL OR DUP6 SSTORE PUSH2 0x25A9 JUMP JUMPDEST PUSH1 0x0 DUP6 DUP2 MSTORE PUSH1 0x20 DUP2 KECCAK256 PUSH1 0x1F NOT DUP7 AND SWAP2 JUMPDEST DUP3 DUP2 LT ISZERO PUSH2 0x3332 JUMPI DUP9 DUP7 ADD MLOAD DUP3 SSTORE SWAP5 DUP5 ADD SWAP5 PUSH1 0x1 SWAP1 SWAP2 ADD SWAP1 DUP5 ADD PUSH2 0x3313 JUMP JUMPDEST POP DUP6 DUP3 LT ISZERO PUSH2 0x3350 JUMPI DUP8 DUP6 ADD MLOAD PUSH1 0x0 NOT PUSH1 0x3 DUP9 SWAP1 SHL PUSH1 0xF8 AND SHR NOT AND DUP2 SSTORE JUMPDEST POP POP POP POP POP PUSH1 0x1 SWAP1 DUP2 SHL ADD SWAP1 SSTORE POP JUMP JUMPDEST DUP3 DUP2 MSTORE PUSH1 0x40 PUSH1 0x20 DUP3 ADD MSTORE PUSH1 0x0 PUSH2 0x2725 PUSH1 0x40 DUP4 ADD DUP5 PUSH2 0x2C4C JUMP JUMPDEST PUSH4 0x4E487B71 PUSH1 0xE0 SHL PUSH1 0x0 MSTORE PUSH1 0x31 PUSH1 0x4 MSTORE PUSH1 0x24 PUSH1 0x0 REVERT JUMPDEST PUSH1 0x1 PUSH1 0x1 PUSH1 0xA0 SHL SUB DUP6 DUP2 AND DUP3 MSTORE DUP5 AND PUSH1 0x20 DUP3 ADD MSTORE PUSH1 0x40 DUP2 ADD DUP4 SWAP1 MSTORE PUSH1 0x80 PUSH1 0x60 DUP3 ADD DUP2 SWAP1 MSTORE PUSH1 0x0 SWAP1 PUSH2 0x33C2 SWAP1 DUP4 ADD DUP5 PUSH2 0x2C4C JUMP JUMPDEST SWAP7 SWAP6 POP POP POP POP POP POP JUMP JUMPDEST PUSH1 0x0 PUSH1 0x20 DUP3 DUP5 SUB SLT ISZERO PUSH2 0x33DE JUMPI PUSH1 0x0 DUP1 REVERT JUMPDEST DUP2 MLOAD PUSH2 0x296D DUP2 PUSH2 0x2BF5 JUMP JUMPDEST PUSH1 0x0 DUP4 MLOAD PUSH2 0x33FB DUP2 DUP5 PUSH1 0x20 DUP9 ADD PUSH2 0x2C28 JUMP JUMPDEST DUP4 MLOAD SWAP1 DUP4 ADD SWAP1 PUSH2 0x340F DUP2 DUP4 PUSH1 0x20 DUP9 ADD PUSH2 0x2C28 JUMP JUMPDEST ADD SWAP5 SWAP4 POP POP POP POP JUMP INVALID LOG2 PUSH5 0x6970667358 0x22 SLT KECCAK256 LT SWAP7 0xFC BLOCKHASH STATICCALL 0xEB PUSH20 0x1B3B0FFB7DE7628AE3DF89CC5076AE185367144E PUSH20 0xEC29C97F64736F6C634300081700330000000000 "},"methodIdentifiers":{"BPS_DIVISOR()":"191fe1ed","MAX_PLATFORM_FEE_BPS()":"8d01513c","MAX_ROYALTY_PERCENT()":"de58af97","approve(address,uint256)":"095ea7b3","balanceOf(address)":"70a08231","burn(uint256)":"42966c68","buyNFT(uint256)":"51ed8288","feeRecipient()":"46904840","getApproved(uint256)":"081812fc","getNFTsForSale()":"b1888649","getTotalNFTs()":"30bdb351","getTotalRecipes()":"1650ac6d","getUserNFTs(address)":"52de4ee5","hasVoted(uint256,address)":"43859632","isApprovedForAll(address,address)":"e985e9c5","listNFTForSale(uint256,uint256)":"b2733b39","mintRecipeNFT(uint256,uint256,uint256,string,string)":"c01f0b8e","name()":"06fdde03","nftMetadata(uint256)":"49541015","owner()":"8da5cb5b","ownerOf(uint256)":"6352211e","platformFeeBps()":"22dcd13e","recipeToNFT(uint256)":"f8fdcc21","recipes(uint256)":"443c227c","removeNFTFromSale(uint256)":"a02e5107","renounceOwnership()":"715018a6","safeTransferFrom(address,address,uint256)":"42842e0e","safeTransferFrom(address,address,uint256,bytes)":"b88d4fde","setApprovalForAll(address,bool)":"a22cb465","setFeeRecipient(address)":"e74b981b","setPlatformFee(uint256)":"12e8e2c3","submitRecipe(string,string,string,string)":"815d8f94","supportsInterface(bytes4)":"01ffc9a7","symbol()":"95d89b41","tokenURI(uint256)":"c87b56dd","transferFrom(address,address,uint256)":"23b872dd","transferOwnership(address)":"f2fde38b","userReputation(address)":"e503bb05","voteRecipe(uint256)":"69954345","withdrawEmergency()":"4146a073"}}}}}