{
  "_format": "hh-sol-artifact-1",
  "contractName": "Telepathia",
  "sourceName": "contracts/Telepathia.sol",
  "abi": [
    {
      "inputs": [],
      "stateMutability": "nonpayable",
      "type": "constructor"
    },
    {
      "anonymous": false,
      "inputs": [
        {
          "indexed": true,
          "internalType": "uint256",
          "name": "messageId",
          "type": "uint256"
        },
        {
          "indexed": true,
          "internalType": "address",
          "name": "reader",
          "type": "address"
        },
        {
          "indexed": false,
          "internalType": "uint256",
          "name": "timestamp",
          "type": "uint256"
        }
      ],
      "name": "MessageRead",
      "type": "event"
    },
    {
      "anonymous": false,
      "inputs": [
        {
          "indexed": true,
          "internalType": "address",
          "name": "sender",
          "type": "address"
        },
        {
          "indexed": true,
          "internalType": "address",
          "name": "receiver",
          "type": "address"
        },
        {
          "indexed": false,
          "internalType": "uint256",
          "name": "messageId",
          "type": "uint256"
        },
        {
          "indexed": false,
          "internalType": "string",
          "name": "encryptedContent",
          "type": "string"
        },
        {
          "indexed": false,
          "internalType": "uint256",
          "name": "timestamp",
          "type": "uint256"
        }
      ],
      "name": "MessageSent",
      "type": "event"
    },
    {
      "anonymous": false,
      "inputs": [
        {
          "indexed": true,
          "internalType": "address",
          "name": "creator",
          "type": "address"
        },
        {
          "indexed": false,
          "internalType": "uint256",
          "name": "threadId",
          "type": "uint256"
        },
        {
          "indexed": false,
          "internalType": "string",
          "name": "name",
          "type": "string"
        },
        {
          "indexed": false,
          "internalType": "bool",
          "name": "isGroup",
          "type": "bool"
        }
      ],
      "name": "ThreadCreated",
      "type": "event"
    },
    {
      "anonymous": false,
      "inputs": [
        {
          "indexed": true,
          "internalType": "uint256",
          "name": "threadId",
          "type": "uint256"
        },
        {
          "indexed": true,
          "internalType": "address",
          "name": "participant",
          "type": "address"
        }
      ],
      "name": "ThreadJoined",
      "type": "event"
    },
    {
      "anonymous": false,
      "inputs": [
        {
          "indexed": true,
          "internalType": "address",
          "name": "user",
          "type": "address"
        },
        {
          "indexed": false,
          "internalType": "string",
          "name": "username",
          "type": "string"
        },
        {
          "indexed": false,
          "internalType": "string",
          "name": "publicKey",
          "type": "string"
        }
      ],
      "name": "UserRegistered",
      "type": "event"
    },
    {
      "inputs": [
        {
          "internalType": "string",
          "name": "_name",
          "type": "string"
        },
        {
          "internalType": "bool",
          "name": "_isGroup",
          "type": "bool"
        },
        {
          "internalType": "address[]",
          "name": "_initialParticipants",
          "type": "address[]"
        }
      ],
      "name": "createThread",
      "outputs": [
        {
          "internalType": "uint256",
          "name": "",
          "type": "uint256"
        }
      ],
      "stateMutability": "nonpayable",
      "type": "function"
    },
    {
      "inputs": [
        {
          "internalType": "address",
          "name": "_user1",
          "type": "address"
        },
        {
          "internalType": "address",
          "name": "_user2",
          "type": "address"
        },
        {
          "internalType": "uint256",
          "name": "_fromIndex",
          "type": "uint256"
        },
        {
          "internalType": "uint256",
          "name": "_count",
          "type": "uint256"
        }
      ],
      "name": "getDirectMessages",
      "outputs": [
        {
          "components": [
            {
              "internalType": "uint256",
              "name": "id",
              "type": "uint256"
            },
            {
              "internalType": "address",
              "name": "sender",
              "type": "address"
            },
            {
              "internalType": "address",
              "name": "receiver",
              "type": "address"
            },
            {
              "internalType": "string",
              "name": "encryptedContent",
              "type": "string"
            },
            {
              "internalType": "uint256",
              "name": "timestamp",
              "type": "uint256"
            },
            {
              "internalType": "bool",
              "name": "isRead",
              "type": "bool"
            }
          ],
          "internalType": "struct Telepathia.DirectMessage[]",
          "name": "",
          "type": "tuple[]"
        }
      ],
      "stateMutability": "view",
      "type": "function"
    },
    {
      "inputs": [
        {
          "internalType": "uint256",
          "name": "_threadId",
          "type": "uint256"
        }
      ],
      "name": "getThreadInfo",
      "outputs": [
        {
          "components": [
            {
              "internalType": "uint256",
              "name": "id",
              "type": "uint256"
            },
            {
              "internalType": "string",
              "name": "name",
              "type": "string"
            },
            {
              "internalType": "address",
              "name": "creator",
              "type": "address"
            },
            {
              "internalType": "bool",
              "name": "isGroup",
              "type": "bool"
            },
            {
              "internalType": "uint256",
              "name": "createdAt",
              "type": "uint256"
            },
            {
              "internalType": "address[]",
              "name": "participants",
              "type": "address[]"
            }
          ],
          "internalType": "struct Telepathia.Thread",
          "name": "",
          "type": "tuple"
        }
      ],
      "stateMutability": "view",
      "type": "function"
    },
    {
      "inputs": [
        {
          "internalType": "uint256",
          "name": "_threadId",
          "type": "uint256"
        },
        {
          "internalType": "uint256",
          "name": "_fromIndex",
          "type": "uint256"
        },
        {
          "internalType": "uint256",
          "name": "_count",
          "type": "uint256"
        }
      ],
      "name": "getThreadMessages",
      "outputs": [
        {
          "components": [
            {
              "internalType": "uint256",
              "name": "id",
              "type": "uint256"
            },
            {
              "internalType": "address",
              "name": "sender",
              "type": "address"
            },
            {
              "internalType": "string",
              "name": "encryptedContent",
              "type": "string"
            },
            {
              "internalType": "uint256",
              "name": "timestamp",
              "type": "uint256"
            },
            {
              "internalType": "address[]",
              "name": "readBy",
              "type": "address[]"
            }
          ],
          "internalType": "struct Telepathia.Message[]",
          "name": "",
          "type": "tuple[]"
        }
      ],
      "stateMutability": "view",
      "type": "function"
    },
    {
      "inputs": [
        {
          "internalType": "address",
          "name": "_userAddress",
          "type": "address"
        }
      ],
      "name": "getUnreadMessageCount",
      "outputs": [
        {
          "internalType": "uint256",
          "name": "",
          "type": "uint256"
        }
      ],
      "stateMutability": "view",
      "type": "function"
    },
    {
      "inputs": [
        {
          "internalType": "address",
          "name": "_userAddress",
          "type": "address"
        }
      ],
      "name": "getUserProfile",
      "outputs": [
        {
          "components": [
            {
              "internalType": "string",
              "name": "username",
              "type": "string"
            },
            {
              "internalType": "string",
              "name": "publicKey",
              "type": "string"
            },
            {
              "internalType": "uint256",
              "name": "lastSeen",
              "type": "uint256"
            },
            {
              "internalType": "bool",
              "name": "isRegistered",
              "type": "bool"
            }
          ],
          "internalType": "struct Telepathia.UserProfile",
          "name": "",
          "type": "tuple"
        }
      ],
      "stateMutability": "view",
      "type": "function"
    },
    {
      "inputs": [
        {
          "internalType": "address",
          "name": "_userAddress",
          "type": "address"
        }
      ],
      "name": "getUserThreads",
      "outputs": [
        {
          "internalType": "uint256[]",
          "name": "",
          "type": "uint256[]"
        }
      ],
      "stateMutability": "view",
      "type": "function"
    },
    {
      "inputs": [
        {
          "internalType": "uint256",
          "name": "_threadId",
          "type": "uint256"
        }
      ],
      "name": "joinThread",
      "outputs": [],
      "stateMutability": "nonpayable",
      "type": "function"
    },
    {
      "inputs": [
        {
          "internalType": "uint256",
          "name": "_messageId",
          "type": "uint256"
        }
      ],
      "name": "markMessageAsRead",
      "outputs": [],
      "stateMutability": "nonpayable",
      "type": "function"
    },
    {
      "inputs": [],
      "name": "owner",
      "outputs": [
        {
          "internalType": "address",
          "name": "",
          "type": "address"
        }
      ],
      "stateMutability": "view",
      "type": "function"
    },
    {
      "inputs": [
        {
          "internalType": "string",
          "name": "_username",
          "type": "string"
        },
        {
          "internalType": "string",
          "name": "_publicKey",
          "type": "string"
        }
      ],
      "name": "registerUser",
      "outputs": [],
      "stateMutability": "nonpayable",
      "type": "function"
    },
    {
      "inputs": [
        {
          "internalType": "address",
          "name": "_receiver",
          "type": "address"
        },
        {
          "internalType": "string",
          "name": "_encryptedContent",
          "type": "string"
        }
      ],
      "name": "sendDirectMessage",
      "outputs": [
        {
          "internalType": "uint256",
          "name": "",
          "type": "uint256"
        }
      ],
      "stateMutability": "nonpayable",
      "type": "function"
    },
    {
      "inputs": [
        {
          "internalType": "uint256",
          "name": "_threadId",
          "type": "uint256"
        },
        {
          "internalType": "string",
          "name": "_encryptedContent",
          "type": "string"
        }
      ],
      "name": "sendThreadMessage",
      "outputs": [
        {
          "internalType": "uint256",
          "name": "",
          "type": "uint256"
        }
      ],
      "stateMutability": "nonpayable",
      "type": "function"
    },
    {
      "inputs": [],
      "name": "updateLastSeen",
      "outputs": [],
      "stateMutability": "nonpayable",
      "type": "function"
    },
    {
      "inputs": [
        {
          "internalType": "string",
          "name": "_newPublicKey",
          "type": "string"
        }
      ],
      "name": "updatePublicKey",
      "outputs": [],
      "stateMutability": "nonpayable",
      "type": "function"
    }
  ],
  "bytecode": "0x608060405260018055600160025534801561001957600080fd5b50336000806101000a81548173ffffffffffffffffffffffffffffffffffffffff021916908373ffffffffffffffffffffffffffffffffffffffff160217905550614e0c806100696000396000f3fe608060405234801561001057600080fd5b50600436106100f55760003560e01c80635ef2866011610097578063a63e10fa11610066578063a63e10fa14610296578063c1f10127146102c6578063e9891539146102e2578063f61cee5414610312576100f5565b80635ef28660146101e8578063895e1311146102185780638da5cb5b14610248578063987ee15614610266576100f5565b80631ddd58f1116100d35780631ddd58f1146101625780633b21caf11461016c5780633d331dce1461018857806356ffc4b0146101b8576100f5565b80630fb993cc146100fa5780631d2e4afd1461012a5780631dc6fa5e14610146575b600080fd5b610114600480360381019061010f91906134c2565b610342565b6040516101219190613570565b60405180910390f35b610144600480360381019061013f919061358b565b610ae6565b005b610160600480360381019061015b919061360c565b610da0565b005b61016a610ecb565b005b61018660048036038101906101819190613685565b610fa3565b005b6101a2600480360381019061019d9190613710565b611322565b6040516101af91906137fb565b60405180910390f35b6101d260048036038101906101cd919061381d565b6113b9565b6040516101df9190613570565b60405180910390f35b61020260048036038101906101fd919061387d565b6119bc565b60405161020f9190613b5d565b60405180910390f35b610232600480360381019061022d9190613b7f565b611d3e565b60405161023f9190613d40565b60405180910390f35b610250612075565b60405161025d9190613d71565b60405180910390f35b610280600480360381019061027b9190613710565b612099565b60405161028d9190613df6565b60405180910390f35b6102b060048036038101906102ab9190613710565b61223b565b6040516102bd9190613570565b60405180910390f35b6102e060048036038101906102db9190613685565b612284565b005b6102fc60048036038101906102f79190613e18565b6128cb565b6040516103099190613570565b60405180910390f35b61032c60048036038101906103279190613685565b612f84565b6040516103399190613f08565b60405180910390f35b6000600360003373ffffffffffffffffffffffffffffffffffffffff1673ffffffffffffffffffffffffffffffffffffffff16815260200190815260200160002060030160009054906101000a900460ff166103d3576040517f08c379a00000000000000000000000000000000000000000000000000000000081526004016103ca90613f87565b60405180910390fd5b60008686905011610419576040517f08c379a000000000000000000000000000000000000000000000000000000000815260040161041090613ff3565b60405180910390fd5b836105b25760018383905014610464576040517f08c379a000000000000000000000000000000000000000000000000000000000815260040161045b90614085565b60405180910390fd5b3373ffffffffffffffffffffffffffffffffffffffff168383600081811061048f5761048e6140a5565b5b90506020020160208101906104a49190613710565b73ffffffffffffffffffffffffffffffffffffffff16036104fa576040517f08c379a00000000000000000000000000000000000000000000000000000000081526004016104f190614146565b60405180910390fd5b6003600084846000818110610512576105116140a5565b5b90506020020160208101906105279190613710565b73ffffffffffffffffffffffffffffffffffffffff1673ffffffffffffffffffffffffffffffffffffffff16815260200190815260200160002060030160009054906101000a900460ff166105b1576040517f08c379a00000000000000000000000000000000000000000000000000000000081526004016105a8906141b2565b60405180910390fd5b5b6000600260008154809291906105c790614201565b91905055905060006001858590506105df9190614249565b67ffffffffffffffff8111156105f8576105f761427d565b5b6040519080825280602002602001820160405280156106265781602001602082028036833780820191505090505b509050338160008151811061063e5761063d6140a5565b5b602002602001019073ffffffffffffffffffffffffffffffffffffffff16908173ffffffffffffffffffffffffffffffffffffffff168152505060005b858590508110156107aa57600073ffffffffffffffffffffffffffffffffffffffff168686838181106106b1576106b06140a5565b5b90506020020160208101906106c69190613710565b73ffffffffffffffffffffffffffffffffffffffff160361071c576040517f08c379a0000000000000000000000000000000000000000000000000000000008152600401610713906142f8565b60405180910390fd5b85858281811061072f5761072e6140a5565b5b90506020020160208101906107449190613710565b826001836107529190614249565b81518110610763576107626140a5565b5b602002602001019073ffffffffffffffffffffffffffffffffffffffff16908173ffffffffffffffffffffffffffffffffffffffff1681525050808060010191505061067b565b506040518060c0016040528083815260200189898080601f016020809104026020016040519081016040528093929190818152602001838380828437600081840152601f19601f8201169050808301925050505050505081526020013373ffffffffffffffffffffffffffffffffffffffff168152602001871515815260200142815260200182815250600560008481526020019081526020016000206000820151816000015560208201518160010190816108669190614524565b5060408201518160020160006101000a81548173ffffffffffffffffffffffffffffffffffffffff021916908373ffffffffffffffffffffffffffffffffffffffff16021790555060608201518160020160146101000a81548160ff0219169083151502179055506080820151816003015560a08201518160040190805190602001906108f49291906131fd565b50905050600960003373ffffffffffffffffffffffffffffffffffffffff1673ffffffffffffffffffffffffffffffffffffffff16815260200190815260200160002082908060018154018082558091505060019003906000526020600020016000909190919091505560005b85859050811015610a835760036000878784818110610983576109826140a5565b5b90506020020160208101906109989190613710565b73ffffffffffffffffffffffffffffffffffffffff1673ffffffffffffffffffffffffffffffffffffffff16815260200190815260200160002060030160009054906101000a900460ff1615610a7657600960008787848181106109ff576109fe6140a5565b5b9050602002016020810190610a149190613710565b73ffffffffffffffffffffffffffffffffffffffff1673ffffffffffffffffffffffffffffffffffffffff1681526020019081526020016000208390806001815401808255809150506001900390600052602060002001600090919091909150555b8080600101915050610961565b503373ffffffffffffffffffffffffffffffffffffffff167f1e3017f37fee2d6fc8c4992037bcf897347e958123e7fbcd5b66647205d6269d838a8a8a604051610ad09493929190614641565b60405180910390a2819250505095945050505050565b600360003373ffffffffffffffffffffffffffffffffffffffff1673ffffffffffffffffffffffffffffffffffffffff16815260200190815260200160002060030160009054906101000a900460ff1615610b76576040517f08c379a0000000000000000000000000000000000000000000000000000000008152600401610b6d906146cd565b60405180910390fd5b60008484905011610bbc576040517f08c379a0000000000000000000000000000000000000000000000000000000008152600401610bb390614739565b60405180910390fd5b60008282905011610c02576040517f08c379a0000000000000000000000000000000000000000000000000000000008152600401610bf9906147a5565b60405180910390fd5b604051806080016040528085858080601f016020809104026020016040519081016040528093929190818152602001838380828437600081840152601f19601f82011690508083019250505050505050815260200183838080601f016020809104026020016040519081016040528093929190818152602001838380828437600081840152601f19601f82011690508083019250505050505050815260200142815260200160011515815250600360003373ffffffffffffffffffffffffffffffffffffffff1673ffffffffffffffffffffffffffffffffffffffff1681526020019081526020016000206000820151816000019081610d029190614524565b506020820151816001019081610d189190614524565b506040820151816002015560608201518160030160006101000a81548160ff0219169083151502179055509050503373ffffffffffffffffffffffffffffffffffffffff167f92822564bab8864c3a47b34e8d23fbce5c46234eb5da261f94087b995ac0f33b85858585604051610d9294939291906147c5565b60405180910390a250505050565b600360003373ffffffffffffffffffffffffffffffffffffffff1673ffffffffffffffffffffffffffffffffffffffff16815260200190815260200160002060030160009054906101000a900460ff16610e2f576040517f08c379a0000000000000000000000000000000000000000000000000000000008152600401610e2690613f87565b60405180910390fd5b60008282905011610e75576040517f08c379a0000000000000000000000000000000000000000000000000000000008152600401610e6c906147a5565b60405180910390fd5b8181600360003373ffffffffffffffffffffffffffffffffffffffff1673ffffffffffffffffffffffffffffffffffffffff1681526020019081526020016000206001019182610ec692919061480b565b505050565b600360003373ffffffffffffffffffffffffffffffffffffffff1673ffffffffffffffffffffffffffffffffffffffff16815260200190815260200160002060030160009054906101000a900460ff16610f5a576040517f08c379a0000000000000000000000000000000000000000000000000000000008152600401610f5190613f87565b60405180910390fd5b42600360003373ffffffffffffffffffffffffffffffffffffffff1673ffffffffffffffffffffffffffffffffffffffff16815260200190815260200160002060020181905550565b600360003373ffffffffffffffffffffffffffffffffffffffff1673ffffffffffffffffffffffffffffffffffffffff16815260200190815260200160002060030160009054906101000a900460ff16611032576040517f08c379a000000000000000000000000000000000000000000000000000000000815260040161102990613f87565b60405180910390fd5b80600073ffffffffffffffffffffffffffffffffffffffff166005600083815260200190815260200160002060020160009054906101000a900473ffffffffffffffffffffffffffffffffffffffff1673ffffffffffffffffffffffffffffffffffffffff16036110d8576040517f08c379a00000000000000000000000000000000000000000000000000000000081526004016110cf90614927565b60405180910390fd5b600060056000848152602001908152602001600020905060005b81600401805490508110156111bc573373ffffffffffffffffffffffffffffffffffffffff1682600401828154811061112e5761112d6140a5565b5b9060005260206000200160009054906101000a900473ffffffffffffffffffffffffffffffffffffffff1673ffffffffffffffffffffffffffffffffffffffff16036111af576040517f08c379a00000000000000000000000000000000000000000000000000000000081526004016111a690614993565b60405180910390fd5b80806001019150506110f2565b508060020160149054906101000a900460ff1661120e576040517f08c379a0000000000000000000000000000000000000000000000000000000008152600401611205906149ff565b60405180910390fd5b80600401339080600181540180825580915050600190039060005260206000200160009091909190916101000a81548173ffffffffffffffffffffffffffffffffffffffff021916908373ffffffffffffffffffffffffffffffffffffffff160217905550600960003373ffffffffffffffffffffffffffffffffffffffff1673ffffffffffffffffffffffffffffffffffffffff1681526020019081526020016000208390806001815401808255809150506001900390600052602060002001600090919091909150553373ffffffffffffffffffffffffffffffffffffffff16837f3721fb36fc4881e7e199b07723faae750655a63282663db030cd6ee6352c202660405160405180910390a3505050565b6060600960008373ffffffffffffffffffffffffffffffffffffffff1673ffffffffffffffffffffffffffffffffffffffff1681526020019081526020016000208054806020026020016040519081016040528092919081815260200182805480156113ad57602002820191906000526020600020905b815481526020019060010190808311611399575b50505050509050919050565b6000600360003373ffffffffffffffffffffffffffffffffffffffff1673ffffffffffffffffffffffffffffffffffffffff16815260200190815260200160002060030160009054906101000a900460ff1661144a576040517f08c379a000000000000000000000000000000000000000000000000000000000815260040161144190613f87565b60405180910390fd5b600073ffffffffffffffffffffffffffffffffffffffff168473ffffffffffffffffffffffffffffffffffffffff16036114b9576040517f08c379a00000000000000000000000000000000000000000000000000000000081526004016114b090614a6b565b60405180910390fd5b3373ffffffffffffffffffffffffffffffffffffffff168473ffffffffffffffffffffffffffffffffffffffff1603611527576040517f08c379a000000000000000000000000000000000000000000000000000000000815260040161151e90614ad7565b60405180910390fd5b6000838390501161156d576040517f08c379a000000000000000000000000000000000000000000000000000000000815260040161156490614b43565b60405180910390fd5b600360008573ffffffffffffffffffffffffffffffffffffffff1673ffffffffffffffffffffffffffffffffffffffff16815260200190815260200160002060030160009054906101000a900460ff166115fc576040517f08c379a00000000000000000000000000000000000000000000000000000000081526004016115f390614baf565b60405180910390fd5b60006001600081548092919061161190614201565b91905055905060006040518060c001604052808381526020013373ffffffffffffffffffffffffffffffffffffffff1681526020018773ffffffffffffffffffffffffffffffffffffffff16815260200186868080601f016020809104026020016040519081016040528093929190818152602001838380828437600081840152601f19601f82011690508083019250505050505050815260200142815260200160001515815250905080600860008481526020019081526020016000206000820151816000015560208201518160010160006101000a81548173ffffffffffffffffffffffffffffffffffffffff021916908373ffffffffffffffffffffffffffffffffffffffff16021790555060408201518160020160006101000a81548173ffffffffffffffffffffffffffffffffffffffff021916908373ffffffffffffffffffffffffffffffffffffffff160217905550606082015181600301908161177c9190614524565b506080820151816004015560a08201518160050160006101000a81548160ff021916908315150217905550905050600760003373ffffffffffffffffffffffffffffffffffffffff1673ffffffffffffffffffffffffffffffffffffffff16815260200190815260200160002060008773ffffffffffffffffffffffffffffffffffffffff1673ffffffffffffffffffffffffffffffffffffffff168152602001908152602001600020829080600181540180825580915050600190039060005260206000200160009091909190915055600760008773ffffffffffffffffffffffffffffffffffffffff1673ffffffffffffffffffffffffffffffffffffffff16815260200190815260200160002060003373ffffffffffffffffffffffffffffffffffffffff1673ffffffffffffffffffffffffffffffffffffffff168152602001908152602001600020829080600181540180825580915050600190039060005260206000200160009091909190915055600a60008773ffffffffffffffffffffffffffffffffffffffff1673ffffffffffffffffffffffffffffffffffffffff168152602001908152602001600020600081548092919061194090614201565b91905055508573ffffffffffffffffffffffffffffffffffffffff163373ffffffffffffffffffffffffffffffffffffffff167fc24aaa6abc274cce2eba73996dfee19f090701113987113a6196b7fc305f3b4f848888426040516119a89493929190614bcf565b60405180910390a381925050509392505050565b606083600073ffffffffffffffffffffffffffffffffffffffff166005600083815260200190815260200160002060020160009054906101000a900473ffffffffffffffffffffffffffffffffffffffff1673ffffffffffffffffffffffffffffffffffffffff1603611a64576040517f08c379a0000000000000000000000000000000000000000000000000000000008152600401611a5b90614927565b60405180910390fd5b6000600660008781526020019081526020016000209050600084905081805490508610611a945760009050611abf565b81805490508587611aa59190614249565b1115611abe57858280549050611abb9190614c0f565b90505b5b60008167ffffffffffffffff811115611adb57611ada61427d565b5b604051908082528060200260200182016040528015611b1457816020015b611b01613287565b815260200190600190039081611af95790505b50905060005b82811015611d2f5760008189611b309190614249565b60018680549050611b419190614c0f565b611b4b9190614c0f565b9050848181548110611b6057611b5f6140a5565b5b90600052602060002090600502016040518060a0016040529081600082015481526020016001820160009054906101000a900473ffffffffffffffffffffffffffffffffffffffff1673ffffffffffffffffffffffffffffffffffffffff1673ffffffffffffffffffffffffffffffffffffffff168152602001600282018054611be990614347565b80601f0160208091040260200160405190810160405280929190818152602001828054611c1590614347565b8015611c625780601f10611c3757610100808354040283529160200191611c62565b820191906000526020600020905b815481529060010190602001808311611c4557829003601f168201915b505050505081526020016003820154815260200160048201805480602002602001604051908101604052809291908181526020018280548015611cfa57602002820191906000526020600020905b8160009054906101000a900473ffffffffffffffffffffffffffffffffffffffff1673ffffffffffffffffffffffffffffffffffffffff1681526020019060010190808311611cb0575b505050505081525050838381518110611d1657611d156140a5565b5b6020026020010181905250508080600101915050611b1a565b50809450505050509392505050565b60606000600760008773ffffffffffffffffffffffffffffffffffffffff1673ffffffffffffffffffffffffffffffffffffffff16815260200190815260200160002060008673ffffffffffffffffffffffffffffffffffffffff1673ffffffffffffffffffffffffffffffffffffffff1681526020019081526020016000209050600083905081805490508510611dd95760009050611e04565b81805490508486611dea9190614249565b1115611e0357848280549050611e009190614c0f565b90505b5b60008167ffffffffffffffff811115611e2057611e1f61427d565b5b604051908082528060200260200182016040528015611e5957816020015b611e466132cc565b815260200190600190039081611e3e5790505b50905060005b828110156120665760008188611e759190614249565b60018680549050611e869190614c0f565b611e909190614c0f565b905060086000868381548110611ea957611ea86140a5565b5b906000526020600020015481526020019081526020016000206040518060c0016040529081600082015481526020016001820160009054906101000a900473ffffffffffffffffffffffffffffffffffffffff1673ffffffffffffffffffffffffffffffffffffffff1673ffffffffffffffffffffffffffffffffffffffff1681526020016002820160009054906101000a900473ffffffffffffffffffffffffffffffffffffffff1673ffffffffffffffffffffffffffffffffffffffff1673ffffffffffffffffffffffffffffffffffffffff168152602001600382018054611f9390614347565b80601f0160208091040260200160405190810160405280929190818152602001828054611fbf90614347565b801561200c5780601f10611fe15761010080835404028352916020019161200c565b820191906000526020600020905b815481529060010190602001808311611fef57829003601f168201915b50505050508152602001600482015481526020016005820160009054906101000a900460ff16151515158152505083838151811061204d5761204c6140a5565b5b6020026020010181905250508080600101915050611e5f565b50809350505050949350505050565b60008054906101000a900473ffffffffffffffffffffffffffffffffffffffff1681565b6120a1613330565b600360008373ffffffffffffffffffffffffffffffffffffffff1673ffffffffffffffffffffffffffffffffffffffff1681526020019081526020016000206040518060800160405290816000820180546120fb90614347565b80601f016020809104026020016040519081016040528092919081815260200182805461212790614347565b80156121745780601f1061214957610100808354040283529160200191612174565b820191906000526020600020905b81548152906001019060200180831161215757829003601f168201915b5050505050815260200160018201805461218d90614347565b80601f01602080910402602001604051908101604052809291908181526020018280546121b990614347565b80156122065780601f106121db57610100808354040283529160200191612206565b820191906000526020600020905b8154815290600101906020018083116121e957829003601f168201915b50505050508152602001600282015481526020016003820160009054906101000a900460ff1615151515815250509050919050565b6000600a60008373ffffffffffffffffffffffffffffffffffffffff1673ffffffffffffffffffffffffffffffffffffffff168152602001908152602001600020549050919050565b600360003373ffffffffffffffffffffffffffffffffffffffff1673ffffffffffffffffffffffffffffffffffffffff16815260200190815260200160002060030160009054906101000a900460ff16612313576040517f08c379a000000000000000000000000000000000000000000000000000000000815260040161230a90613f87565b60405180910390fd5b60006008600083815260200190815260200160002090503373ffffffffffffffffffffffffffffffffffffffff168160020160009054906101000a900473ffffffffffffffffffffffffffffffffffffffff1673ffffffffffffffffffffffffffffffffffffffff1614801561239857508060050160009054906101000a900460ff16155b156124ad5760018160050160006101000a81548160ff0219169083151502179055506000600a60003373ffffffffffffffffffffffffffffffffffffffff1673ffffffffffffffffffffffffffffffffffffffff16815260200190815260200160002054111561245857600a60003373ffffffffffffffffffffffffffffffffffffffff1673ffffffffffffffffffffffffffffffffffffffff168152602001908152602001600020600081548092919061245290614c43565b91905055505b3373ffffffffffffffffffffffffffffffffffffffff16827fe11a056f97f93da0dfd004a97e14a81cec2b745a0241f104df083b4a9291b74b4260405161249f9190613570565b60405180910390a3506128c8565b6000600190505b60025481101561288c57600060066000838152602001908152602001600020905060005b818054905081101561287d57848282815481106124f8576124f76140a5565b5b90600052602060002090600502016000015403612870576000805b60056000868152602001908152602001600020600401805490508110156125cf573373ffffffffffffffffffffffffffffffffffffffff16600560008781526020019081526020016000206004018281548110612573576125726140a5565b5b9060005260206000200160009054906101000a900473ffffffffffffffffffffffffffffffffffffffff1673ffffffffffffffffffffffffffffffffffffffff16036125c257600191506125cf565b8080600101915050612513565b5080612610576040517f08c379a000000000000000000000000000000000000000000000000000000000815260040161260790614cde565b60405180910390fd5b6000805b848481548110612627576126266140a5565b5b9060005260206000209060050201600401805490508110156126ec573373ffffffffffffffffffffffffffffffffffffffff1685858154811061266d5761266c6140a5565b5b906000526020600020906005020160040182815481106126905761268f6140a5565b5b9060005260206000200160009054906101000a900473ffffffffffffffffffffffffffffffffffffffff1673ffffffffffffffffffffffffffffffffffffffff16036126df57600191506126ec565b8080600101915050612614565b508061286557838381548110612705576127046140a5565b5b9060005260206000209060050201600401339080600181540180825580915050600190039060005260206000200160009091909190916101000a81548173ffffffffffffffffffffffffffffffffffffffff021916908373ffffffffffffffffffffffffffffffffffffffff1602179055506000600a60003373ffffffffffffffffffffffffffffffffffffffff1673ffffffffffffffffffffffffffffffffffffffff16815260200190815260200160002054111561281557600a60003373ffffffffffffffffffffffffffffffffffffffff1673ffffffffffffffffffffffffffffffffffffffff168152602001908152602001600020600081548092919061280f90614c43565b91905055505b3373ffffffffffffffffffffffffffffffffffffffff16877fe11a056f97f93da0dfd004a97e14a81cec2b745a0241f104df083b4a9291b74b4260405161285c9190613570565b60405180910390a35b5050505050506128c8565b80806001019150506124d8565b505080806001019150506124b4565b506040517f08c379a00000000000000000000000000000000000000000000000000000000081526004016128bf90614d4a565b60405180910390fd5b50565b6000600360003373ffffffffffffffffffffffffffffffffffffffff1673ffffffffffffffffffffffffffffffffffffffff16815260200190815260200160002060030160009054906101000a900460ff1661295c576040517f08c379a000000000000000000000000000000000000000000000000000000000815260040161295390613f87565b60405180910390fd5b83600073ffffffffffffffffffffffffffffffffffffffff166005600083815260200190815260200160002060020160009054906101000a900473ffffffffffffffffffffffffffffffffffffffff1673ffffffffffffffffffffffffffffffffffffffff1603612a02576040517f08c379a00000000000000000000000000000000000000000000000000000000081526004016129f990614927565b60405180910390fd5b8460008060056000848152602001908152602001600020600401805480602002602001604051908101604052809291908181526020018280548015612a9c57602002820191906000526020600020905b8160009054906101000a900473ffffffffffffffffffffffffffffffffffffffff1673ffffffffffffffffffffffffffffffffffffffff1681526020019060010190808311612a52575b5050505050905060005b8151811015612b12573373ffffffffffffffffffffffffffffffffffffffff16828281518110612ad957612ad86140a5565b5b602002602001015173ffffffffffffffffffffffffffffffffffffffff1603612b055760019250612b12565b8080600101915050612aa6565b5081612b53576040517f08c379a0000000000000000000000000000000000000000000000000000000008152600401612b4a90614db6565b60405180910390fd5b60008787905011612b99576040517f08c379a0000000000000000000000000000000000000000000000000000000008152600401612b9090614b43565b60405180910390fd5b600060016000815480929190612bae90614201565b9190505590506000600167ffffffffffffffff811115612bd157612bd061427d565b5b604051908082528060200260200182016040528015612bff5781602001602082028036833780820191505090505b5090503381600081518110612c1757612c166140a5565b5b602002602001019073ffffffffffffffffffffffffffffffffffffffff16908173ffffffffffffffffffffffffffffffffffffffff168152505060006040518060a001604052808481526020013373ffffffffffffffffffffffffffffffffffffffff1681526020018b8b8080601f016020809104026020016040519081016040528093929190818152602001838380828437600081840152601f19601f820116905080830192505050505050508152602001428152602001838152509050600660008c81526020019081526020016000208190806001815401808255809150506001900390600052602060002090600502016000909190919091506000820151816000015560208201518160010160006101000a81548173ffffffffffffffffffffffffffffffffffffffff021916908373ffffffffffffffffffffffffffffffffffffffff1602179055506040820151816002019081612d799190614524565b50606082015181600301556080820151816004019080519060200190612da09291906131fd565b5050506000600560008d8152602001908152602001600020905060005b8160040180549050811015612ee2573373ffffffffffffffffffffffffffffffffffffffff16826004018281548110612df957612df86140a5565b5b9060005260206000200160009054906101000a900473ffffffffffffffffffffffffffffffffffffffff1673ffffffffffffffffffffffffffffffffffffffff1614612ed557600a6000836004018381548110612e5957612e586140a5565b5b9060005260206000200160009054906101000a900473ffffffffffffffffffffffffffffffffffffffff1673ffffffffffffffffffffffffffffffffffffffff1673ffffffffffffffffffffffffffffffffffffffff1681526020019081526020016000206000815480929190612ecf90614201565b91905055505b8080600101915050612dbd565b508060020160009054906101000a900473ffffffffffffffffffffffffffffffffffffffff1673ffffffffffffffffffffffffffffffffffffffff163373ffffffffffffffffffffffffffffffffffffffff167fc24aaa6abc274cce2eba73996dfee19f090701113987113a6196b7fc305f3b4f868e8e42604051612f6a9493929190614bcf565b60405180910390a383985050505050505050509392505050565b612f8c61335a565b81600073ffffffffffffffffffffffffffffffffffffffff166005600083815260200190815260200160002060020160009054906101000a900473ffffffffffffffffffffffffffffffffffffffff1673ffffffffffffffffffffffffffffffffffffffff1603613032576040517f08c379a000000000000000000000000000000000000000000000000000000000815260040161302990614927565b60405180910390fd5b600560008481526020019081526020016000206040518060c00160405290816000820154815260200160018201805461306a90614347565b80601f016020809104026020016040519081016040528092919081815260200182805461309690614347565b80156130e35780601f106130b8576101008083540402835291602001916130e3565b820191906000526020600020905b8154815290600101906020018083116130c657829003601f168201915b505050505081526020016002820160009054906101000a900473ffffffffffffffffffffffffffffffffffffffff1673ffffffffffffffffffffffffffffffffffffffff1673ffffffffffffffffffffffffffffffffffffffff1681526020016002820160149054906101000a900460ff1615151515815260200160038201548152602001600482018054806020026020016040519081016040528092919081815260200182805480156131ec57602002820191906000526020600020905b8160009054906101000a900473ffffffffffffffffffffffffffffffffffffffff1673ffffffffffffffffffffffffffffffffffffffff16815260200190600101908083116131a2575b505050505081525050915050919050565b828054828255906000526020600020908101928215613276579160200282015b828111156132755782518260006101000a81548173ffffffffffffffffffffffffffffffffffffffff021916908373ffffffffffffffffffffffffffffffffffffffff1602179055509160200191906001019061321d565b5b50905061328391906133a8565b5090565b6040518060a0016040528060008152602001600073ffffffffffffffffffffffffffffffffffffffff1681526020016060815260200160008152602001606081525090565b6040518060c0016040528060008152602001600073ffffffffffffffffffffffffffffffffffffffff168152602001600073ffffffffffffffffffffffffffffffffffffffff16815260200160608152602001600081526020016000151581525090565b60405180608001604052806060815260200160608152602001600081526020016000151581525090565b6040518060c001604052806000815260200160608152602001600073ffffffffffffffffffffffffffffffffffffffff16815260200160001515815260200160008152602001606081525090565b5b808211156133c15760008160009055506001016133a9565b5090565b600080fd5b600080fd5b600080fd5b600080fd5b600080fd5b60008083601f8401126133f4576133f36133cf565b5b8235905067ffffffffffffffff811115613411576134106133d4565b5b60208301915083600182028301111561342d5761342c6133d9565b5b9250929050565b60008115159050919050565b61344981613434565b811461345457600080fd5b50565b60008135905061346681613440565b92915050565b60008083601f840112613482576134816133cf565b5b8235905067ffffffffffffffff81111561349f5761349e6133d4565b5b6020830191508360208202830111156134bb576134ba6133d9565b5b9250929050565b6000806000806000606086880312156134de576134dd6133c5565b5b600086013567ffffffffffffffff8111156134fc576134fb6133ca565b5b613508888289016133de565b9550955050602061351b88828901613457565b935050604086013567ffffffffffffffff81111561353c5761353b6133ca565b5b6135488882890161346c565b92509250509295509295909350565b6000819050919050565b61356a81613557565b82525050565b60006020820190506135856000830184613561565b92915050565b600080600080604085870312156135a5576135a46133c5565b5b600085013567ffffffffffffffff8111156135c3576135c26133ca565b5b6135cf878288016133de565b9450945050602085013567ffffffffffffffff8111156135f2576135f16133ca565b5b6135fe878288016133de565b925092505092959194509250565b60008060208385031215613623576136226133c5565b5b600083013567ffffffffffffffff811115613641576136406133ca565b5b61364d858286016133de565b92509250509250929050565b61366281613557565b811461366d57600080fd5b50565b60008135905061367f81613659565b92915050565b60006020828403121561369b5761369a6133c5565b5b60006136a984828501613670565b91505092915050565b600073ffffffffffffffffffffffffffffffffffffffff82169050919050565b60006136dd826136b2565b9050919050565b6136ed816136d2565b81146136f857600080fd5b50565b60008135905061370a816136e4565b92915050565b600060208284031215613726576137256133c5565b5b6000613734848285016136fb565b91505092915050565b600081519050919050565b600082825260208201905092915050565b6000819050602082019050919050565b61377281613557565b82525050565b60006137848383613769565b60208301905092915050565b6000602082019050919050565b60006137a88261373d565b6137b28185613748565b93506137bd83613759565b8060005b838110156137ee5781516137d58882613778565b97506137e083613790565b9250506001810190506137c1565b5085935050505092915050565b60006020820190508181036000830152613815818461379d565b905092915050565b600080600060408486031215613836576138356133c5565b5b6000613844868287016136fb565b935050602084013567ffffffffffffffff811115613865576138646133ca565b5b613871868287016133de565b92509250509250925092565b600080600060608486031215613896576138956133c5565b5b60006138a486828701613670565b93505060206138b586828701613670565b92505060406138c686828701613670565b9150509250925092565b600081519050919050565b600082825260208201905092915050565b6000819050602082019050919050565b613905816136d2565b82525050565b600081519050919050565b600082825260208201905092915050565b60005b8381101561394557808201518184015260208101905061392a565b60008484015250505050565b6000601f19601f8301169050919050565b600061396d8261390b565b6139778185613916565b9350613987818560208601613927565b61399081613951565b840191505092915050565b600081519050919050565b600082825260208201905092915050565b6000819050602082019050919050565b60006139d383836138fc565b60208301905092915050565b6000602082019050919050565b60006139f78261399b565b613a0181856139a6565b9350613a0c836139b7565b8060005b83811015613a3d578151613a2488826139c7565b9750613a2f836139df565b925050600181019050613a10565b5085935050505092915050565b600060a083016000830151613a626000860182613769565b506020830151613a7560208601826138fc565b5060408301518482036040860152613a8d8282613962565b9150506060830151613aa26060860182613769565b5060808301518482036080860152613aba82826139ec565b9150508091505092915050565b6000613ad38383613a4a565b905092915050565b6000602082019050919050565b6000613af3826138d0565b613afd81856138db565b935083602082028501613b0f856138ec565b8060005b85811015613b4b5784840389528151613b2c8582613ac7565b9450613b3783613adb565b925060208a01995050600181019050613b13565b50829750879550505050505092915050565b60006020820190508181036000830152613b778184613ae8565b905092915050565b60008060008060808587031215613b9957613b986133c5565b5b6000613ba7878288016136fb565b9450506020613bb8878288016136fb565b9350506040613bc987828801613670565b9250506060613bda87828801613670565b91505092959194509250565b600081519050919050565b600082825260208201905092915050565b6000819050602082019050919050565b613c1b81613434565b82525050565b600060c083016000830151613c396000860182613769565b506020830151613c4c60208601826138fc565b506040830151613c5f60408601826138fc565b5060608301518482036060860152613c778282613962565b9150506080830151613c8c6080860182613769565b5060a0830151613c9f60a0860182613c12565b508091505092915050565b6000613cb68383613c21565b905092915050565b6000602082019050919050565b6000613cd682613be6565b613ce08185613bf1565b935083602082028501613cf285613c02565b8060005b85811015613d2e5784840389528151613d0f8582613caa565b9450613d1a83613cbe565b925060208a01995050600181019050613cf6565b50829750879550505050505092915050565b60006020820190508181036000830152613d5a8184613ccb565b905092915050565b613d6b816136d2565b82525050565b6000602082019050613d866000830184613d62565b92915050565b60006080830160008301518482036000860152613da98282613962565b91505060208301518482036020860152613dc38282613962565b9150506040830151613dd86040860182613769565b506060830151613deb6060860182613c12565b508091505092915050565b60006020820190508181036000830152613e108184613d8c565b905092915050565b600080600060408486031215613e3157613e306133c5565b5b6000613e3f86828701613670565b935050602084013567ffffffffffffffff811115613e6057613e5f6133ca565b5b613e6c868287016133de565b92509250509250925092565b600060c083016000830151613e906000860182613769565b5060208301518482036020860152613ea88282613962565b9150506040830151613ebd60408601826138fc565b506060830151613ed06060860182613c12565b506080830151613ee36080860182613769565b5060a083015184820360a0860152613efb82826139ec565b9150508091505092915050565b60006020820190508181036000830152613f228184613e78565b905092915050565b600082825260208201905092915050565b7f55736572206e6f74207265676973746572656400000000000000000000000000600082015250565b6000613f71601383613f2a565b9150613f7c82613f3b565b602082019050919050565b60006020820190508181036000830152613fa081613f64565b9050919050565b7f546872656164206e616d652063616e6e6f7420626520656d7074790000000000600082015250565b6000613fdd601b83613f2a565b9150613fe882613fa7565b602082019050919050565b6000602082019050818103600083015261400c81613fd0565b9050919050565b7f44697265637420636861742072657175697265732065786163746c79206f6e6560008201527f207061727469636970616e740000000000000000000000000000000000000000602082015250565b600061406f602c83613f2a565b915061407a82614013565b604082019050919050565b6000602082019050818103600083015261409e81614062565b9050919050565b7f4e487b7100000000000000000000000000000000000000000000000000000000600052603260045260246000fd5b7f43616e6e6f74206372656174652064697265637420636861742077697468207360008201527f656c660000000000000000000000000000000000000000000000000000000000602082015250565b6000614130602383613f2a565b915061413b826140d4565b604082019050919050565b6000602082019050818103600083015261415f81614123565b9050919050565b7f5061727469636970616e74206e6f742072656769737465726564000000000000600082015250565b600061419c601a83613f2a565b91506141a782614166565b602082019050919050565b600060208201905081810360008301526141cb8161418f565b9050919050565b7f4e487b7100000000000000000000000000000000000000000000000000000000600052601160045260246000fd5b600061420c82613557565b91507fffffffffffffffffffffffffffffffffffffffffffffffffffffffffffffffff820361423e5761423d6141d2565b5b600182019050919050565b600061425482613557565b915061425f83613557565b9250828201905080821115614277576142766141d2565b5b92915050565b7f4e487b7100000000000000000000000000000000000000000000000000000000600052604160045260246000fd5b7f496e76616c6964207061727469636970616e7420616464726573730000000000600082015250565b60006142e2601b83613f2a565b91506142ed826142ac565b602082019050919050565b60006020820190508181036000830152614311816142d5565b9050919050565b7f4e487b7100000000000000000000000000000000000000000000000000000000600052602260045260246000fd5b6000600282049050600182168061435f57607f821691505b60208210810361437257614371614318565b5b50919050565b60008190508160005260206000209050919050565b60006020601f8301049050919050565b600082821b905092915050565b6000600883026143da7fffffffffffffffffffffffffffffffffffffffffffffffffffffffffffffffff8261439d565b6143e4868361439d565b95508019841693508086168417925050509392505050565b6000819050919050565b600061442161441c61441784613557565b6143fc565b613557565b9050919050565b6000819050919050565b61443b83614406565b61444f61444782614428565b8484546143aa565b825550505050565b600090565b614464614457565b61446f818484614432565b505050565b5b818110156144935761448860008261445c565b600181019050614475565b5050565b601f8211156144d8576144a981614378565b6144b28461438d565b810160208510156144c1578190505b6144d56144cd8561438d565b830182614474565b50505b505050565b600082821c905092915050565b60006144fb600019846008026144dd565b1980831691505092915050565b600061451483836144ea565b9150826002028217905092915050565b61452d8261390b565b67ffffffffffffffff8111156145465761454561427d565b5b6145508254614347565b61455b828285614497565b600060209050601f83116001811461458e576000841561457c578287015190505b6145868582614508565b8655506145ee565b601f19841661459c86614378565b60005b828110156145c45784890151825560018201915060208501945060208101905061459f565b868310156145e157848901516145dd601f8916826144ea565b8355505b6001600288020188555050505b505050505050565b82818337600083830152505050565b60006146118385613f2a565b935061461e8385846145f6565b61462783613951565b840190509392505050565b61463b81613434565b82525050565b60006060820190506146566000830187613561565b8181036020830152614669818587614605565b90506146786040830184614632565b95945050505050565b7f5573657220616c72656164792072656769737465726564000000000000000000600082015250565b60006146b7601783613f2a565b91506146c282614681565b602082019050919050565b600060208201905081810360008301526146e6816146aa565b9050919050565b7f557365726e616d652063616e6e6f7420626520656d7074790000000000000000600082015250565b6000614723601883613f2a565b915061472e826146ed565b602082019050919050565b6000602082019050818103600083015261475281614716565b9050919050565b7f5075626c6963206b65792063616e6e6f7420626520656d707479000000000000600082015250565b600061478f601a83613f2a565b915061479a82614759565b602082019050919050565b600060208201905081810360008301526147be81614782565b9050919050565b600060408201905081810360008301526147e0818688614605565b905081810360208301526147f5818486614605565b905095945050505050565b600082905092915050565b6148158383614800565b67ffffffffffffffff81111561482e5761482d61427d565b5b6148388254614347565b614843828285614497565b6000601f8311600181146148725760008415614860578287013590505b61486a8582614508565b8655506148d2565b601f19841661488086614378565b60005b828110156148a857848901358255600182019150602085019450602081019050614883565b868310156148c557848901356148c1601f8916826144ea565b8355505b6001600288020188555050505b50505050505050565b7f54687265616420646f6573206e6f742065786973740000000000000000000000600082015250565b6000614911601583613f2a565b915061491c826148db565b602082019050919050565b6000602082019050818103600083015261494081614904565b9050919050565b7f416c72656164792061207061727469636970616e740000000000000000000000600082015250565b600061497d601583613f2a565b915061498882614947565b602082019050919050565b600060208201905081810360008301526149ac81614970565b9050919050565b7f43616e6e6f74206a6f696e206469726563742074687265616400000000000000600082015250565b60006149e9601983613f2a565b91506149f4826149b3565b602082019050919050565b60006020820190508181036000830152614a18816149dc565b9050919050565b7f496e76616c696420726563656976657220616464726573730000000000000000600082015250565b6000614a55601883613f2a565b9150614a6082614a1f565b602082019050919050565b60006020820190508181036000830152614a8481614a48565b9050919050565b7f43616e6e6f742073656e64206d65737361676520746f2073656c660000000000600082015250565b6000614ac1601b83613f2a565b9150614acc82614a8b565b602082019050919050565b60006020820190508181036000830152614af081614ab4565b9050919050565b7f4d6573736167652063616e6e6f7420626520656d707479000000000000000000600082015250565b6000614b2d601783613f2a565b9150614b3882614af7565b602082019050919050565b60006020820190508181036000830152614b5c81614b20565b9050919050565b7f5265636569766572206e6f742072656769737465726564000000000000000000600082015250565b6000614b99601783613f2a565b9150614ba482614b63565b602082019050919050565b60006020820190508181036000830152614bc881614b8c565b9050919050565b6000606082019050614be46000830187613561565b8181036020830152614bf7818587614605565b9050614c066040830184613561565b95945050505050565b6000614c1a82613557565b9150614c2583613557565b9250828203905081811115614c3d57614c3c6141d2565b5b92915050565b6000614c4e82613557565b915060008203614c6157614c606141d2565b5b600182039050919050565b7f4e6f7420617574686f72697a656420746f206d61726b2074686973206d65737360008201527f6167650000000000000000000000000000000000000000000000000000000000602082015250565b6000614cc8602383613f2a565b9150614cd382614c6c565b604082019050919050565b60006020820190508181036000830152614cf781614cbb565b9050919050565b7f4d657373616765206e6f7420666f756e64000000000000000000000000000000600082015250565b6000614d34601183613f2a565b9150614d3f82614cfe565b602082019050919050565b60006020820190508181036000830152614d6381614d27565b9050919050565b7f4e6f74206120746872656164207061727469636970616e740000000000000000600082015250565b6000614da0601883613f2a565b9150614dab82614d6a565b602082019050919050565b60006020820190508181036000830152614dcf81614d93565b905091905056fea264697066735822122098f33d1e5ac16baa81a6606294125f68b176fadcf933fcdc3ca883ac354e1c2464736f6c63430008170033",
  "linkReferences": {},
  "deployedLinkReferences": {}
}